:020000040800F2
:1000000000280020310D0008810D0008810D000836
:10001000810D0008810D0008810D0008000000001E
:10002000000000000000000000000000810D00083A
:10003000810D000800000000810D0008810D0008FE
:10004000810D0008810D0008810D0008810D000858
:10005000810D0008810D0008AD070008D1070008D8
:10006000F5070008190800083D080008810D000880
:10007000810D0008810D0008810D0008810D000828
:10008000810D0008810D0008810D0008810D000818
:10009000810D0008810D0008810D0008610800082D
:1000A000810D0008810D0008810D0008810D0008F8
:1000B000810D0008810D0008810D0008810D0008E8
:1000C000810D0008810D0008810D0008810D0008D8
:1000D000810D0008810D0008810D0008810D0008C8
:1000E00009090008810D000800000000810D0008CA
:1000F000810D0008810D0008810D0008810D0008A8
:10010000810D0008810D0008810D0008810D000897
:10011000810D0008810D0008810D0008810D000887
:10012000810D0008810D0008810D0008810D000877
:1001300010B5054C237833B9044B13B10448AFF321
:1001400000800123237010BD00000020000000008B
:10015000CC0D000808B5034B1BB103490348AFF3AE
:10016000008008BD0000000004000020CC0D000845
:1001700080B500AF01220A21064800F034FD32208C
:1001800000F05CFD00220A21024800F02CFD00BFB7
:1001900080BD00BF0008014080B500AF4F4B082272
:1001A0001A604E4B04225A604C4B01229A604B4914
:1001B0004B4800F061FC494B09221A60474B04226E
:1001C0005A60464B01229A604449454800F054FC6D
:1001D000424B0A221A60414B04225A603F4B0122D3
:1001E0009A603E493E4800F047FC3C4B00221A60B2
:1001F0003A4B04225A60394B01229A6037493848F9
:1002000000F03AFC354B01221A60344B04225A604C
:10021000324B01229A603149314800F02DFC2F4BBE
:1002200002221A602D4B04225A602C4B01229A6044
:100230002A492B4800F020FC284B03221A60274B48
:1002400004225A60254B01229A602449244800F078
:1002500013FC224B04221A60204B04225A601F4BCD
:1002600001229A601D491E4800F006FC1B4B052226
:100270001A601A4B04225A60184B01229A601749DF
:10028000174800F0F9FB154B06221A60134B0422A5
:100290005A60124B01229A601049114800F0ECFBA1
:1002A0000E4B07221A600D4B04225A600B4B0122A1
:1002B0009A600A490A4800F0DFFB00220A21084838
:1002C00000F091FC00220821054800F08CFC00227F
:1002D0000921034800F087FC00BF80BD20000020FA
:1002E0000008014080B582B000AF0346FB80FB8868
:1002F00019460B4800F095FC00220921084800F03F
:1003000072FC00220821064800F06DFC012000F07C
:1003100095FCFFF72DFF00BF0837BD4680BD00BF2D
:100320000008014080B582B000AF0346FB80FB8827
:1003300019460B4800F075FC00220921084800F01E
:1003400052FC01220821064800F04DFC012000F07B
:1003500075FCFFF70DFF00BF0837BD4680BD00BF2D
:100360000008014080B500AF0120FFF7BBFF00BFD0
:1003700080BD80B500AF142000F060FCFFF70CFFDB
:100380000F2000F05BFCFFF7EDFF3820FFF7AAFF1E
:100390000620FFF7A7FF8020FFF7A4FF0F20FFF73D
:1003A000A1FF00BF80BD80B584B000AF786000239E
:1003B000FB60FB68102B02D1C020FFF793FFFB68A6
:1003C000202B06D1FFF7CEFF8020FFF78BFF002305
:1003D000FB607B681B789BB21846FFF7A3FF7B6826
:1003E00001337B60FB680133FB607B681B78002B6B
:1003F00000D0DEE700BF00BF1037BD4680BD000063
:1004000080B485B000AF78607B680C4A934202D11B
:100410000023FB600CE07B68094A934202D1012370
:10042000FB6005E07B68074A934201D10223FB6031
:10043000FB6818461437BD4680BC70470008014071
:10044000000C01400010014080B582B000AF786020
:10045000786800F081F800BF0837BD4680BD000015
:1004600080B584B000AF78607B681A687B681B79C0
:100470001946104600F07FFB7B681B799B08FB73D5
:100480007B681B7903F00303DBB29B00BB732F4A2D
:10049000FB7B023352F82320BB7B0F2101FA03F3CD
:1004A000DB4318462949FB7B0240023341F82320F5
:1004B000274BDB687A681279114601228A40D243C1
:1004C0001146234A0B40D360214B9B687A6812790E
:1004D000114601228A40D24311461D4A0B409360C7
:1004E0001B4B1B687A681279114601228A40D2435D
:1004F0001146174A0B4013607B685B791F2B0CD8A1
:10050000144B1B687A685279114601228A40D24303
:100510001146104A0B40136014E07B685B791F2B77
:1005200010D97B685B793F2B0CD80A4B5B687A68E3
:100530005279203A012101FA02F2D2431146054ACA
:100540000B40536000BF1037BD4680BD0000014026
:100550000004014000E100E080B588B000AF7860A1
:100560007B681B79FB6001233B617B681B6807F19B
:100570000C021146184600F07FFA7B681B799B0835
:10058000FB777B681B7903F00303DBB29B00BB772F
:100590007B681B681846FFF733FFB8617F4AFB7F13
:1005A000023352F82320BB7F0F2101FA03F3DB4310
:1005B00018467A49FB7F0240023341F82320774AEC
:1005C000FB7F023352F82310BB7FBA699A4073480D
:1005D000FB7F0A43023340F823207B681B7A012B00
:1005E00022D16F4BDB687A681279114601228A406A
:1005F000D24311466A4A0B40D360694BDB687A6884
:100600001279114601228A401146654A0B43D36094
:10061000634B9B687A681279114601228A40D24363
:1006200011465F4A0B4093607B681B7A002B23D1F5
:100630005B4B9B687A681279114601228A40D2434B
:100640001146574A0B409360554B9B687A68127964
:10065000114601228A401146514A0B439360504B88
:10066000DB687A681279114601228A40D24311462A
:100670004B4A0B40D36031E07B681B7A022B2DD1B3
:10068000474BDB687A681279114601228A40D243CF
:100690001146434A0B40D360414BDB687A681279BC
:1006A000114601228A4011463D4A0B43D3603C4B20
:1006B0009B687A681279114601228A40D24311461A
:1006C000374A0B409360364B9B687A681279114623
:1006D00001228A401146324A0B439360304B1B681B
:1006E0007A681279114601228A40D24311462C4A77
:1006F0000B4013602A4B1B687A681279114601225D
:100700008A401146264A0B4313607B685B791F2B96
:1007100017D8244B1B687A685279114601228A4007
:10072000D24311461F4A0B4013601E4B1B687A6868
:100730005279114601228A4011461A4A0B4313602E
:1007400020E07B685B791F2B1CD97B685B793F2B92
:1007500018D8144B5B687A685279203A012101FA63
:1007600002F2D24311460F4A0B4053600D4B5B68B7
:100770007A685279203A012101FA02F21146094AB7
:100780000B4353607B681B7919467B68DB68064A1C
:1007900042F8213000BF2037BD4680BD0000014037
:1007A0000004014000E100E02C00002080B500AF13
:1007B000054B5B69044A43F001035361034B1B681B
:1007C000984700BF80BD00BF000401402C000020FE
:1007D00080B500AF054B5B69044A43F002035361E7
:1007E000034B5B68984700BF80BD00BF0004014019
:1007F0002C00002080B500AF054B5B69044A43F034
:1008000004035361034B9B68984700BF80BD00BF42
:10081000000401402C00002080B500AF054B5B694F
:10082000044A43F008035361034BDB68984700BF59
:1008300080BD00BF000401402C00002080B500AF47
:10084000054B5B69044A43F010035361034B1B697A
:10085000984700BF80BD00BF000401402C0000206D
:1008600080B500AF264B5B6903F02003002B08D056
:10087000234B5B69224A43F020035361214B5B69A0
:1008800098471F4B5B6903F04003002B08D01C4BBB
:100890005B691B4A43F0400353611A4B9B699847BD
:1008A000174B5B6903F08003002B08D0144B5B6986
:1008B000134A43F080035361124BDB699847104B96
:1008C0005B6903F48073002B08D00D4B5B690C4A05
:1008D00043F4807353610B4B1B6A9847084B5B6969
:1008E00003F40073002B08D0054B5B69044A43F402
:1008F00000735361034B5B6A984700BF80BD00BF24
:10090000000401402C00002080B500AF304B5B6933
:1009100003F48063002B09D02D4B5B692C4A43F410
:10092000806353612B4B9B6A98474EE0284B5B6971
:1009300003F40063002B09D0254B5B69244A43F480
:1009400000635361234BDB6A98473EE0204B5B69B1
:1009500003F48053002B09D01D4B5B691C4A43F400
:10096000805353611B4B1B6B98472EE0184B5B6900
:1009700003F40053002B09D0154B5B69144A43F470
:1009800000535361134B5B6B98471EE0104B5B6940
:1009900003F48043002B09D00D4B5B690C4A43F4F0
:1009A000804353610B4B9B6B98470EE0084B5B6990
:1009B00003F40043002B08D0054B5B69044A43F461
:1009C00000435361034BDB6B984700BF80BD00BF02
:1009D000000401402C00002080B483B000AF786098
:1009E0007B680F2B42D801A252F823F02D0A000891
:1009F000310A0008350A0008390A00083D0A0008D3
:100A0000410A0008450A0008490A00084D0A000882
:100A1000510A0008550A0008590A00085D0A000832
:100A2000610A0008650A0008690A000800231EE040
:100A300004231CE008231AE00C2318E0102316E01E
:100A4000142314E0182312E01C2310E000230EE00E
:100A500004230CE008230AE00C2308E0102306E03E
:100A6000142304E0182302E01C2300E000231846AE
:100A70000C37BD4680BC704780B584B000AF78604D
:100A800039600023BB600023FB603B681B68072BB9
:100A900001D87B6801E07B680433BB603B681B685E
:100AA0001846FFF799FF02460F239340DA43BB68CD
:100AB0001B681A40BB681A603B685B68062B0BD04A
:100AC0003B685B68072B07D03B685B68052B03D04E
:100AD0003B685B68042B0AD13B685B68043B9A0067
:100AE0003B689B68134303F00F03FB6031E03B68F6
:100AF0005B68002B03D03B685B68012B06D13B6829
:100B00005B689B0003F00F03FB6022E03B685B68BF
:100B1000082B02D10423FB601BE00823FB603B6829
:100B20005B68022B0AD17B68DB683A681268012196
:100B300001FA02F21A437B68DA600AE07B68DB683C
:100B40003A681268012101FA02F2D2431A407B6826
:100B5000DA603B681B681846FFF73EFF0246FB68F9
:100B600003FA02F2BB681B681A43BB681A6000BF35
:100B70001037BD4680BD80B584B000AF78600B46AD
:100B8000FB700023FB60FB78072B01D87B6801E03A
:100B90007B680433FB60FB781846FFF71DFF0246B5
:100BA0000F239340DA43FB681B681A40FB681A6006
:100BB000FB781846FFF710FF0246042303FA02F2FF
:100BC000FB681B681A43FB681A607B68DB68FA786D
:100BD000012101FA02F2D2431A407B68DA6000BFB9
:100BE0001037BD4680BD80B485B000AFF860B960F5
:100BF0007A60FB68DB680121BA6801FA02F2D2432D
:100C00001A40FB68DA60FB68DA687968BB6801FA49
:100C100003F31A43FB68DA6000BF1437BD4680BC9B
:100C2000704780B483B000AF786039607B683A6801
:100C3000DA6000BF0C37BD4680BC704780B485B019
:100C400000AF78600023FB600BE00023BB6002E094
:100C5000BB680133BB60BB68FE2BF9D9FB6801336D
:100C6000FB60FA687B689A42EFD300BF1437BD4639
:100C700080BC704780B584B000AF0C4B01221A6075
:100C80000B48FFF790FB4FF49670FFF7D7FF094A28
:100C90003B4692E8030083E803003B461846FFF713
:100CA000DFFB00BF1037BD4680BD00BF1C00002029
:100CB000E40D0008FC0D000880B584B000AF184BAF
:100CC0009B69174A43F004039361154B9B69144ACF
:100CD00043F008039361124B9B69114A43F00103EF
:100CE0009361FFF746FBFFF73DFB0E4A3B4692E858
:100CF000030083E8030001233B720B4BFB603B4680
:100D00001846FFF7A1FB094B01221A60074B1B682D
:100D1000002BFBD0FFF726FB044B00221A60F5E7FF
:100D200000100240FC0D0008750C00081C0000209B
:100D30000D488546AFF300800C480D490D4A00234D
:100D400002E0D458C4500433C4188C42F9D30A4A80
:100D50000A4C002301E013600432A242FBD300F0EE
:100D600011F8FFF7A9FFFEE700280020000000208F
:100D7000000000200C0E0008000000206800002089
:100D8000FEE7000070B500250C4E0D4CA41BA4100E
:100D9000A54209D100F01AF800250A4E0A4CA41BFE
:100DA000A410A54205D170BD56F8253098470135ED
:100DB000EEE756F8253098470135F2E7040E0008B3
:100DC000040E0008040E0008080E0008F8B500BF65
:100DD000F8BC08BC9E467047F8B500BFF8BC08BC1C
:040DE0009E46704774
:100DE40049525120455854493920495320484150CB
:100DF40050454E4E45440000000C014009170000C8
:040E0400550100088C
:040E080031010008AC
:0400000508000D31B1
:00000001FF
