:020000040800F2
:10000000002800201106000861060008FD0600080F
:1000100003070008090700080F0700080000000098
:1000200000000000000000000000000015070008AC
:100030006106000800000000FD09000869070008CB
:1000400061060008610600086106000861060008F4
:10005000610600086106000885010008A901000882
:10006000CD010008F1010008150200086106000832
:1000700061060008610600086106000861060008C4
:1000800061060008610600086106000861060008B4
:1000900061060008610600086106000839020008D0
:1000A0006106000861060008610600086106000894
:1000B000610600086106000861060008BD0300082B
:1000C000B1030008D5030008C9030008E1030008D4
:1000D0002904000871040008610600086106000890
:1000E000E102000861060008000000006106000847
:1000F0006106000861060008610600086106000844
:100100006106000861060008610600086106000833
:100110006106000861060008610600086106000823
:100120006106000861060008610600086106000813
:1001300010B5054C237833B9044B13B10448AFF321
:1001400000800123237010BD00000020000000008B
:10015000B00F000808B5034B1BB103490348AFF3C8
:10016000008008BD0000000004000020B00F00085F
:1001700010F8012B11F8013B012A28BF9A42F7D051
:10018000D01A704780B500AF054B5B69044A43F055
:1001900001035361034B1B68984700BF80BD00BF3C
:1001A000000401402400002080B500AF054B5B69CE
:1001B000044A43F002035361034B5B68984700BF56
:1001C00080BD00BF000401402400002080B500AFC6
:1001D000054B5B69044A43F004035361034B9B687E
:1001E000984700BF80BD00BF0004014024000020EC
:1001F00080B500AF054B5B69044A43F008035361C7
:10020000034BDB68984700BF80BD00BF000401407E
:100210002400002080B500AF054B5B69044A43F021
:1002200010035361034B1B69984700BF80BD00BF9B
:10023000000401402400002080B500AF264B5B691C
:1002400003F02003002B08D0234B5B69224A43F0C4
:1002500020035361214B5B6998471F4B5B6903F097
:100260004003002B08D01C4B5B691B4A43F0400342
:1002700053611A4B9B699847174B5B6903F08003E6
:10028000002B08D0144B5B69134A43F08003536181
:10029000124BDB699847104B5B6903F48073002BAA
:1002A00008D00D4B5B690C4A43F4807353610B4BD0
:1002B0001B6A9847084B5B6903F40073002B08D056
:1002C000054B5B69044A43F400735361034B5B6A5B
:1002D000984700BF80BD00BF0004014024000020FB
:1002E00080B500AF304B5B6903F48063002B09D00D
:1002F0002D4B5B692C4A43F4806353612B4B9B6A03
:1003000098474EE0284B5B6903F40063002B09D04B
:10031000254B5B69244A43F400635361234BDB6A3A
:1003200098473EE0204B5B6903F48053002B09D0D3
:100330001D4B5B691C4A43F4805353611B4B1B6B81
:1003400098472EE0184B5B6903F40053002B09D04B
:10035000154B5B69144A43F400535361134B5B6BB9
:1003600098471EE0104B5B6903F48043002B09D0D3
:100370000D4B5B690C4A43F4804353610B4B9B6B01
:1003800098470EE0084B5B6903F40043002B08D04C
:10039000054B5B69044A43F400435361034BDB6B39
:1003A000984700BF80BD00BF00040140240000202A
:1003B00080B400AF00BFBD4680BC704780B400AFC2
:1003C00000BFBD4680BC704780B400AF00BFBD46D3
:1003D00080BC704780B400AF00BFBD4680BC704792
:1003E00080B582B000AF0E4B9B6803F00103DAB218
:1003F0003B7962F300033B71094B9B685B0803F098
:100400000103DAB23B7962F341033B71054B1B6890
:100410005B693A1D1046984700BF0837BD4680BD4E
:10042000003001406000002080B582B000AF0E4B6C
:100430009B6803F00103DAB23B7962F300033B717E
:10044000094B9B685B0803F00103DAB23B7962F366
:1004500041033B71054B1B685B693A1D1046984789
:1004600000BF0837BD4680BD003800406000002056
:1004700080B582B000AF00233B71144B1B685B0951
:1004800003F00103DAB23B7962F300033B710F4BD7
:100490001B689B0903F00103DAB23B7962F3410365
:1004A0003B710A4B1B68DB0903F00103DAB23B79AD
:1004B00062F382033B71064B1B685B693A1D104671
:1004C000984700BF0837BD4680BD00BF00380140D7
:1004D0001C00002080B400AF034B1B7883F00103A5
:1004E000DAB2014B1A70F7E7F000002080B400AFD9
:1004F000034B1B7883F00103DAB2014B1A70F7E764
:10050000A800002080B400AF034B1B7883F00103E8
:10051000DAB2014B1A70F7E73801002080B582B0DB
:1005200000AF00F001F900F06FFB0346002B00D094
:10053000FEE72B4B4FF480621A60294B294A9A60E0
:10054000274B03221A71284B284A92E803001860AF
:100550000433198002330A0C1A70254B4FF4806261
:100560001A60234B234A9A60214B03221A71224BB3
:10057000224A92E8030018600433198002330A0CFF
:100580001A701F4B4FF480621A601D4B1D4A9A600F
:100590001B4B03221A711C4B1C4A92E80300186083
:1005A0000433198002330A0C1A700D4800F0A6FBC0
:1005B0000346FB710E4800F0A1FB0346FB71104897
:1005C00000F09CFB0346FB71054800F0EDFB08487A
:1005D00000F0EAFB0A4800F0E7FB00F0F7FBFEE75B
:1005E00064000020D504000880000020C80F000827
:1005F000F4000020ED04000810010020D00F0008D6
:10060000AC00002005050008C8000020D80F000835
:100610000D488546AFF300800C480D490D4A002374
:1006200002E0D458C4500433C4188C42F9D30A4AA7
:100630000A4C002301E013600432A242FBD300F015
:1006400093FCFFF76BFFFEE700280020000000206E
:1006500000000020F40F000800000020D404002057
:10066000FEE7000080B483B000AF03463960FB7141
:1006700097F90730002B0ADB3B68DAB20C4997F98F
:1006800007305201D2B20B4483F800230AE03B68E2
:10069000DAB20849FB7903F00F03043B5201D2B2EE
:1006A0000B441A7600BF0C37BD4680BC704700BFB4
:1006B00000E100E000ED00E080B582B000AF7860BE
:1006C0007B68013BB3F1807F01D301230FE00A4A2D
:1006D0007B68013B536007214FF0FF30FFF7C2FFFB
:1006E000054B00229A60044B07221A60002318462B
:1006F0000837BD4680BD00BF10E000E080B400AF09
:10070000FEE780B400AFFEE780B400AFFEE780B440
:1007100000AFFEE71EF0040F0CBFEFF30880EFF30D
:10072000098000F039B900BF80B500AF0F216FF02C
:100730000100FFF797FF00BF80BD000080B400AF4D
:10074000044B5B68034A43F08053536000BFBD46CF
:1007500080BC704700ED00E080B500AF4FF4FA5068
:10076000FFF7AAFF00BF80BD80B500AF064B1B7826
:1007700083F00103DAB2044B1A7000F0BBF8FFF704
:10078000DDFF00BF80BD00BF2000002080B483B02B
:1007900000AF0023FB710023BB71214BD3F89C31C8
:1007A0007B710023FB7130E00023BB7123E0BB7938
:1007B0001B4A52F823301A79BB790133184951F892
:1007C00023301B799A4213D9BB79154A52F823304A
:1007D0003B60BB795A1CBB79114951F82220104962
:1007E00041F82320BB7901330D493A6841F82320B1
:1007F000BB790133BB71BA797979FB79CB1A013BAB
:100800009A42D4DBFB790133FB71FA797B79013BA6
:100810009A42C9DB00BF0C37BD4680BC704700BFA1
:100820002803002080B584B000AF0023FB600023C4
:100830003B60FFF7ABFF00BF3B4619462B4800F07B
:1008400055FB0346022BF7D144E0294AFB6852F8D6
:100850002330BB60FB680133254A52F823307B60AC
:10086000BB6893F83A30002B31D07B6893F83A306C
:10087000002B08D1B9681D4800F0F6FABB680322C6
:1008800083F83A202EE0BB681A797B681B799A427C
:1008900008D2B968154800F0E7FABB68032283F86C
:1008A0003A201FE0BB681A797B681B799A4208D10D
:1008B000B9680E4800F0D8FABB68032283F83A20E2
:1008C00005E0BB681A797B681B799A4209D8FB68F6
:1008D0000133FB60064BD3F89C21FB689A42B4D8E5
:1008E00000E000BF00BF1037BD4680BD8001002082
:1008F0002803002080B500AF244B1B68002B1AD1C1
:10090000234BD3F8A03193F83A30002B13D0204B6F
:10091000D3F8A031012283F83A201D4BD3F8A0313F
:1009200019461A4800F0A0FA194BD3F8A031184A1A
:10093000C2F8A43127E01749144800F0D7FA144B45
:10094000D3F8A431012283F83A20114BD3F8A03117
:100950001A790F4BD3F8A4311B799A4213D10C4B5F
:10096000D3F8A03193F83A30002B0CD0084BD3F8D1
:10097000A0311946054800F077FA054BD3F8A031AD
:10098000032283F83A2000BF80BD00BF8001002011
:1009900028030020CC04002080B584B000AF78602C
:1009A0007B6818331B68023B1B78FB73FB7B002BB7
:1009B0001BDB012B01DD022B16E0FFF733FF0D4B94
:1009C00093F8A831012B0ED10A4BD3F8A0311C3378
:1009D00009491846FFF7CCFB0346002B03D0FFF76D
:1009E00089FFFFF7ABFE00BF00BF00BF1037BD4659
:1009F00080BD00BF28030020E00F00086B4BD3F838
:100A0000A031EFF309829A61684BD3F8A0319A695B
:100A1000043A9A61654BD3F8A0319B6922461A606B
:100A2000624BD3F8A0319A69043A9A615F4BD3F8CC
:100A3000A0319B692A461A605C4BD3F8A0319A69B1
:100A4000043A9A61594BD3F8A0319B6932461A6037
:100A5000564BD3F8A0319A69043A9A61534BD3F8B4
:100A6000A0319B693A461A60504BD3F8A0319A697D
:100A7000043A9A614D4BD3F8A0319B6942461A6003
:100A80004A4BD3F8A0319A69043A9A61474BD3F89C
:100A9000A0319B694A461A60444BD3F8A0319A6949
:100AA000043A9A61414BD3F8A0319B6952461A60CF
:100AB0003E4BD3F8A0319A69043A9A613B4BD3F884
:100AC000A0319B695A461A60384BD3F8A431374A93
:100AD000C2F8A031354B0022C3F8A421334BD3F820
:100AE000A0319B691B689B46304BD3F8A0319A69B3
:100AF00004329A612D4BD3F8A0319B691B689A464A
:100B00002A4BD3F8A0319A6904329A61274BD3F863
:100B1000A0319B691B689946244BD3F8A0319A6990
:100B200004329A61214BD3F8A0319B691B68984627
:100B30001E4BD3F8A0319A6904329A611B4BD3F84B
:100B4000A0319B691B681F46184BD3F8A0319A69E6
:100B500004329A61154BD3F8A0319B691B681E467D
:100B6000124BD3F8A0319A6904329A610F4BD3F833
:100B7000A0319B691B681D460C4BD3F8A0319A69C4
:100B800004329A61094BD3F8A0319B691B681C465B
:100B9000064BD3F8A0319A6904329A61034BD3F81B
:100BA000A0319B6983F30988704700BF28030020A8
:100BB00080B400AF0B4A0C4BC3F890210A4BD3F81A
:100BC0009031A3F50063084AC2F89431064BD3F87C
:100BD00094310833044AC2F8983100BFBD4680BC46
:100BE000704700BF002800202803002080B400AF19
:100BF000044B1B7883F00103DAB2024B1A7000BF7A
:100C0000F6E700BF9401002080B582B000AF00235A
:100C1000FB71144B002283F8A821FFF7C9FF64225F
:100C20001149124800F0FEF80346002B01D00123C1
:100C3000FB710F4B0F4A07CA03C31A700E4BFF22FA
:100C40001A710D4B0D4A9A600B4B4FF496721A6055
:100C5000094800F053F80346FB71FB791846083742
:100C6000BD4680BD2803002098010020800100209F
:100C700058010020E00F00083C010020ED0B0008A7
:100C800080B485B000AF78607B681B691A467B68CA
:100C90009A617B689B691A1F7B689A617B689B6974
:100CA0004FF080721A607B689B691A1F7B689A619B
:100CB0007B689A687B689B691A607B689B691A1FCE
:100CC0007B689A617B689B696FF002021A6000235F
:100CD000FB600BE07B689B691A1F7B689A617B68ED
:100CE0009B6900221A60FB680133FB60FB680C2BD8
:100CF000F0DD00BF1437BD4680BC704780B584B0BE
:100D000000AF78600023FB73194BD3F898217B6800
:100D10001A617B681A697B681B68D21A7B685A6102
:100D20007B685B69134A934201D202231BE07B6814
:100D30005B69083B0E4AC2F898317868FFF7A0FF5C
:100D40000B4BD3F89C310A497A6841F82320084BB1
:100D5000D3F89C310133064AC2F89C317B680022EB
:100D600083F83A20FB7B18461037BD4680BD00BF94
:100D700028030020D80A002080B483B000AF0346C7
:100D8000FB71FB79012B06D0022B06D0002B00D083
:100D900005E000DF03E001DF01E002DF00BF00BF8C
:100DA0000C37BD4680BC704780B584B000AF78601A
:100DB0000023FB737B68022283F83A200020FFF7B0
:100DC000DBFFFB7B18461037BD4680BD80B500AF0A
:100DD000124B012283F8A821104B114AC3F8A0211D
:100DE0000F48FFF7E1FFFFF7B7FC0C4BD3F8A0313A
:100DF0009B6983F30988EFF314804FF0020140EA06
:100E0000010080F31488EFF3148343F0010383F3AC
:100E10001488034B9B68984700BF80BD28030020BF
:100E20003C01002080B485B000AFF860B9607A6002
:100E3000BB68002B01D1032311E0FB68BA68DA60BC
:100E4000FB68DA68FB685A60FB68DA68FB689A60DE
:100E5000FB687A681A61FB6800221A600023184652
:100E60001437BD4680BC704780B483B000AF786053
:100E700039607B68DB68002B03D07B681B69002B23
:100E800001D103232DE07B685A687B689B689A42F6
:100E900007D17B681A687B681B699A4201D10123DC
:100EA0001FE07B689B683A681A607B681B685A1C65
:100EB0007B681A607B689B687A68D26811467A689A
:100EC000126992000A44043A934204D17B68DA68BA
:100ED0007B689A6004E07B689B681A1D7B689A6057
:100EE000002318460C37BD4680BC704780B483B0E1
:100EF00000AF786039607B68DB68002B03D07B68CB
:100F00001B69002B01D1032328E07B685A687B68AA
:100F10009B689A4201D1022320E07B685B681A68D3
:100F20003B681A607B681B685A1E7B681A607B6886
:100F30005B687A68D26811467A68126992000A443E
:100F4000043A934204D17B68DA687B685A6004E013
:100F50007B685B681A1D7B685A60002318460C3753
:100F6000BD4680BC7047000070B500250C4E0D4C8E
:100F7000A41BA410A54209D100F01AF800250A4EBE
:100F80000A4CA41BA410A54205D170BD56F825300B
:100F900098470135EEE756F8253098470135F2E7D6
:100FA000EC0F0008EC0F0008EC0F0008F00F000831
:100FB000F8B500BFF8BC08BC9E467047F8B500BF46
:080FC000F8BC08BC9E46704716
:100FC8005461736B5F3100005461736B5F320000D2
:100FD8005461736B5F33000069646C655461736BB3
:040FE8000000000005
:040FEC0055010008A3
:040FF00031010008C3
:0400000508000611D8
:00000001FF
