:020000040800F2
:1000000000280020090F0008590F0008590F0008A8
:10001000590F0008590F0008590F00080000000090
:10002000000000000000000000000000590F000860
:10003000590F000800000000590F0008590F000870
:10004000590F0008590F0008590F0008590F0008F0
:10005000590F0008590F0008AD020008D10200082E
:10006000F5020008190300083D030008590F0008B5
:10007000590F0008590F0008590F0008590F0008C0
:10008000590F0008590F0008590F0008590F0008B0
:10009000590F0008590F0008590F000861030008A4
:1000A000590F0008590F0008590F0008590F000890
:1000B000590F0008590F0008590F0008BD0C00081F
:1000C000B10C0008D50C0008C90C0008750D00081B
:1000D000BD0D0008050E0008590F0008590F000853
:1000E00009040008590F000800000000590F00081B
:1000F000590F0008590F0008590F0008590F000840
:10010000590F0008590F0008590F0008590F00082F
:10011000590F0008590F0008590F0008590F00081F
:10012000590F0008590F0008590F0008590F00080F
:1001300010B5054C237833B9044B13B10448AFF321
:1001400000800123237010BD180000200000000073
:10015000A40F000808B5034B1BB103490348AFF3D4
:10016000008008BD000000001C000020A40F000853
:1001700080B58AB000AF40233B624FF48063FB61DF
:10018000094B7B600023FB6000237B620023BB6084
:10019000064800F07BFC3B1D1946044800F068FB54
:1001A00000BF2837BD4680BDA08601000054004036
:1001B00080B5C8B002AF07F10C03186007F108035F
:1001C0001960FB1D1A70002387F8173107F10C0323
:1001D0001B681B0ADAB207F114031A7007F10C034B
:1001E0001B68DAB207F114035A70022387F817313B
:1001F00011E097F81731023B07F1080212681A4420
:1002000097F81731117807F11402D15497F8173184
:10021000013387F8173197F81721FB1D1B7802333C
:100220009A42E6DBFB1D1B780233194607F11402E4
:1002300000230193002300930B462A21044800F079
:100240006DFC0023184607F58C77BD4680BD00BFC6
:100250000054004080B588B002AFF860B960134622
:10026000FB71FB681B0ADBB23B75FB68DBB27B757D
:1002700007F11402002301930123009302232A2192
:10028000094800F04BFCFA79012301930023009305
:100290001346BA682A21044800F096FC0023184649
:1002A0001837BD4680BD00BF0054004080B500AF88
:1002B000054B5B69044A43F001035361034B1B6820
:1002C000984700BF80BD00BF0004014080000020AF
:1002D00080B500AF054B5B69044A43F002035361EC
:1002E000034B5B68984700BF80BD00BF000401401E
:1002F0008000002080B500AF054B5B69044A43F0E5
:1003000004035361034B9B68984700BF80BD00BF47
:10031000000401408000002080B500AF054B5B6900
:10032000044A43F008035361034BDB68984700BF5E
:1003300080BD00BF000401408000002080B500AFF8
:10034000054B5B69044A43F010035361034B1B697F
:10035000984700BF80BD00BF00040140800000201E
:1003600080B500AF264B5B6903F02003002B08D05B
:10037000234B5B69224A43F020035361214B5B69A5
:1003800098471F4B5B6903F04003002B08D01C4BC0
:100390005B691B4A43F0400353611A4B9B699847C2
:1003A000174B5B6903F08003002B08D0144B5B698B
:1003B000134A43F080035361124BDB699847104B9B
:1003C0005B6903F48073002B08D00D4B5B690C4A0A
:1003D00043F4807353610B4B1B6A9847084B5B696E
:1003E00003F40073002B08D0054B5B69044A43F407
:1003F00000735361034B5B6A984700BF80BD00BF29
:10040000000401408000002080B500AF304B5B69E4
:1004100003F48063002B09D02D4B5B692C4A43F415
:10042000806353612B4B9B6A98474EE0284B5B6976
:1004300003F40063002B09D0254B5B69244A43F485
:1004400000635361234BDB6A98473EE0204B5B69B6
:1004500003F48053002B09D01D4B5B691C4A43F405
:10046000805353611B4B1B6B98472EE0184B5B6905
:1004700003F40053002B09D0154B5B69144A43F475
:1004800000535361134B5B6B98471EE0104B5B6945
:1004900003F48043002B09D00D4B5B690C4A43F4F5
:1004A000804353610B4B9B6B98470EE0084B5B6995
:1004B00003F40043002B08D0054B5B69044A43F466
:1004C00000435361034BDB6B984700BF80BD00BF07
:1004D000000401408000002080B483B000AF786049
:1004E0007B680F2B42D801A252F823F02D0500089B
:1004F0003105000835050008390500083D050008EC
:100500004105000845050008490500084D0500089B
:100510005105000855050008590500085D0500084B
:1005200061050008650500086905000800231EE054
:1005300004231CE008231AE00C2318E0102316E023
:10054000142314E0182312E01C2310E000230EE013
:1005500004230CE008230AE00C2308E0102306E043
:10056000142304E0182302E01C2300E000231846B3
:100570000C37BD4680BC704780B584B000AF786052
:1005800039600023BB600023FB603B681B68072BBE
:1005900001D87B6801E07B680433BB603B681B6863
:1005A0001846FFF799FF02460F239340DA43BB68D2
:1005B0001B681A40BB681A603B685B68062B0BD04F
:1005C0003B685B68072B07D03B685B68052B03D053
:1005D0003B685B68042B0AD13B685B68043B9A006C
:1005E0003B689B68134303F00F03FB6031E03B68FB
:1005F0005B68002B03D03B685B68012B06D13B682E
:100600005B689B0003F00F03FB6022E03B685B68C4
:10061000082B02D10423FB601BE00823FB603B682E
:100620005B68022B0AD17B68DB683A68126801219B
:1006300001FA02F21A437B68DA600AE07B68DB6841
:100640003A681268012101FA02F2D2431A407B682B
:10065000DA603B681B681846FFF73EFF0246FB68FE
:1006600003FA02F2BB681B681A43BB681A6000BF3A
:100670001037BD4680BD80B582B000AF78600B46B4
:10068000FB701346BB70BB78012B07D000BF002165
:10069000786800F017F80346002BF8D1FB78012B9F
:1006A00006D07B681B6843F480727B681A6005E0A3
:1006B0007B681B6823F480727B681A6000BF083770
:1006C000BD4680BD80B487B000AF7860396000233C
:1006D0003B610023FB600023BB600023FB753B688C
:1006E000032B3CD0032B04D8012B14D0012B1ED894
:1006F00005E0052B27D9304A93423CD056E07B6871
:100700009B6903F00203002B02D00123FB754DE02F
:100710000023FB754AE07B685B6903F00103002B53
:1007200002D00123FB7541E00023FB753EE07B68AE
:100730005B6903F00203002B02D00123FB7535E057
:100740000023FB7532E07B685B6903F08003002BBC
:1007500002D00123FB7529E00023FB7526E07B68AE
:100760005B6903F04003002B02D00123FB751DE001
:100770000023FB751AE07B685B693B617B689B69C2
:10078000FB60FB681B04FB603A69FB68134323F0C2
:100790007F43BB60BA683B6813403A689A4202D113
:1007A0000123FB7501E00023FB7500BFFB7D1846AC
:1007B0001C37BD4680BC70478000070080B483B002
:1007C00000AF78600B467B8013467B707B885B00B4
:1007D0007B807B78002B04D07B8843F001037B80F7
:1007E00003E07B8823F001037B807A887B681A61B1
:1007F00000BF0C37BD4680BC704780B485B000AFE9
:1008000078600B46FB707B681B68FB81FB78002BD4
:1008100007D1FB8943F48063FB81FA897B681A6006
:1008200006E0FB8923F48063FB81FA897B681A6008
:1008300000BF1437BD4680BC704780B483B000AFA2
:1008400078600B46FB70FB78012B06D07B681B6839
:1008500043F400727B681A6005E07B681B6823F430
:1008600000727B681A6000BF0C37BD4680BC7047C1
:10087000B0B586B000AF786039600023FB820023FA
:10088000BB827A4B3B610023FB817B68784A9342B1
:1008900010D1784A3B6814461D460FCD0FC40FCDCA
:1008A0000FC42B682360744BDB69734A43F4001355
:1008B000D36110E06F4B3A6803F1240415460FCD65
:1008C0000FC40FCD0FC42B6823606B4BDB696A4AE2
:1008D00043F48003D3613B689B68002B7FD17B6826
:1008E0005B68FB82FB8A23F03F03FB8200F02EFA59
:1008F00038613B69614AA2FB03239B0CBB82FA8AE5
:10090000BB8A1343FB82FA8A7B685A607B681B6848
:1009100023F001027B681A600023FB823B681B689E
:100920004CF25032934204D03B681B68544A9342C5
:1009300012D13B681B685B003A69B2FBF3F3FB81A1
:10094000FA8AFB891343FB82FA8A7B68DA61BB8AE5
:1009500001331A467B681A627B681B68FB823B681E
:100960009B699AB23B68DB699BB213439AB23B68BE
:100970009B689BB213439AB23B685B689BB213437C
:100980009AB2FB8A1343FB82FA8A7B681A600023BF
:10099000FB823B689B89012B0DD10123FB823B68C5
:1009A0001B8A5B001AB2B7F9163013431BB2FB82E5
:1009B000FA8A7B68DA600023FB823B68DB895B0094
:1009C0001AB2B7F9163013431BB2FB823B685B695E
:1009D0009AB2FB8A1343FB82FA8A7B689A603B686F
:1009E0001B6A002B38D07B685B6843F480727B689D
:1009F0005A607B685B6843F400727B685A607B686E
:100A00005B6843F480627B685A607B68184A934253
:100A10000CD11C4B1B681B4A43F000431360194B5D
:100A20005B68184A43F0010353600FE07B68164A85
:100A300093420BD1134B5B68124A43F0020353609D
:100A4000104B5B680F4A43F0040353607B6800223D
:100A50005A617B6800229A617B681B6843F001023F
:100A60007B681A6000BF1837BD46B0BD00127A001F
:100A700000540040340000200010024083DE1B437D
:100A8000A086010000E100E00058004080B586B07B
:100A900000AF78607B681E4A934218D10623FB6042
:100AA00007233B6101237B6107F10C0319461948B9
:100AB000FFF762FD0723FB6007233B6101237B6196
:100AC00007F10C0319461348FFF756FD1BE07B683E
:100AD000114A934217D10A23FB6007233B6101238C
:100AE0007B6107F10C0319460A48FFF745FD0B230C
:100AF000FB6007233B6101237B6107F10C0319466F
:100B00000448FFF739FD00BF1837BD4680BD00BF60
:100B100000540040000C01400058004080B586B0F1
:100B200000AFF8607A603B600B467B8100237B61FD
:100B300097F824301A460021F868FFF79CFD00BFA3
:100B40000121F868FFF7BEFD0346002BF8D07B8932
:100B500000221946F868FFF731FE00BF0221F8684D
:100B6000FFF7B0FD0346002BF8D000BF1549F86829
:100B7000FFF7A8FD0346002BF8D000237B6111E0AE
:100B80007B697A6813441B781A46FB681A6100BFB8
:100B90000421F868FFF796FD0346002BF8D07B6927
:100BA00001337B617B693A689A42E9D897F8203033
:100BB000002B03D10021F868FFF73FFE00BF183774
:100BC000BD4680BD8000070080B586B000AFF860EC
:100BD0007A603B600B467B810023FB75FB68324AE1
:100BE000934214BF01230023DBB2BB7597F8243076
:100BF0001A460021F868FFF73EFD00BF0121F868A2
:100C0000FFF760FD0346002BF8D07B8901221946CF
:100C1000F868FFF7D3FD00BF0221F868FFF752FD27
:100C20000346002BF8D00021F868FFF7E6FD3B688B
:100C3000002B1CD03B68FB7512E000BF0321F86855
:100C4000FFF740FD0346002BF8D0FB681B69DAB2C2
:100C50007B681A707B6801337B60FB7D013BFB7511
:100C6000FB7D012BE9D80121F868FFF7C6FD97F855
:100C70002030002B03D10021F868FFF7DEFDBA7D9C
:100C80000A491346DB0013449B000B4418331B68CE
:100C9000B3F5806F03D10021F868FFF7AEFD00BF08
:100CA0001837BD4680BD00BF00540040340000200E
:100CB00080B400AF00BFBD4680BC704780B400AFB9
:100CC00000BFBD4680BC704780B400AF00BFBD46CA
:100CD00080BC704780B400AF00BFBD4680BC704789
:100CE00080B483B000AF0C4B5B689B0803F0030338
:100CF0007B607B68012B05D0022B05D0002B05D132
:100D0000064B04E0064B02E0054B00E000231846CA
:100D10000C37BD4680BC70470010024000127A00BC
:100D20000024F40080B500AFFFF7DAFF0146054B61
:100D30005B681B0903F00703034AD35C21FA03F342
:100D4000184680BD001002400000002080B500AFB2
:100D5000FFF7E8FF0146054B5B681B0A03F007033A
:100D6000034AD35C21FA03F3184680BD0010024009
:100D70001000002080B582B000AF0E4B9B6803F0DE
:100D80000103DAB23B7962F300033B71094B9B68C4
:100D90005B0803F00103DAB23B7962F341033B7174
:100DA000054B1B685B693A1D1046984700BF083722
:100DB000BD4680BD00300140BC00002080B582B03F
:100DC00000AF0E4B9B6803F00103DAB23B7962F38C
:100DD00000033B71094B9B685B0803F00103DAB227
:100DE0003B7962F341033B71054B1B685B693A1D1C
:100DF0001046984700BF0837BD4680BD0038004008
:100E0000BC00002080B582B000AF00233B71144BC2
:100E10001B685B0903F00103DAB23B7962F300035C
:100E20003B710F4B1B689B0903F00103DAB23B795E
:100E300062F341033B710A4B1B68DB0903F00103BA
:100E4000DAB23B7962F382033B71064B1B685B6944
:100E50003A1D1046984700BF0837BD4680BD00BF09
:100E6000003801407C00002080B584B000AF244BE6
:100E70009B69234A43F004039361214B9B69204AF9
:100E800043F0080393611E4B9B691D4A43F0010325
:100E900093611C4A07F1080392E8030018600433C9
:100EA000198002330A0C1A703B4600221A60C3F8FC
:100EB0000320FFF75DF907F1080307221946AF2069
:100EC000FFF776F93B4607221946AF20FFF7C2F934
:100ED0000A233B720B237B720C23BB720D23FB7224
:100EE00007F108030422194640F6FF70FFF760F986
:100EF0003B460422194640F6FF70FFF7ABF9FEE7C8
:100F000000100240BC0F00080D488546AFF300807A
:100F10000C480D490D4A002302E0D458C450043354
:100F2000C4188C42F9D30A4A0A4C002301E013602A
:100F30000432A242FBD300F011F8FFF795FFFEE761
:100F4000002800200000002018000020CC0F00081E
:100F500018000020C0000020FEE7000070B500254A
:100F60000C4E0D4CA41BA410A54209D100F01AF898
:100F700000250A4E0A4CA41BA410A54205D170BD41
:100F800056F8253098470135EEE756F82530984752
:100F90000135F2E7C40F0008C40F0008C40F0008B1
:100FA000C80F0008F8B500BFF8BC08BC9E467047E3
:0C0FB000F8B500BFF8BC08BC9E467047B6
:080FBC00010203040506070011
:040FC40055010008CB
:040FC80031010008EB
:100FCC0000000000000000000102030405060708F1
:080FDC00000000000102030403
:0400000508000F09D7
:00000001FF
