:020000040800F2
:1000000000280020B50500080506000807060008BE
:100010000D0600081306000819060008000000007D
:100020000000000000000000000000001F060008A3
:10003000050600080000000071060008050600081B
:100040000506000805060008050600080506000864
:100050000506000805060008710100089501000862
:10006000B9010008DD0100080102000805060008CA
:100070000506000805060008050600080506000834
:100080000506000805060008050600080506000824
:1000900005060008050600080506000825020008F8
:1000A0000506000805060008050600080506000804
:1000B000050600080506000805060008A903000853
:1000C0009D030008C1030008B5030008CD03000824
:1000D000150400085D040008050600080506000870
:1000E000CD02000805060008000000000506000813
:1000F00005060008050600080506000805060008B4
:1001000005060008050600080506000805060008A3
:100110000506000805060008050600080506000893
:100120000506000805060008050600080506000883
:1001300010B5054C237833B9044B13B10448AFF321
:1001400000800123237010BD00000020000000008B
:10015000A008000808B5034B1BB103490348AFF3DF
:10016000008008BD0000000004000020A008000876
:1001700080B500AF054B5B69044A43F0010353614E
:10018000034B1B68984700BF80BD00BF00040140BF
:100190002000002080B500AF054B5B69044A43F0A6
:1001A00002035361034B5B68984700BF80BD00BFEB
:1001B000000401402000002080B500AF054B5B69C2
:1001C000044A43F004035361034B9B68984700BF04
:1001D00080BD00BF000401402000002080B500AFBA
:1001E000054B5B69044A43F008035361034BDB682A
:1001F000984700BF80BD00BF0004014020000020E0
:1002000080B500AF054B5B69044A43F010035361AE
:10021000034B1B69984700BF80BD00BF000401402D
:100220002000002080B500AF264B5B6903F020035F
:10023000002B08D0234B5B69224A43F02003536113
:10024000214B5B6998471F4B5B6903F04003002B10
:1002500008D01C4B5B691B4A43F0400353611A4BA7
:100260009B699847174B5B6903F08003002B08D00C
:10027000144B5B69134A43F080035361124BDB69F3
:100280009847104B5B6903F48073002B08D00D4B2B
:100290005B690C4A43F4807353610B4B1B6A9847AC
:1002A000084B5B6903F40073002B08D0054B5B69B6
:1002B000044A43F400735361034B5B6A984700BFE1
:1002C00080BD00BF000401402000002080B500AFC9
:1002D000304B5B6903F48063002B09D02D4B5B69C5
:1002E0002C4A43F4806353612B4B9B6A98474EE042
:1002F000284B5B6903F40063002B09D0254B5B6935
:10030000244A43F400635361234BDB6A98473EE081
:10031000204B5B6903F48053002B09D01D4B5B69B4
:100320001C4A43F4805353611B4B1B6B98472EE0D0
:10033000184B5B6903F40053002B09D0154B5B6924
:10034000144A43F400535361134B5B6B98471EE010
:10035000104B5B6903F48043002B09D00D4B5B69A4
:100360000C4A43F4804353610B4B9B6B98470EE060
:10037000084B5B6903F40043002B08D0054B5B6915
:10038000044A43F400435361034BDB6B984700BFBF
:1003900080BD00BF000401402000002080B400AFF9
:1003A00000BFBD4680BC704780B400AF00BFBD46F3
:1003B00080BC704780B400AF00BFBD4680BC7047B2
:1003C00080B400AF00BFBD4680BC704780B582B02E
:1003D00000AF0E4B9B6803F00103DAB23B7962F386
:1003E00000033B71094B9B685B0803F00103DAB221
:1003F0003B7962F341033B71054B1B685B693A1D16
:100400001046984700BF0837BD4680BD0030014008
:100410005C00002080B582B000AF0E4B9B6803F0FB
:100420000103DAB23B7962F300033B71094B9B682D
:100430005B0803F00103DAB23B7962F341033B71DD
:10044000054B1B685B693A1D1046984700BF08378B
:10045000BD4680BD003800405C00002080B582B001
:1004600000AF00233B71144B1B685B0903F00103D1
:10047000DAB23B7962F300033B710F4B1B689B09B7
:1004800003F00103DAB23B7962F341033B710A4B9B
:100490001B68DB0903F00103DAB23B7962F38203E4
:1004A0003B71064B1B685B693A1D1046984700BFBD
:1004B0000837BD4680BD00BF003801401C00002049
:1004C00080B400AFFEE780B400AFFEE780B400AFB9
:1004D000FEE7000080B582B000AF00F0AAF800F09F
:1004E000EFF80346002B00D0FEE7264B4FF4806266
:1004F0001A60244B244A9A60224B03221A71234B20
:10050000234A92E8030018600433198002330A0C6E
:100510001A70204B4FF480621A601E4B1E4A9A607C
:100520001C4B02221A711D4B1D4A92E803001860F1
:100530000433198002330A0C1A701A4B4FF480628C
:100540001A60184B184A9A60164B01221A71174B01
:10055000174A92E8030018600433198002330A0C2A
:100560001A70084800F026F90346FB71094800F0AC
:1005700021F90346FB710B4800F01CF90346FB719F
:10058000FEE700BF60000020C10400087C000020DE
:10059000B8080008E8000020C70400080401002093
:1005A000C0080008A4000020CD040008C0000020FE
:1005B000C80800080D488546AFF300800C480D4977
:1005C0000D4A002302E0D458C4500433C4188C42AE
:1005D000F9D30A4A0A4C002301E013600432A24214
:1005E000FBD300F039F9FFF775FFFEE70028002084
:1005F0000000002000000020E408000800000020A7
:10060000C0040020FEE780B400AFFEE780B400AF76
:10061000FEE780B400AFFEE780B400AFFEE71EF057
:10062000040F0CBFEFF30880EFF3098000F007B868
:1006300000BF80B400AF00BFBD4680BC704780B42F
:1006400085B000AF78607B6818331B68023B1B786D
:10065000FB73FB7B022B03D0032B03D0012B02E0A7
:1006600000BF00E000BF00BF1437BD4680BC70472C
:1006700080B400AF00BFBD4680BC704780B400AFFF
:100680000B4A0C4BC3F890210A4BD3F89031A3F5D9
:100690000063084AC2F89431064BD3F8943108330A
:1006A000044AC2F8983100BFBD4680BC704700BF05
:1006B00000280020D002002080B400AF00BFFDE77A
:1006C00080B582B000AF0023FB71144B002283F889
:1006D000A821FFF7D3FF64221149124800F09AF8CD
:1006E0000346002B01D00123FB710F4B0F4A07CAB1
:1006F00003C31A700E4BFF221A710D4B0D4A9A60FC
:100700000B4B4FF496721A60094800F053F80346F9
:10071000FB71FB7918460837BD4680BDD00200202A
:10072000400100202C01002098040020D00800087F
:100730007C040020B906000880B485B000AF786062
:100740007B681B691A467B689A617B689B691A1FE4
:100750007B689A617B689B694FF080721A607B6846
:100760009B691A1F7B689A617B689A687B689B69A2
:100770001A607B689B691A1F7B689A617B689B691A
:100780006FF002021A600023FB600BE07B689B693C
:100790001A1F7B689A617B689B6900221A60FB685C
:1007A0000133FB60FB680C2BF0DD00BF1437BD4646
:1007B00080BC704780B584B000AF78600023FB73C5
:1007C000124BD3F898217B681A617B681A697B68A1
:1007D0001B68D21A7B685A617B685B690C4A93423A
:1007E00001D202230DE07B685B69083B074AC2F82F
:1007F00098317868FFF7A0FF7B68002283F83A20E1
:10080000FB7B18461037BD4680BD00BFD0020020DC
:10081000C00A002080B485B000AFF860B9607A608B
:10082000BB68002B01D1032311E0FB68BA68DA60D2
:10083000FB68DA68FB685A60FB68DA68FB689A60F4
:10084000FB687A681A61FB6800221A600023184668
:100850001437BD4680BC704770B500250C4E0D4C5A
:10086000A41BA410A54209D100F01AF800250A4ED5
:100870000A4CA41BA410A54205D170BD56F8253022
:1008800098470135EEE756F8253098470135F2E7ED
:10089000DC080008DC080008DC080008E0080008A4
:1008A000F8B500BFF8BC08BC9E467047F8B500BF5D
:0808B000F8BC08BC9E4670472D
:1008B8005461736B5F3100005461736B5F320000E9
:1008C8005461736B5F33000069646C655461736BCA
:0408D800000000001C
:0408DC0055010008BA
:0408E00031010008DA
:04000005080005B535
:00000001FF
