:020000040800F2
:100000000028002099090008E9090008E90900080A
:10001000E9090008E9090008E909000800000000F2
:10002000000000000000000000000000E9090008D6
:10003000E909000800000000E9090008E9090008D2
:10004000E9090008E9090008E9090008E9090008C8
:10005000E9090008E9090008250400084904000826
:100060006D04000891040008B5040008E9090008BF
:10007000E9090008E9090008E9090008E909000898
:10008000E9090008E9090008E9090008E909000888
:10009000E9090008E9090008E9090008D90400088D
:1000A000E9090008E9090008E9090008E909000868
:1000B000E9090008E9090008E9090008FB07000848
:1000C000EF070008130800080708000821080008C7
:1000D00069080008B1080008E9090008E9090008F2
:1000E00081050008E909000800000000E90900088E
:1000F000E9090008E9090008E9090008E909000818
:10010000E9090008E9090008E9090008E909000807
:10011000E9090008E9090008E9090008E9090008F7
:10012000E9090008E9090008E9090008E9090008E7
:1001300010B5054C237833B9044B13B10448AFF321
:1001400000800123237010BD00000020000000008B
:10015000340A000808B5034B1BB103490348AFF349
:10016000008008BD0000000004000020340A0008E0
:1001700080B485B000AF78607B680C4A934202D1AE
:100180000023FB600CE07B68094A934202D1012303
:10019000FB6005E07B68074A934201D10223FB60C4
:1001A000FB6818461437BD4680BC70470008014004
:1001B000000C01400010014080B582B000AF7860B3
:1001C000786800F005F800BF0837BD4680BD000024
:1001D00080B588B000AF78607B681B79FB60012335
:1001E0003B617B681B6807F10C021146184600F062
:1001F0007FFA7B681B799B08FB777B681B7903F090
:100200000303DBB29B00BB777B681B681846FFF7D4
:10021000AFFFB8617F4AFB7F023352F82320BB7FD8
:100220000F2101FA03F3DB4318467A49FB7F0240B2
:10023000023341F82320774AFB7F023352F8231020
:10024000BB7FBA699A407348FB7F0A43023340F888
:1002500023207B681B7A012B22D16F4BDB687A68E5
:100260001279114601228A40D24311466A4A0B4054
:10027000D360694BDB687A681279114601228A40A3
:100280001146654A0B43D360634B9B687A681279C9
:10029000114601228A40D24311465F4A0B409360C7
:1002A0007B681B7A002B23D15B4B9B687A681279A1
:1002B000114601228A40D2431146574A0B409360AF
:1002C000554B9B687A681279114601228A40114683
:1002D000514A0B439360504BDB687A6812791146A0
:1002E00001228A40D24311464B4A0B40D36031E091
:1002F0007B681B7A022B2DD1474BDB687A68127919
:10030000114601228A40D2431146434A0B40D36032
:10031000414BDB687A681279114601228A40114606
:100320003D4A0B43D3603C4B9B687A681279114677
:1003300001228A40D2431146374A0B409360364B24
:100340009B687A681279114601228A401146324A26
:100350000B439360304B1B687A6812791146012277
:100360008A40D24311462C4A0B4013602A4B1B682B
:100370007A681279114601228A401146264A0B43B7
:1003800013607B685B791F2B17D8244B1B687A6836
:100390005279114601228A40D24311461F4A0B402E
:1003A00013601E4B1B687A685279114601228A40FD
:1003B00011461A4A0B43136020E07B685B791F2BC0
:1003C0001CD97B685B793F2B18D8144B5B687A6823
:1003D0005279203A012101FA02F2D24311460F4A22
:1003E0000B4053600D4B5B687A685279203A0121CB
:1003F00001FA02F21146094A0B4353607B681B79EC
:1004000019467B68DB68064A42F8213000BF203776
:10041000BD4680BD000001400004014000E100E055
:100420002400002080B500AF054B5B69044A43F00F
:1004300001035361034B1B68984700BF80BD00BF99
:10044000000401402400002080B500AF054B5B692B
:10045000044A43F002035361034B5B68984700BFB3
:1004600080BD00BF000401402400002080B500AF23
:10047000054B5B69044A43F004035361034B9B68DB
:10048000984700BF80BD00BF000401402400002049
:1004900080B500AF054B5B69044A43F00803536124
:1004A000034BDB68984700BF80BD00BF00040140DC
:1004B0002400002080B500AF054B5B69044A43F07F
:1004C00010035361034B1B69984700BF80BD00BFF9
:1004D000000401402400002080B500AF264B5B697A
:1004E00003F02003002B08D0234B5B69224A43F022
:1004F00020035361214B5B6998471F4B5B6903F0F5
:100500004003002B08D01C4B5B691B4A43F040039F
:1005100053611A4B9B699847174B5B6903F0800343
:10052000002B08D0144B5B69134A43F080035361DE
:10053000124BDB699847104B5B6903F48073002B07
:1005400008D00D4B5B690C4A43F4807353610B4B2D
:100550001B6A9847084B5B6903F40073002B08D0B3
:10056000054B5B69044A43F400735361034B5B6AB8
:10057000984700BF80BD00BF000401402400002058
:1005800080B500AF304B5B6903F48063002B09D06A
:100590002D4B5B692C4A43F4806353612B4B9B6A60
:1005A00098474EE0284B5B6903F40063002B09D0A9
:1005B000254B5B69244A43F400635361234BDB6A98
:1005C00098473EE0204B5B6903F48053002B09D031
:1005D0001D4B5B691C4A43F4805353611B4B1B6BDF
:1005E00098472EE0184B5B6903F40053002B09D0A9
:1005F000154B5B69144A43F400535361134B5B6B17
:1006000098471EE0104B5B6903F48043002B09D030
:100610000D4B5B690C4A43F4804353610B4B9B6B5E
:1006200098470EE0084B5B6903F40043002B08D0A9
:10063000054B5B69044A43F400435361034BDB6B96
:10064000984700BF80BD00BF000401402400002087
:1006500080B483B000AF78607B680F2B42D801A2D2
:1006600052F823F0A5060008A9060008AD06000808
:10067000B1060008B5060008B9060008BD06000866
:10068000C1060008C5060008C9060008CD06000816
:10069000D1060008D5060008D9060008DD060008C6
:1006A000E106000800231EE004231CE008231AE0F2
:1006B0000C2318E0102316E0142314E0182312E092
:1006C0001C2310E000230EE004230CE008230AE0C2
:1006D0000C2308E0102306E0142304E0182302E0B2
:1006E0001C2300E0002318460C37BD4680BC704731
:1006F00080B584B000AF786039600023BB60002310
:10070000FB603B681B68072B01D87B6801E07B68B6
:100710000433BB603B681B681846FFF799FF02462D
:100720000F239340DA43BB681B681A40BB681A600A
:100730003B685B68062B0BD03B685B68072B07D0D8
:100740003B685B68052B03D03B685B68042B0AD1D0
:100750003B685B68043B9A003B689B68134303F06B
:100760000F03FB6031E03B685B68002B03D03B6804
:100770005B68012B06D13B685B689B0003F00F03AD
:10078000FB6022E03B685B68082B02D10423FB601E
:100790001BE00823FB603B685B68022B0AD17B6887
:1007A000DB683A681268012101FA02F21A437B6899
:1007B000DA600AE07B68DB683A681268012101FAB6
:1007C00002F2D2431A407B68DA603B681B68184625
:1007D000FFF73EFF0246FB6803FA02F2BB681B68A4
:1007E0001A43BB681A6000BF1037BD4680BD80B495
:1007F00000AF00BFBD4680BC704780B400AF00BFF3
:10080000BD4680BC704780B400AF00BFBD4680BC11
:10081000704780B400AF00BFBD4680BC7047000089
:1008200080B582B000AF0E4B9B6803F00103DAB2D3
:100830003B7962F300033B71094B9B685B0803F053
:100840000103DAB23B7962F341033B71054B1B684C
:100850005B693A1D1046984700BF0837BD4680BD0A
:10086000003001406000002080B582B000AF0E4B28
:100870009B6803F00103DAB23B7962F300033B713A
:10088000094B9B685B0803F00103DAB23B7962F322
:1008900041033B71054B1B685B693A1D1046984745
:1008A00000BF0837BD4680BD003800406000002012
:1008B00080B582B000AF00233B71144B1B685B090D
:1008C00003F00103DAB23B7962F300033B710F4B93
:1008D0001B689B0903F00103DAB23B7962F3410321
:1008E0003B710A4B1B68DB0903F00103DAB23B7969
:1008F00062F382033B71064B1B685B693A1D10462D
:10090000984700BF0837BD4680BD00BF0038014092
:100910001C00002080B400AF034B01221A6000BF0E
:10092000BD4680BC704700BF2000002080B584B069
:1009300000AF154B9B69144A43F004039361124BBB
:100940009B69114A43F0080393610F4B9B690E4A60
:1009500043F0010393610D4A3B4692E8030083E8AC
:10096000030001233B720A4BFB603B461846FFF72E
:1009700023FC084B01221A60064B1B68002BFBD09E
:10098000044B00221A60F7E7001002404C0A0008EE
:1009900015090008200000200D488546AFF30080AF
:1009A0000C480D490D4A002302E0D458C4500433CA
:1009B000C4188C42F9D30A4A0A4C002301E01360A0
:1009C0000432A242FBD300F011F8FFF7AFFFFEE7BD
:1009D0000028002000000020000000205C0A000821
:1009E0000000002064000020FEE7000070B5002534
:1009F0000C4E0D4CA41BA410A54209D100F01AF80E
:100A000000250A4E0A4CA41BA410A54205D170BDB6
:100A100056F8253098470135EEE756F825309847C7
:100A20000135F2E7540A0008540A0008540A000885
:100A3000580A0008F8B500BFF8BC08BC9E467047CD
:0C0A4000F8B500BFF8BC08BC9E4670472B
:080A4C00000C01400917000035
:040A54005501000840
:040A58003101000860
:04000005080009994D
:00000001FF
