:100000000C942A000C948A000C94B0000C94D60036
:100010000C9415010C9415010C9415010C94150108
:100020000C9415010C9415010C9415010C941501F8
:100030000C9415010C9415010C9415010C941501E8
:100040000C9415010C9415010C9415010C941501D8
:100050000C94150111241FBECFE5D8E0DEBFCDBF43
:0C0060000E94FC000C940A01F894FFCFF1
:10006C0081B392B3A3B3B4B3806281BB92BBA3BB85
:10007C00B4BB81B392B3A3B3B4B3806481BB92BB62
:10008C00A3BBB4BB81B392B3A3B3B4B3806881BB3D
:10009C0092BBA3BBB4BB82B393B3A4B3B5B380641C
:1000AC0082BB93BBA4BBB5BB82B393B3A4B3B5B3B0
:0C00BC00806882BB93BBA4BBB5BB089559
:1000C8008BB79CB7ADB7BEB7806E8BBF9CBFADBFBB
:1000D800BEBF85B796B7A7B7B8B78C6085BF96BFC0
:1000E800A7BFB8BF85B796B7A7B7B8B7816085BFB0
:1000F80096BFA7BFB8BF84B795B7A6B7B7B78F7B6A
:0C01080084BF95BFA6BFB7BF78940895D0
:100114001F920F920FB60F9211242F938F939F93D8
:10012400AF93BF9382B393B3A4B3B5B3806282BBDE
:1001340093BBA4BBB5BB2FE38DE093E0215080407B
:100144009040E1F700C00000BF91AF919F918F9163
:0C0154002F910F900FBE0F901F90189578
:100160001F920F920FB60F9211242F938F939F938C
:10017000AF93BF9382B393B3A4B3B5B3806482BB90
:1001800093BBA4BBB5BB2FE38DE093E0215080402F
:100190009040E1F700C00000BF91AF919F918F9117
:0C01A0002F910F900FBE0F901F9018952C
:1001AC001F920F920FB60F9211242F938F939F9340
:1001BC00AF93BF9382B393B3A4B3B5B3806882BB40
:1001CC0093BBA4BBB5BB2FE38DE093E021508040E3
:1001DC009040E1F700C00000BF91AF919F918F91CB
:0C01EC002F910F900FBE0F901F901895E0
:1001F8000E9436000E94640082B393B3A4B3B5B3DF
:0C0208008F7182BB93BBA4BBB5BBF6CFCB
:10021400EC010E941A010E941901CE010E941B01E7
:06022400CE010E9417014B
:04022A000C94000030
:04022E000E943400F6
:0202320008952D
:0202340008952B
:02023600089529
:00000001FF
