:100000000C9436000C946C150C946C150C946C15B7
:100010000C946C150C946C150C946C150C946C155C
:100020000C946C150C946C150C946C150C946C154C
:100030000C946C150C94820F0C94BB110C946C15E1
:100040000C946C150C946C150C946C150C946C152C
:100050000C946C15006000808000800089002AE606
:100060000089008B80008B008D002AEF11241FBEB9
:10007000CFE5D8E0DEBFCDBFE4E5F0E040E017C05B
:10008000B591A59135912591059107FD0CC09591EC
:100090008591EF01F92FE82F05900D92A217B30774
:1000A000D9F7FE0104C01D92A217B307E1F7EC36A1
:1000B000F40731F70E941C130C94D214F894FFCF6C
:1000C00068076C094C836A9074A07AC000806888C5
:0600D00000846C82008137
:1000D600494E4600696E66004E414E006E616E00E6
:0800E600257500252E3366008C
:0700EE00286E756C6C2900FF
:0600F500286E696C290071
:1000FC00A3EAB0E0E4E8F0E00C9458134C01590189
:10010C00C756DF4F488359836A83C959D040212C85
:10011C00312C6E012BE8C20ED11C85E2782E260103
:10012C0030E8632ECE018D569F4FC456DF4F998316
:10013C008883CC59D0409C0140E8CF55DF4F2883B1
:10014C0039834A83C15AD040C756DF4F4881C959B9
:10015C00D040C656DF4F5881CA59D040C556DF4FE4
:10016C006881CB59D040FA01849167FD8081882346
:10017C0009F4C9C3CF57DF4F19821882C158D04038
:10018C008FEF9FEFCD57DF4F99838883C358D040B3
:10019C00CB57DF4F19821882C558D040A1E0B0E090
:1001AC00AC0FBD1FC957DF4FB983A883C758D040C8
:1001BC00E0E8F0E0C757DF4FF983E883C958D04037
:1001CC00CA01A62FE12CF12CFC012491A7FD208162
:1001DC0021111BC0E114F10401F19701C4010E942B
:1001EC00F411C756DF4F88819981AA81C959D04033
:1001FC008E0D9F1DA11DF7FCAA95C756DF4F888356
:10020C009983AA83C959D04008C00196A11D2532F3
:10021C0009F3FFEFEF1AFF0AD7CFC756DF4F8881DC
:10022C009981AA81C959D040FC012491A7FD208154
:10023C00253209F056C39C014A2F2F5F3F4F4F4F79
:10024C00C256DF4F288339834A83CE59D040C756D4
:10025C00DF4F288339834A83C959D040C756DF4FB3
:10026C0088819981AA81C959D040FC012491A7FDAC
:10027C0020812B3241F4CF57DF4F28813981C1586F
:10028C00D04024600BC02C32CCF02D3259F5CF5716
:10029C00DF4F28813981C158D0402160CF57DF4FC3
:1002AC0039832883C158D0400196A11DC756DF4F12
:1002BC0088839983AA83C959D040D0CF203241F486
:1002CC00CF57DF4F28813981C158D0402860E6CF05
:1002DC00233291F4CF57DF4F28813981C158D04058
:1002EC002061DCCF203341F4CF57DF4F2881398197
:1002FC00C158D0402260D2CF2A3299F50196A11D67
:10030C00C756DF4F88839983AA83C959D040D5013A
:10031C00ED91FC911197CF0102968D939C93808166
:10032C009181CB57DF4F99838883C558D04097FF75
:10033C003EC0CF57DF4F28813981C158D040B1E042
:10034C002B27CF57DF4F39832883C158D040919545
:10035C0081959109CB57DF4F99838883C558D0403D
:10036C0026C0BC018A2F0E947311CB57DF4F998393
:10037C008883C558D040C756DF4F288139814A81C0
:10038C00C959D040F901849147FD8081082E000C99
:10039C00990BC0970A9758F42F5F3F4F4F4FC75692
:1003AC00DF4F288339834A83C959D040E4CFCF57D4
:1003BC00DF4F88819981C158D04080FF07C08D7F65
:1003CC00CF57DF4F99838883C158D040C756DF4F32
:1003DC0088819981AA81C959D040FC012491A7FD3B
:1003EC0020812E3209F058C0CD57DF4F1982188268
:1003FC00C358D0409C014A2F2F5F3F4F4F4FC756D9
:10040C00DF4F288339834A83C959D040F90154916D
:10041C0047FD50815A32D1F40296A11DC756DF4FC9
:10042C0088839983AA83C959D040D501ED91FC9159
:10043C001197CF0102968D939C9380819181CD571A
:10044C00DF4F99838883C358D04026C0842FB901CD
:10045C000E947311CD57DF4F99838883C358D040C6
:10046C00C756DF4F288139814A81C959D040F901DB
:10047C00849147FD8081082E000C990BC0970A9738
:10048C0058F42F5F3F4F4F4FC756DF4F28833983A8
:10049C004A83C959D040E4CFCE0187569F4F0E9462
:1004AC00DB10182FC756DF4F2881C959D040C656CC
:1004BC00DF4F8881CA59D040C556DF4F9881CB5940
:1004CC00D040E22FF82F849197FD8081082E000CEC
:1004DC00990B0E94F8148936910509F45AC0B4F4AA
:1004EC008336910509F466C144F48532910509F40B
:1004FC00A1C18136910529F1B3C18436910509F466
:10050C0048C0883691050CF42DC1AAC180379105DD
:10051C0009F4CBC04CF48E36910509F419C18F3611
:10052C00910509F47CC09CC18537910509F454C030
:10053C008837910509F496C08337910509F090C16D
:10054C0058C1612F70E0A501C6010E94FC12892BD5
:10055C0009F4B7C1C756DF4F88819981AA81C9595F
:10056C00D0409C014A2F2F5F3F4F4F4FC756DF4F54
:10057C00288339834A83C959D040FC012491A7FDB3
:10058C002081A601BE016F577F4FC4010E946615E2
:10059C0095C1612F70E0950141E050E0C6010E94C9
:1005AC00EB09892B09F48DC1C756DF4F88819981DE
:1005BC00AA81C959D0400196A11DC756DF4F888327
:1005CC009983AA83C959D040A601BE016F577F4FAA
:1005DC00C4010E942C0972C1612F70E0950140E0AA
:1005EC0050E0C6010E94EB09892B09F46AC1C75679
:1005FC00DF4F88819981AA81C959D0400196A11DEC
:10060C00C756DF4F88839983AA83C959D040A60166
:10061C00BE016F577F4FC4010E94E00F4FC1612F85
:10062C0070E0950140E050E0C6010E94EB09892B77
:10063C0009F447C1C756DF4F88819981AA81C959EE
:10064C00D0400196A11DC756DF4F88839983AA839A
:10065C00C959D040A601BE016F577F4FC4010E94FB
:10066C00E20D2CC1612F70E0950140E050E0C60115
:10067C000E94EB09892B09F424C1C756DF4F8881EE
:10068C009981AA81C959D0409C014A2F2F5F3F4FB5
:10069C004F4FC756DF4F288339834A83C959D040FF
:1006AC00FC012491A7FD20814BC0950140E050E056
:1006BC0060EF70E0C6010E94EB09892B09F401C1BF
:1006CC00C756DF4F88819981AA81C959D0400196BC
:1006DC00A11DC756DF4F88839983AA83C959D0407F
:1006EC0086E025EF30E040E0F901DE01AD56BF4F6A
:1006FC00742F0E948914D6012C9111963C9111975C
:10070C0012964C91129713965C91139714966C91C8
:10071C00149715967C91159716968C91169717969B
:10072C009C91A0E00E94BA1451F400E010E0CF5567
:10073C00DF4F288139814A81C15AD040B9C028E79E
:10074C00A601BE016F577F4FC4010E94EC07B6C0D3
:10075C00612F70E09501A1014E0D5F1DC6010E9435
:10076C00760DAFC0612F70E0A501C6010E94FC128E
:10077C00892B09F4A6C0C756DF4F88819981AA81BD
:10078C00C959D0409C014A2F2F5F3F4F4F4FC7563E
:10079C00DF4F288339834A83C959D040FC01249107
:1007AC00A7FD2081A601BE016F577F4FC4010E9497
:1007BC008F0484C0103809F084C0C756DF4F88817D
:1007CC009981AA81C959D0400196A11DC756DF4F06
:1007DC0088839983AA83C959D040D501ED91FC91A6
:1007EC001197CF0102968D939C938081F6018083A3
:1007FC005BC0103809F065C0C756DF4F88819981FE
:10080C00AA81C959D0400196A11DC756DF4F8883D4
:10081C009983AA83C959D040D501ED91FC911197C8
:10082C00CF0103968D939C9320813181428100E00E
:10083C0010E03EC0103809F044C0C756DF4F888125
:10084C009981AA81C959D0400196A11DC756DF4F85
:10085C0088839983AA83C959D040F601708224C039
:10086C00D6017C92C256DF4F288139814A81CE59FC
:10087C00D040C756DF4F288339834A83C959D040AB
:10088C00CF57DF4F19821882C158D040CB57DF4F5A
:10089C0019821882C558D0408FEF9FEFCD57DF4F8C
:1008AC0099838883C358D04001E010E0462D920113
:1008BC00BE016F577F4FC4010E941D0F8E0D9F1DEF
:1008CC0011C0C756DF4F88819981AA81C959D04080
:1008DC000196A11DC756DF4F88839983AA83C959F6
:1008EC00D040C7017101E80EF91EE214F3044CF478
:1008FC008FE490E090937F0080937E008FEF9FEFCA
:10090C0003C0170121CCC101CD55DF4FE2E10C949E
:02091C00741352
:10091E00A6E2B0E0E5E9F4E00C9458139F8F8E8FB9
:10092E00798F688F122FFB010190F081E02DFA87ED
:10093E00E987FB01C280D380248135813C8B2B8BD0
:10094E008085918599A388A30680F781E02DFA838F
:10095E00E983FA0180809180A280B38020E030E0AC
:10096E00A901C501B4010E94451587FF06C0B7FA5B
:10097E00B094B7F8B0948DE204C0F985F2FF0CC3C1
:10098E008BE2E981FA8180832B893C8921503109E0
:10099E0038872F8341E050E05A8B498B06C08B89F4
:1009AE009C8998878F831A8A198AD501C401BF77CB
:1009BE000097E0E8AE07EFE7BE07D9F4212F110F3D
:1009CE00330B2154310989819A8149895A89840FBF
:1009DE00951F2A31310520F446ED50E060E003C04A
:1009EE004AED50E060E00E946D146AED70E080E028
:1009FE001EC00197A048BF4730F1212F110F330BB6
:100A0E002154310989819A8149895A89840F951F08
:100A1E002A31310520F44EED50E060E003C042EE85
:100A2E0050E060E00E946D1462EE70E080E00E9483
:100A3E00D713E981FA81AF0160E8E984FA840B8962
:100A4E001C899C01A1C220E030E0A901C501B401BE
:100A5E000E9445151B821C82882309F467C0F0E8AA
:100A6E00FD832FE32E83212C312C20E030E040E259
:100A7E0051E46B817C818D819E810E945F15F62EE3
:100A8E00072F8D879B87A50194010E944A15181682
:100A9E0054F03FEF231A330AFB820C834D854D83AE
:100AAE005B855E83E2CF1C861B862B813C814D814C
:100ABE005E81C501B4010E94451587FF3DC084EDDE
:100ACE0028168EEF380604F5EB85FC85EF2BE1F446
:100ADE0020E030E040E85AE5C501B4010E945F1500
:100AEE004B015C0120E030E040E85AE56B817C81EF
:100AFE008D819E810E945F156B837C838D839E8387
:100B0E0021E030E03C872B8720E030E040E251E4EA
:100B1E006B817C818D819E810E945B156B837C83B2
:100B2E008D839E8331E0231A3108BFCF40E84D8379
:100B3E005FE35E83212C312C812F110F990B9BA328
:100B4E008AA30E94F8148B8FD7FC03C0DEA2CDA21D
:100B5E0004C0E6E0F0E0FEA3EDA3FB8DF73641F412
:100B6E00CD2809F01EC221E030E03EA32DA319C20C
:100B7E008B8D8D8B04C037FE25C296E69D8BEDA125
:100B8E00FEA13196FEA3EDA3FD89F63699F437FE4C
:100B9E0008C01B821C8220E82D833FE33E83212C5C
:100BAE00312C4B8D473631F08DA19EA1820D931DB8
:100BBE009EA38DA39B819B87EC81ED87FD81FE8B90
:100BCE002E812A8F750164011D8E1C8E8C8D9D8D3C
:100BDE00EDA1FEA18E179F07C1F12B853D854E8994
:100BEE005A8DC701B6010E945B150E94E70B2B01BF
:100BFE003C010E9423156CA38701760117FB10950B
:100C0E0017F910952B853D854E895A8DC301B2017A
:100C1E000E94490B6B017C01F7FAF094F7F8F094FF
:100C2E0020E030E040E251E46B857D858E899A8D1F
:100C3E000E945B156B877D878E8B9A8F4C8D5D8D99
:100C4E004F5F5F4F5D8F4C8FC1CF20E030E040EAA9
:100C5E0050E46B857D858E899A8D0E945F152B01E0
:100C6E003C019B01AC01C701B6010E94451587FDF1
:100C7E000BC0A3019201C701B6010E944515811157
:100C8E0006C0FCA1F0FD03C0412C512C3201A30182
:100C9E009201C501B4010E941D154B015C012D8905
:100CAE00253611F0310102C0612C712C23014DA1AA
:100CBE005EA1441A550AC988DA8800E010E01C8645
:100CCE001B8689859A85807199279F8B8E8B6414DC
:100CDE00750431F48B859C85892B09F49AC0A6C0C6
:100CEE00DD8ECC8EE88DF98D808591850597C816A1
:100CFE00D90680F72B813C814D815E81C501B401FF
:100D0E000E945B150E94E70B6D877E878F87988BFD
:100D1E000E942315CB01EE89FF89EF2B69F4892BF5
:100D2E0059F4FB8DF73641F477FE06C098012F5F1C
:100D3E003F4F3D8F2C8F43C04B855C85452BB1F4C7
:100D4E0077FE14C05FEFC51AD50AE981FA818C8D42
:100D5E009D8DE80FF91F9EE29083EF81F885319704
:100D6E00F887EF8321E030E03C872B87E981FA8119
:100D7E00EC0DFD1D1D8F0C8F8C8D9D8D892B49F0DB
:100D8E0030E331934C8D5D8D415051095D8F4C8F09
:100D9E00F3CFC8018C0D9D1D2F813885201B310B83
:100DAE006C01EFEFCE1ADE0AE981FA81E80FF91F26
:100DBE00605D6083A9014150510958874F838501B9
:100DCE00740117FB109517F910952B813C814D81FD
:100DDE005E816D857E858F8598890E94490B4B01BA
:100DEE005C01B7FAB094B7F8B09420E030E040E27E
:100DFE0051E46B817C818D819E810E945B156B839A
:100E0E007C838D839E8351E0651A71080C8D1D8D38
:100E1E005ECFF985F4FF0AC0E981FA81EC0DFD1D64
:100E2E008EE2808396012F5F3F4F690149815A817F
:100E3E004C0D5D1D5C874B87FA011082FD89F536DE
:100E4E0009F061C0E981FA8128A139A1E20FF31FEF
:100E5E003197108237FE06C031942194310801E09B
:100E6E0010E002C000E010E0E8A1F9A1319749813D
:100E7E005A81E40FF51F22E030E08AE0E82EF12CD3
:100E8E00CF0149815A81841B950B2114310479F0CD
:100E9E00C101B7010E940114805D82931B01215094
:100EAE0031098F819885019798878F83E9CF121624
:100EBE00130674F3FC013197E40FF51F012B11F4A7
:100ECE002BE201C02DE220830297E981FA81E80F1F
:100EDE00F91F2AA13BA1215431092A31310510F005
:100EEE0025E601C025E420832F8138852250310963
:100EFE0038872F83C816D90634F4AF0160E88B8586
:100F0E009C850E946D1449815A813A0180E8882E91
:100F1E00998591FF2EC090FD2CC0EF81F8851E168D
:100F2E001F063CF5882DB3010E94D71329813A8103
:100F3E00820F931F9C0149815A81241B350BE9892D
:100F4E00FA892E173F074CF0FC012081EF81F885BE
:100F5E00E80FF91F20830197EDCF4F81588560E38D
:100F6E0070E089819A818E0F9F1F0E94E6141C8A61
:100F7E001B8A882DB3010E94D713E984FA840B894A
:100F8E001C899C01682DA3018E8D9F8D0E94800C63
:100F9E00A696E2E10C947413598553FF00CD80E2BE
:100FAE00F0CC2CEF22162FEF32064CF04DA15EA1A5
:100FBE00241635060CF4DFCD55E65D8BFBCD35E6FC
:0A0FCE003D8BF8CD46E64D8BF5CDC6
:100FD800A4E1B0E0E2EFF7E00C94581398878F8310
:100FE8007A8369835C8B4B8B122FDB011296ED9110
:100FF800FC91139714962D913C9115973E832D8360
:10100800ED90FC90119716962D903C901797F7FD50
:1010180003C0E894E1F802C0E1E0F0E0C7018071A4
:1010280099279A878987E4FE1FC0AB89BC892C91D0
:1010380011963C91119712964C91129713965C91C8
:10104800139714966C91149715967C91159716968C
:101058008C91169717969C91A0E00E94BA1421F0E3
:101068008D819E81029702C08D819E819701287093
:1010780033273C872B87E3FC0197AB89BC894C90CD
:1010880011965C90119712966C90129713967C901B
:10109800139714968C90149715969C9015971696FE
:1010A800AC9016971796BC90A981BA811896CD90E6
:1010B800DC901997B1E0CB1AD108D101AC0DBD1D58
:1010C8001C929C838B839F01281B390B3E872D879D
:1010D800C70182709927988B8F87812F012E000C6A
:1010E800990BDC01A154B109BA8BA98B32E0C31664
:1010F800D10434F489859A85892B09F04CC073C0D2
:101108009201A301B401C501A0E00E94BA1481F1C3
:10111800B1E0CB1AD108C2018F7099278A309105A6
:1011280014F4C09602C0895A9F4FE989FA897A97C0
:1011380048F49C012062215631092A31310510F406
:101148000E94EF14F101EC0DFD1D80832B813C8181
:10115800215031093C832B839201A301B401C501BD
:1011680004E00E943C1329013A014B015C01BECF07
:101178008D859E85AB81BC818A0F9B1F1816190629
:101188003CF21A161B060CF0B5CFEF85F889EF2B49
:1011980009F0BECFAFCFAB89BC892C9111963C9199
:1011A800119712964C91129713965C911397149677
:1011B8006C91149715967C91159716968C911697A5
:1011C80017969C91A0E00E94BA1469F0F101EC0D09
:1011D800FD1D31971083B2E0CB1AD108F101EC0D57
:1011E800FD1D80E38083EB85FC85EF2B41F0F1E06A
:1011F800CF1AD108F101EC0DFD1D80E28083A98191
:10120800BA8118962D913C911997215031092C19C2
:101218003D09C20CD31CA60160E80D811E818F8197
:1012280098850E94800C9C01EF81F88580819181CE
:1012380090FF09C0A981BA8112968D919C9113974C
:10124800821793070CF4C9016496E2E10C947413B5
:10125800ADE0B0E0E2E3F9E00C9458139A8789878F
:101268007C836B83FA01DB011296CD90DC90139797
:1012780014968D919C9115979E838D83ED90FC908B
:101288001197FA82E98216960D90BC91A02DB88725
:10129800AF8320803180428053806480758086804F
:1012A80097808101B42DF52DE62D7B868C869D8651
:1012B8009101A201B301C401A0E00E94BA144CF448
:1012C8000E945D148901B42FF52FE62F7B878C8748
:1012D8009D87D7FC04C0E894E1F8FA82E98291017D
:1012E800A201B301C401A0E0ED80FE800E94BA14FF
:1012F8001CF0898182FF04C081E0E81AF10805C06A
:1013080083FF03C091E0E91AF108CE0101965C0160
:101318008AE0C82ED12C2B2F3F2F4E2F5B856C8552
:101328007D858B819C810E94A40AFC019101A20108
:10133800B301C401A0E00E94BA141CF0898182FFA5
:1013480012C031970F8118850E0F1F1F9101A2013E
:10135800B301C401A0E00E94BA1414F08BE201C0EA
:101368008DE2D80108C083FF07C03197AF81B885E7
:10137800AE0FBF1F80E28C93E980FA80AB81BC81FD
:1013880018962D913C911997215031092E1B3F0B2E
:101398008F819885E80FF91FAF0160E80D811E81E4
:1013A80089859A850E94800C9C01A985BA858D91B2
:1013B8009C9190FF07C0EB81FC8182819381821709
:0E13C80093070CF4C9012D96E2E10C94741306
:1013D6000F931F93CF93DF93FC01D90168387105F2
:1013E60031F194F461387105B1F12CF4603871056E
:1013F60009F478C09FC06238710509F459C0643891
:10140600710509F46FC096C0603A710509F448C0C9
:101416002CF46039710509F44BC08CC0603C710531
:1014260009F476C0603F710509F472C083C0CD919E
:10143600DC911197CE0102968D939C93452B39F042
:101446009881892F880F880B908381835BC0888160
:101456008083118268C0CD91DC911197CE010496EC
:101466008D939C93452B99F088819981AA81BB81A4
:10147600AC01BD01770F440B542FBA0180839183D1
:10148600A283B383448345834683478328C0088168
:1014960019812A813B81008311832283338345C0CE
:1014A600CD91DC911197CE0102968D939C9323C02A
:1014B600CD91DC911197CE0108968D939C937881FE
:1014C60069815A814B813C812D819E818F817083F8
:1014D600618352834383348325839683878381E0A4
:1014E60090E02AC0CD91DC911197CE0102968D93A2
:1014F6009C93452BA1F099812881892F880F880B11
:101506002083918382838383848385838683E6CF46
:10151600CD91DC911197CE0102968D939C93088113
:101526001981008311831282138214821582168216
:101536001782D5CF80E090E0DF91CF911F910F9178
:02154600089506
:10154800A2E1B0E0EAEAFAE00C945813FC010A8B35
:101558001B832C83732E642E552E462E7D83CC86BA
:10156800D886BF82AE82868197819B878A87D5017C
:101578004D915C91228133818085918501971C0171
:1015880037FF02C021E030E0EA85FB85E80FF91F4C
:1015980010824701E1E0F0E0FA83E983C9018E197E
:1015A8009F099E878D87DA01A270BB27B88BAF870A
:1015B800B885BB0FBB0BB98B1214130474F0A98147
:1015C800BA81AB2B09F05CC0AE81BF818D919C9133
:1015D80011978F7E8D939C9353C02A893B814C81B0
:1015E800572D662D752D842D9D81A0E00E94BA147B
:1015F800B1F1E1E02E1A3108FC85F987AF2EB884E5
:10160800C988DC2CEC2CFC2C0C2D1C2D2A893B8148
:101618004C81572D662D752D842D9D810E947B143C
:10162800C90129839A83EA85FB85E20DF31D805D54
:10163800808381E0881A91082A893B814C81572D43
:10164800662D752D842D9D810E947D142A8B3B83E8
:101658004C83752E662E572E482E9D83ADCF8D85D3
:101668009E85880D991D181619061CF21814190460
:101678000CF0A5CFEF85F889EF2B09F0BACF9FCFF3
:0A168800C1016296E2E10C947413B4
:10169200A5E1B0E0EFE4FBE00C94581347015801D8
:1016A2000E945F152B013C01A80197010E941D15A4
:1016B200162FC72ED82EF92E862F9C2DAD2DBF2D7D
:1016C20089839A83AB83BC83AA81FB81EC81ED8001
:1016D2003E802F8008850D8B5E2F5F71212F3A2F60
:1016E2004F2F60E070E080E090E021153105410568
:1016F20000E15007610571058105910509F05EC0A1
:101702005E2F6E2D732D822D9D8904E30E943C1362
:101712002D873E874F87588B698B7A8B8B8B9C8B5F
:101722008D859E8597708F3F974009F447C0A3012E
:101732009201612F7C2D8D2D9F2D0E941C159B01E6
:10174200AC01C501B4010E9445158823B9F149864F
:101752005A866B867C8629853A854B855C85C501D0
:10176200B4010E941D15B62E872E982EA92E262F63
:10177200372F482F592F612F7C2D8D2D9F2D0E94A1
:101782004515811118C02B2D8B2D982DA92DBA2D01
:1017920089839A83AB83BC833A814B815C816E2DB2
:1017A200732D822D9D89A1E00E94C614122FC32E93
:1017B200D42EF52E03C01B2D6401FA2C612F7C2D33
:0C17C2008D2D9F2D6596E2E10C947413B0
:1017CE004F925F926F927F928F929F92AF92BF9243
:1017DE00CF92DF92EF92FF92CF93DF93CDB7DEB72A
:1017EE0028970FB6F894DEBF0FBECDBF6B017C01FC
:1017FE00DC01CB0147E1B695A795979587954A955C
:10180E00D1F799278F579109873191059CF597FD4F
:10181E0036C088248A94982C3FE7A32EB12C04C09E
:10182E00B594A794979487948A95D2F7D501C4015D
:10183E008C219D21AE21BF21892B8A2B8B2BD1F0A0
:10184E0020E030E040E85BE7C701B6010E941D15BD
:10185E006D837E838F839887F7FE04C0C80CD91CD6
:10186E00EA1CFB1C80949094A094B094C820D920BC
:10187E00EA20FB205C2D4D2D3E2D2F2D21C020E08A
:10188E0030E040E85BE7C701B6010E941D15698391
:10189E007A838B839C83F7FE0FC0D701C601880F16
:1018AE00991FAA1FBB1F892B8A2B8B2B19F350E074
:1018BE0040E030E82FEB04C050E040E030E020E0A4
:1018CE00652F742F832F922F28960FB6F894DEBFB4
:1018DE000FBECDBFDF91CF91FF90EF90DF90CF90F5
:1018EE00BF90AF909F908F907F906F905F904F9032
:0218FE0008954B
:101900002F923F924F926F927F928F92AF92BF929F
:10191000CF92DF92EF92FF920F931F93CF93DF93BB
:10192000CDB7DEB766970FB6F894DEBF0FBECDBF5A
:101930005C013A01862E6901C701817099279C8B51
:101940008B8BE0FC1DC020173107D4F47801EC1814
:10195000FD08FE8AED8AA70191E1E916F10410F075
:1019600040E150E060E270E0CE0101969A8B898BF5
:101970000E94E61489899A891C0120E8422E0BC036
:101980009601682DA301C5010E94F411C016D1066D
:10199000ECF2C60125C090E1E916F10458F020E10F
:1019A00030E0642DA101C5010E94F41180E1E81A24
:1019B000F108F1CF2D893E892F70332789899A89C3
:1019C000AC0160E8C5010E94F4118B899C89892BC8
:1019D00031F49601682DA301C5010E94F411C801DC
:1019E00066960FB6F894DEBF0FBECDBFDF91CF91E4
:1019F0001F910F91FF90EF90DF90CF90BF90AF902D
:0E1A00008F907F906F904F903F902F900895A1
:101A0E0010C00E94311558F00E942A1540F029F49A
:101A1E005F3F29F00C943F1551110C9439150C941D
:101A2E0069150E94DA1268F39923B1F3552391F3E5
:101A3E00951B550BBB27AA2762177307840738F02F
:101A4E009F5F5F4F220F331F441FAA1FA9F335D08C
:101A5E000E2E3AF0E0E832D091505040E695001C40
:101A6E00CAF72BD0FE2F29D0660F771F881FBB1FFA
:101A7E00261737074807AB07B0E809F0BB0B802DD8
:101A8E00BF01FF2793585F4F3AF09E3F510578F004
:101A9E000C943F150C9439155F3FE4F3983ED4F344
:101AAE00869577956795B795F7959F5FC9F7880FD8
:101ABE00911D9695879597F90895E1E0660F771F2A
:101ACE00881FBB1F621773078407BA0720F0621BBB
:0E1ADE00730B840BBA0BEE1F88F7E09508958A
:101AEC00CF93DF93DC01F90164387105D9F164F40B
:101AFC006138710521F16238710509F440C0603814
:101B0C00710509F054C02EC060397105C1F184F41F
:101B1C006838710509F04BC0C081D181CE010296A5
:101B2C0091838083E881F981ED93FC9340833CC0E1
:101B3C00603A7105B9F0603C7105A1F038C0C08104
:101B4C00D181CE01029691838083E881F981ED9356
:101B5C00FC93052E000C660B770B4083518362833C
:101B6C00738322C0C081D181CE0102969183808380
:101B7C00E881F981ED93FC935183408315C0C081BA
:101B8C00D181CE01029691838083E881F981ED9316
:101B9C00FC9351834083852F880F880B828383832A
:101BAC00848385838683878381E090E002C080E014
:081BBC0090E0DF91CF91089544
:101BC400A2E0B0E0E8EEFDE00C9458131C014B01D8
:101BD400FA01DB0112962D913C91139714964D90C6
:101BE4005C9015978D919C9111979A838983169691
:101BF4006D907C90179737FD03C08D7F9A838983FE
:101C040000811181228133814481558166817781EC
:101C1400FE0131965F0188E0C82ED12C7201C40107
:101C24000E94A40A298124FF06C00197F301E80F4A
:101C3400F91F20E32083298123FF06C00197F301C4
:101C4400E80FF91F20E22083E980FA80D401189676
:101C54002D913C91199721503109281B390B860D80
:101C6400971DAC0160E88201C1010E94800C9C01B7
:101C7400F1018081918190FF08C0D40112968D9169
:101C84009C911397821793070CF4C9012296E2E101
:041C94000C94741325
:101C98000FC00E942A1538F00E94311520F09523B4
:101CA80011F00C943F150C94691511240C943915F6
:101CB8000E94DA1270F3959FC1F3950F50E0551FFB
:101CC800629FF001729FBB27F00DB11D639FAA2789
:101CD800F00DB11DAA1F649F6627B00DA11D661FD8
:101CE800829F2227B00DA11D621F739FB00DA11DF9
:101CF800621F839FA00D611D221F749F3327A00DB3
:101D0800611D231F849F600D211D822F762F6A2F4E
:101D180011249F5750409AF0F1F088234AF0EE0FB3
:101D2800FF1FBB1F661F771F881F91505040A9F7E0
:101D38009E3F510580F00C943F150C9439155F3F78
:101D4800E4F3983ED4F3869577956795B795F7951C
:101D5800E7959F5FC1F7FE2B880F911D9695879594
:041D680097F908954A
:101D6C0011C00E942A1538F00E94311520F039F468
:101D7C009F3F19F426F40C9469150EF4E095E7FBDB
:101D8C000C943F15E92F0E94DA1258F3BA17620728
:101D9C0073078407950720F079F4A6F50C94381591
:101DAC000EF4E0950B2EBA2FA02D0B01B90190016A
:101DBC000C01CA01A0011124FF27591B99F0593FAE
:101DCC0050F4503E68F11A16F040A22F232F342FF6
:101DDC004427585FF3CF469537952795A795F04044
:101DEC005395C9F77EF41F16BA0B620B730B840B59
:101DFC00BAF09150A1F0FF0FBB1F661F771F881F11
:101E0C00C2F70EC0BA0F621F731F841F48F4879568
:101E1C0077956795B795F7959E3F08F0B0CF93955A
:0E1E2C00880F08F09927EE0F97958795089577
:101E3A002F923F924F926F927F928F92AF92BF9260
:101E4A00CF92DF92EF92FF920F931F93CF93DF937C
:101E5A00CDB7DEB727970FB6F894DEBF0FBECDBF5A
:101E6A006C017B013901842E98018EEE282E80E0C8
:101E7A00382E80E0482E87E0F101AE014F5F5F4FB8
:101E8A00DA01742D0E948914F70102811381A4805A
:101E9A00B580E080F18061147104810419F43A017B
:101EAA00F0E88F2E2115310529F4882DB3010E94FF
:101EBA00D7139C0117FD04C00217130708F49801F1
:101ECA008501682DA301C6010E94800C27960FB6D2
:101EDA00F894DEBF0FBECDBFDF91CF911F910F9156
:101EEA00FF90EF90DF90CF90BF90AF908F907F9050
:0A1EFA006F904F903F902F900895D5
:101F04001F920F920FB60F9211242F933F934F936A
:101F14005F936F937F938F939F93AF93BF93CF936D
:101F2400DF93EF93FF93C0918900D0918A000E94C0
:101F34005715C05ADF4F88838091890090918A0099
:101F4400FC01E05AFF4F20812D3031F0019690932F
:101F54008A00809389001FC02D30E9F4FC01E05A07
:101F6400FF4F108260E082E00E94C013C0E0D0E026
:101F740007C0FE01E05AFF4F80810E94A2142196FF
:101F84008091890090918A00C817D90794F3109220
:101F94008A0010928900FF91EF91DF91CF91BF9158
:101FA400AF919F918F917F916F915F914F913F91ED
:0C1FB4002F910F900FBE0F901F901895FA
:101FC000A2E0B0E0E6EEFFE00C9458133C014B01B8
:101FD000FA01DB0112962D913C91139714964D90C6
:101FE0005C9015978D919C9111979A838983169691
:101FF0002D903C90179737FD03C08D7F9A8389837E
:1020000000811181228133814481558166817781EC
:10201000FE0131965F018AE0C82ED12C7201C40105
:102020000E94A40AE980FA80D40118962D913C916F
:10203000199721503109281B390B820D931DAC01D2
:1020400060E88201C3010E94800C9C01F301808141
:10205000918190FF08C0D40112968D919C911397A5
:10206000821793070CF4C9012296E2E10C947413D1
:102070006F927F928F92EF92FF920F931F93CF9365
:10208000DF93CDB7DEB761970FB6F894DEBF0FBE12
:10209000CDBFFE01319651E1DF011D925A95E9F75E
:1020A000A2E0B1E0BA83A9839C838B8377FF09C048
:1020B0008FE490E090937F0080937E008FEF9FEFFE
:1020C00019C03901842E7C01615071097F836E83B0
:1020D0009801682DA301CF010E94A8134885598556
:1020E0002E813F814217530708F49A01F701E20F4E
:1020F000F31F108261960FB6F894DEBF0FBECDBFFE
:10210000DF91CF911F910F91FF90EF908F907F9073
:042110006F9008952F
:1021140088249924F401E401B0E49F93AA279A1532
:102124008B049C04ED05FE05CF05D007A10798F4A8
:10213400AD2FDC2FCF2FFE2FE92D982C892E982F31
:10214400872F762F652F542F432F322F2227B850F5
:1021540031F7BF9127C01B2EBF91BB27220F331F1E
:10216400441F551F661F771F881F991F881C991CC1
:10217400EE1FFF1FCC1FDD1FAA1FBB1F8A149B0469
:10218400EC05FD05CE05DF05A007B10748F08A1868
:102194009B08EC09FD09CE09DF09A00BB10B2160F6
:1021A4001A94E1F62EF49401AF01BE01CD01000CA6
:0221B40008958C
:1021B600CF92DF92EF92DC0190E0292F30E0220FE0
:1021C600331F6901032E000CEE086E2DA601405444
:1021D6005F4F6F4F6A01E62EFA018491E7FC80811A
:1021E60081110DC02F5F3F4F032E000C440B20546E
:1021F6003F4F4F4FF901849147FD808124C0CD9018
:10220600DD90EC901297F6014491E7FC408184132F
:1022160015C02F5F3F4F032E000C440B20543F4F39
:102226004F4FF901949147FD90815FEFC51AD50A8A
:10223600E50ACD92DD92EC92129701C09F5F9B302A
:0E22460008F4BBCF892FEF90DF90CF90089562
:102254000F931F93CF93DF93DB012D913C91119743
:1022640030FF25C017964D915C91189715962D91C6
:102274003C9116974217530778F41296ED91FC910E
:102284001397808312962D913C9113972F5F3F4FA4
:1022940013963C932E93129717962D913C91189771
:1022A4002F5F3F4F18963C932E93179715C01D969A
:1022B400ED91FC911E97309719F48FEF9FEF0CC0AE
:1022C4008B01EC010995892BC1F7F8018781908571
:1022D400019690878783CE01DF91CF911F910F9153
:0222E40008955B
:1022E600CF939B01482FF901849147FD808180326D
:1022F600C9F1682F082E000C770B695071096530FB
:10230600710580F18B3249F5A0E0B0E02F5F3F4FB9
:102316004F4F02C0A0E0B0E080E090E0CAE0F901D3
:10232600649147FD6081062E000C770B605371099E
:102336006A30710560F4C89FF001C99FF00D112441
:102346002F5F3F4F4F4FCF01861B970BE8CFAB2B2D
:1023560069F491958195910909C08D32D9F6A1E06C
:10236600B0E0D4CF2F5F3F4F4F4FBDCFCF910895F1
:102376001F920F920FB60F9211242F933F934F93F4
:102386005F936F937F938F939F93AF93BF93EF93D7
:10239600FF93E0918B00F0918C00E058FF4F808115
:1023A600882361F00E94531580918B0090918C00D8
:1023B600019690938C0080938B0002C00E941515A5
:1023C600FF91EF91BF91AF919F918F917F916F9107
:1023D6005F914F913F912F910F900FBE0F901F90DD
:0223E600189548
:1023E8006F927F928F92CF92DF92EF920F931F930B
:1023F800CF93DF938C016A01E62EE9013A01862E1C
:10240800620E731E811C37FD8A94C614D704E80433
:1024180079F0F6018491E7FC8081B801082E000C60
:10242800990B0E942A118FEFC81AD80AE80AEDCF33
:10243800CE01DF91CF911F910F91EF90DF90CF9058
:082448008F907F906F900895C2
:10245000CF92DF92EF92CF93DF936B01E82EC0E033
:10246000D0E0C031D10519F480EC0E949614C0323E
:10247000D10539F40E944F1580E80E949614C0E0FF
:10248000D0E0F6018491E7FC80810E94A2148FEFD6
:10249000C81AD80AE80A2196F6018491E7FC8081DF
:1024A0008111DFCFDF91CF91EF90DF90CF90089532
:1024B0000F931F93CF93DF93CDB7DEB764970FB61B
:1024C000F894DEBF0FBECDBF9F938F9386EE90E052
:1024D000A0E0AF939F938F938E010F5F1F4F1F93C9
:1024E0000F930E942914B80180E80E9428120FB6A9
:1024F000F894DEBF0FBECDBF64960FB6F894DEBF72
:0E2500000FBECDBFDF91CF911F910F910895B7
:10250E000E94E21288F09F5798F0B92F9927B75181
:10251E00B0F0E1F0660F771F881F991F1AF0BA9579
:10252E00C9F714C0B13091F00E943815B1E008958A
:10253E000C943815672F782F8827B85F39F0B93F7C
:10254E00CCF3869577956795B395D9F73EF490952C
:0E255E008095709561957F4F8F4F9F4F089528
:10256C00990F0008550FAA0BE0E8FEEF1616170698
:10257C00E807F907C0F012161306E407F50798F000
:10258C00621B730B840B950B39F40A2661F0232B19
:10259C00242B252B21F408950A2609F4A140A69595
:0825AC008FEF811D811D0895D0
:1025B40057FD9058440F551F59F05F3F71F04795F0
:1025C400880F97FB991F61F09F3F79F087950895D5
:1025D400121613061406551FF2CF4695F1DF08C0F4
:1025E400161617061806991FF1CF86957105610511
:0425F40008940895AA
:1025F800FA0160387105CCF0623871051CF0633857
:10260800710599F4A081B1819D012C5F3F4F318301
:1026180020834D915D916D917C91FC0140835183A4
:102628006283738381E090E0089580E090E00895EC
:102638000E94ED130E94DD1480E890E00E940E15C0
:102648000E946315C0E0D0E060E081E00E94C01302
:10265800CE010E9458122FEF84E39CE02150804065
:0C2668009040E1F700C000002196EECF8A
:1026740097FB10F8169400080F93083098F0085050
:10268400232F342F452F562F672F782F892F902DE6
:10269400F4CF0594979587957795679557954795C2
:0C26A400379527950A95AAF70F91089525
:1026B0002F923F924F925F926F927F928F929F9252
:1026C000AF92BF92CF92DF92EF92FF920F931F9340
:1026D000CF93DF93CDB7DEB7CA1BDB0B0FB6F894F1
:0826E000DEBF0FBECDBF09945F
:1026E8002A88398848885F846E847D848C849B849A
:1026F800AA84B984C884DF80EE80FD800C811B81A8
:10270800AA81B981CE0FD11D0FB6F894DEBF0FBED6
:06271800CDBFED010895A4
:10271E001ABA88B3846088BB88B38D7F88BB0E9449
:10272E004D14CF9B08C08FEC97E00197F1F700C0D6
:10273E0000000E948F138FEF8ABB88B38B7F88BBFC
:02274E000895EC
:10275000A2E0B0E0EEEAF3E10C9466138C013A8358
:1027600029839E012F5F3F4F0E947E00F801208148
:1027700024FF02C08FEF9FEF2296E4E00C948213B7
:10278000CF93DF93C82FD62F813031F4603120F4FE
:1027900080E8860F0E949614C23031F4D03120F4C4
:0E27A00080EC8D0F0E949614DF91CF9108956A
:1027AE00CF92DF92EF926B01E82EA82FCB01FC01A6
:1027BE002491A7FD2081222319F00196A11DF7CFA8
:0C27CE008C199D09EF90DF90CF900895CA
:1027DA0087B38E6087BB8FEF8ABB0E944F1588E351
:1027EA000E94961486E00E94961480E80E9496142D
:0827FA008FE00E94961408957F
:1028020097FB072E16F4009407D077FD09D00E949B
:10281200151407FC05D03EF4909581959F4F0895BD
:08282200709561957F4F089548
:10282A00AA1BBB1B51E107C0AA1FBB1FA617B707EC
:10283A0010F0A61BB70B881F991F5A95A9F7809508
:08284A009095BC01CD01089539
:10285200A0E0B0E0EFE2F4E10C9468139E01265F81
:102862003F4F4F81588569858D819E810E94AE14AC
:06287200E2E00C94841367
:10287800092E0394000C11F4882352F0BB0F40F486
:10288800BF2B11F460FF04C06F5F7F4F8F4F9F4FC6
:022898000895A1
:10289A0088B3877F88BB2FE788E391E02150804087
:1028AA009040E1F700C0000088B3886088BB0895B3
:1028BA0060957095809590953095409550952195A5
:1028CA003F4F4F4F5F4F6F4F7F4F8F4F9F4F08952F
:1028DA009A01462FDC01F901549147FD50815D931D
:0C28EA002F5F3F4F4F4F5111F6CF089564
:1028F600689401C0E8948F929F92CF93DF930E94D1
:0C2906008A10DF91CF919F908F90089570
:10291200992777FD05C005900D920197E1F708957B
:0A29220001900D920197E1F708956E
:10292C00CF93C82F0E948F1388B38D7F88BBCBBBEE
:08293C000E944D14CF91089593
:10294400CF93C82F0E948F1388B3826088BBCBBB00
:082954000E944D14CF9108957B
:10295C000F931F9389019A01462F6FEF7FE70E9417
:08296C0038101F910F9108952E
:102974000024A7FD00942A17300540055005600582
:0829840070058005900508951F
:10298C000024A7FD00942A0F301D401D501D601D12
:08299C00701D801D901D0895BF
:1029A400EC010E9471150E947015CE010E947215EF
:0629B400CE010E946E1529
:1029BA0083E389B98AB188618AB980B5866880BD9E
:0229CA0008956E
:1029CC00FC01480F591FE417F50711F06193FBCF79
:0229DC0008955C
:1029DE009C01215631092A31310510F48F75992742
:0229EE0008954A
:1029F0009C01215431092A31310508F4806208957F
:0E2A00008FB780688FBF8AB180688AB9089549
:0E2A0E008FB780688FBF8AB180628AB9089541
:0E2A1C00FC0180810E9453150E940715089549
:0E2A2A008FB78F778FBF8AB18F7D8AB90895DD
:0E2A38005058BB27AA270E94B60E0C943C14DF
:0E2A46000E9487126894B1110C9439150895FE
:0E2A540000240A94161617061806090608959F
:0E2A620000240A9412161306140605060895A1
:0E2A7000E894BB2766277727CB0197F90895D6
:0C2A7E0097F99F6780E870E060E0089521
:0A2A8A000E94B61208F481E00895DE
:0A2A94000E94B61208F48FEF0895B7
:082A9E0081E00E9496140895E6
:082AA6005D9BFECF8CB9089581
:082AAE005F9BFECF8CB108957F
:082AB6000E94070D0C943C1472
:082ABE000E944C0E0C943C1424
:062AC6000E9400150895B6
:062ACC0080E090E0089597
:062AD2009FEF80EC089567
:042AD8000C9400005A
:042ADC000E945E00F6
:022AE000089557
:022AE200089555
:022AE400089553
:092AE600454E472E5445524100B3
:022AEF000100E4
:00000001FF
