:020000040800F2
:1000000000280020CD0600081D070008B9070008D9
:10001000BF070008C5070008CB0700080000000064
:10002000000000000000000000000000D1070008F0
:100030001D07000800000000C50A00082508000888
:100040001D0700081D0700081D0700081D07000800
:100050001D0700081D07000885010008A901000808
:10006000CD010008F1010008150200081D07000875
:100070001D0700081D0700081D0700081D070008D0
:100080001D0700081D0700081D0700081D070008C0
:100090001D0700081D0700081D0700083902000899
:1000A0001D0700081D0700081D0700081D070008A0
:1000B0001D0700081D0700081D070008BD030008F4
:1000C000B1030008D5030008C9030008E1030008D4
:1000D00029040008710400081D0700081D07000816
:1000E000E10200081D070008000000001D070008CD
:1000F0001D0700081D0700081D0700081D07000850
:100100001D0700081D0700081D0700081D0700083F
:100110001D0700081D0700081D0700081D0700082F
:100120001D0700081D0700081D0700081D0700081F
:1001300010B5054C237833B9044B13B10448AFF321
:1001400000800123237010BD00000020000000008B
:100150005011000808B5034B1BB103490348AFF326
:10016000008008BD000000000400002050110008BD
:1001700010F8012B11F8013B012A28BF9A42F7D051
:10018000D01A704780B500AF054B5B69044A43F055
:1001900001035361034B1B68984700BF80BD00BF3C
:1001A000000401402C00002080B500AF054B5B69C6
:1001B000044A43F002035361034B5B68984700BF56
:1001C00080BD00BF000401402C00002080B500AFBE
:1001D000054B5B69044A43F004035361034B9B687E
:1001E000984700BF80BD00BF000401402C000020E4
:1001F00080B500AF054B5B69044A43F008035361C7
:10020000034BDB68984700BF80BD00BF000401407E
:100210002C00002080B500AF054B5B69044A43F019
:1002200010035361034B1B69984700BF80BD00BF9B
:10023000000401402C00002080B500AF264B5B6914
:1002400003F02003002B08D0234B5B69224A43F0C4
:1002500020035361214B5B6998471F4B5B6903F097
:100260004003002B08D01C4B5B691B4A43F0400342
:1002700053611A4B9B699847174B5B6903F08003E6
:10028000002B08D0144B5B69134A43F08003536181
:10029000124BDB699847104B5B6903F48073002BAA
:1002A00008D00D4B5B690C4A43F4807353610B4BD0
:1002B0001B6A9847084B5B6903F40073002B08D056
:1002C000054B5B69044A43F400735361034B5B6A5B
:1002D000984700BF80BD00BF000401402C000020F3
:1002E00080B500AF304B5B6903F48063002B09D00D
:1002F0002D4B5B692C4A43F4806353612B4B9B6A03
:1003000098474EE0284B5B6903F40063002B09D04B
:10031000254B5B69244A43F400635361234BDB6A3A
:1003200098473EE0204B5B6903F48053002B09D0D3
:100330001D4B5B691C4A43F4805353611B4B1B6B81
:1003400098472EE0184B5B6903F40053002B09D04B
:10035000154B5B69144A43F400535361134B5B6BB9
:1003600098471EE0104B5B6903F48043002B09D0D3
:100370000D4B5B690C4A43F4804353610B4B9B6B01
:1003800098470EE0084B5B6903F40043002B08D04C
:10039000054B5B69044A43F400435361034BDB6B39
:1003A000984700BF80BD00BF000401402C00002022
:1003B00080B400AF00BFBD4680BC704780B400AFC2
:1003C00000BFBD4680BC704780B400AF00BFBD46D3
:1003D00080BC704780B400AF00BFBD4680BC704792
:1003E00080B582B000AF0E4B9B6803F00103DAB218
:1003F0003B7962F300033B71094B9B685B0803F098
:100400000103DAB23B7962F341033B71054B1B6890
:100410005B693A1D1046984700BF0837BD4680BD4E
:10042000003001406800002080B582B000AF0E4B64
:100430009B6803F00103DAB23B7962F300033B717E
:10044000094B9B685B0803F00103DAB23B7962F366
:1004500041033B71054B1B685B693A1D1046984789
:1004600000BF0837BD4680BD00380040680000204E
:1004700080B582B000AF00233B71144B1B685B0951
:1004800003F00103DAB23B7962F300033B710F4BD7
:100490001B689B0903F00103DAB23B7962F3410365
:1004A0003B710A4B1B68DB0903F00103DAB23B79AD
:1004B00062F382033B71064B1B685B693A1D104671
:1004C000984700BF0837BD4680BD00BF00380140D7
:1004D0001C00002080B500AF0D4B1B7883F001039A
:1004E000DAB20B4B1A700B4B1B680133094A1360CD
:1004F000084B1B681E2B05D1074800F0B9FC054BC3
:1005000000221A600549642000F0D6FCE4E700BF31
:100510003C010020240000206C000020B0000020DE
:1005200080B500AF064B1B7883F00103DAB2044BB1
:100530001A7004494FF4967000F0BEFCF2E700BF59
:10054000F40000204001002080B500AF064B1B786E
:1005500083F00103DAB2044B1A7004494FF4FA70C5
:1005600000F0AAFCF2E700BF84010020F8000020A0
:1005700080B500AF064B1B7883F00103DAB2044B61
:100580001A7004494FF47A7000F096FCF2E700BF4D
:10059000200000206C00002080B582B000AF00F089
:1005A00021F900F095FB0346002B00D0FEE7384B05
:1005B0004FF480621A60364B364A9A60344B0322FD
:1005C0001A71354B354A92E80300186004331980DC
:1005D00002330A0C1A70324B4FF480621A60304BAF
:1005E000304A9A602E4B03221A712F4B2F4A92E801
:1005F000030018600433198002330A0C1A702C4B64
:100600004FF480621A602A4B2A4A9A60284B0322D0
:100610001A71294B294A92E80300186004331980A3
:1006200002330A0C1A70264B4FF480621A60244B76
:10063000244A9A60224B01221A711F4B224A92E8E7
:10064000030018600433198002330A0C1A70104832
:1006500000F0B8FB0346FB71114800F0B3FB034602
:10066000FB71134800F0AEFB0346FB71144800F029
:10067000A9FB0346FB71064800F0FAFB084800F0AE
:10068000F7FB0B4800F0F4FB00F02AFCFEE700BF8C
:10069000B0000020D5040008CC000020681100083C
:1006A00040010020210500085C01002070110008B5
:1006B000F800002049050008140100207811000806
:1006C0006C00002071050008801100080D48854667
:1006D000AFF300800C480D490D4A002302E0D458C6
:1006E000C4500433C4188C42F9D30A4A0A4C00237C
:1006F00001E013600432A242FBD300F005FDFFF7D6
:100700004BFFFEE700280020000000200000002032
:100710009C1100080000002020050020FEE70000DA
:1007200080B483B000AF03463960FB7197F907309E
:10073000002B0ADB3B68DAB20C4997F9073052010B
:10074000D2B20B4483F800230AE03B68DAB20849CE
:10075000FB7903F00F03043B5201D2B20B441A762B
:1007600000BF0C37BD4680BC704700BF00E100E011
:1007700000ED00E080B582B000AF78607B68013B9F
:10078000B3F1807F01D301230FE00A4A7B68013B6C
:10079000536007214FF0FF30FFF7C2FF054B0022E7
:1007A0009A60044B07221A60002318460837BD469A
:1007B00080BD00BF10E000E080B400AFFEE780B471
:1007C00000AFFEE780B400AFFEE780B400AFFEE705
:1007D0001EF0040F0CBFEFF30880EFF3098000F068
:1007E0003BB900BF80B500AF0F216FF00100FFF7EC
:1007F00097FF00BF80BD000080B400AF044B5B6872
:10080000034A43F08053536000BFBD4680BC70472D
:1008100000ED00E080B500AF4FF4FA50FFF7AAFFFB
:1008200000BF80BD80B500AF074B1B7883F001038C
:10083000DAB2054B1A7000F07FFB00F0BBF8FFF74F
:10084000DBFF00BF80BD00BF2800002080B483B064
:1008500000AF0023FB710023BB71214BD3F89C3107
:100860007B710023FB7130E00023BB7123E0BB7977
:100870001B4A52F823301A79BB790133184951F8D1
:1008800023301B799A4213D9BB79154A52F8233089
:100890003B60BB795A1CBB79114951F822201049A1
:1008A00041F82320BB7901330D493A6841F82320F0
:1008B000BB790133BB71BA797979FB79CB1A013BEA
:1008C0009A42D4DBFB790133FB71FA797B79013BE6
:1008D0009A42C9DB00BF0C37BD4680BC704700BFE1
:1008E0007403002080B584B000AF0023FB600023B8
:1008F0003B60FFF7ABFF00BF3B4619462B4800F0BB
:10090000C5FB0346022BF7D144E0294AFB6852F8A5
:100910002330BB60FB680133254A52F823307B60EB
:10092000BB6893F83A30002B31D07B6893F83A30AB
:10093000002B08D1B9681D4800F066FBBB68032294
:1009400083F83A202EE0BB681A797B681B799A42BB
:1009500008D2B968154800F057FBBB68032283F83A
:100960003A201FE0BB681A797B681B799A4208D14C
:10097000B9680E4800F048FBBB68032283F83A20B0
:1009800005E0BB681A797B681B799A4209D8FB6835
:100990000133FB60064BD3F89C21FB689A42B4D824
:1009A00000E000BF00BF1037BD4680BDCC01002075
:1009B0007403002080B500AF244B1B68002B1AD1B4
:1009C000234BD3F8A03193F83A30002B13D0204BAF
:1009D000D3F8A031012283F83A201D4BD3F8A0317F
:1009E00019461A4800F010FB194BD3F8A031184AE9
:1009F000C2F8A43127E01749144800F047FB144B14
:100A0000D3F8A431012283F83A20114BD3F8A03156
:100A10001A790F4BD3F8A4311B799A4213D10C4B9E
:100A2000D3F8A03193F83A30002B0CD0084BD3F810
:100A3000A0311946054800F0E7FA054BD3F8A0317C
:100A4000032283F83A2000BF80BD00BFCC01002004
:100A5000740300201805002080B584B000AF7860D2
:100A60007B6818331B68023B1B78FB73FB7B002BF6
:100A700020DB012B02DD022B17D01BE0FFF732FF3A
:100A80000E4B93F8A831012B12D10C4BD3F8A031A7
:100A90001C330B491846FFF76BFB0346002B07D0AE
:100AA000FFF788FFFFF7A8FE02E0FFF71BFF00E05B
:100AB00000BF00BF00BF1037BD4680BD74030020DB
:100AC000881100086B4BD3F8A031EFF309829A61CB
:100AD000684BD3F8A0319A69043A9A61654BD3F810
:100AE000A0319B6922461A60624BD3F8A0319A6903
:100AF000043A9A615F4BD3F8A0319B692A461A6089
:100B00005C4BD3F8A0319A69043A9A61594BD3F8F7
:100B1000A0319B6932461A60564BD3F8A0319A69CE
:100B2000043A9A61534BD3F8A0319B693A461A6054
:100B3000504BD3F8A0319A69043A9A614D4BD3F8DF
:100B4000A0319B6942461A604A4BD3F8A0319A699A
:100B5000043A9A61474BD3F8A0319B694A461A6020
:100B6000444BD3F8A0319A69043A9A61414BD3F8C7
:100B7000A0319B6952461A603E4BD3F8A0319A6966
:100B8000043A9A613B4BD3F8A0319B695A461A60EC
:100B9000384BD3F8A431374AC2F8A031354B002284
:100BA000C3F8A421334BD3F8A0319B691B689B4643
:100BB000304BD3F8A0319A6904329A612D4BD3F8A7
:100BC000A0319B691B689A462A4BD3F8A0319A69D9
:100BD00004329A61274BD3F8A0319B691B68994670
:100BE000244BD3F8A0319A6904329A61214BD3F88F
:100BF000A0319B691B6898461E4BD3F8A0319A69B7
:100C000004329A611B4BD3F8A0319B691B681F46C5
:100C1000184BD3F8A0319A6904329A61154BD3F876
:100C2000A0319B691B681E46124BD3F8A0319A690C
:100C300004329A610F4BD3F8A0319B691B681D46A3
:100C40000C4BD3F8A0319A6904329A61094BD3F85E
:100C5000A0319B691B681C46064BD3F8A0319A69EA
:100C600004329A61034BD3F8A0319B6983F309885E
:100C7000704700BF7403002080B400AF0B4A0C4BD8
:100C8000C3F890210A4BD3F89031A3F50063084ACA
:100C9000C2F89431064BD3F894310833044AC2F8B1
:100CA000983100BFBD4680BC704700BF00280020BF
:100CB0007403002080B400AF044B1B7883F0010361
:100CC000DAB2024B1A7020BFF6E700BFE001002045
:100CD00080B582B000AF0023FB71144B002283F873
:100CE000A821FFF7C9FF64221149124800F06AF9F0
:100CF0000346002B01D00123FB710F4B0F4A07CA9B
:100D000003C31A700E4BFF221A710D4B0D4A9A60E5
:100D10000B4B4FF496721A60094800F053F80346E3
:100D2000FB71FB7918460837BD4680BD740300206F
:100D3000E4010020CC010020A4010020881100085B
:100D400088010020B50C000880B485B000AF786041
:100D50007B681B691A467B689A617B689B691A1FCE
:100D60007B689A617B689B694FF080721A607B6830
:100D70009B691A1F7B689A617B689A687B689B698C
:100D80001A607B689B691A1F7B689A617B689B6904
:100D90006FF002021A600023FB600BE07B689B6926
:100DA0001A1F7B689A617B689B6900221A60FB6846
:100DB0000133FB60FB680C2BF0DD00BF1437BD4630
:100DC00080BC704780B584B000AF78600023FB73AF
:100DD000194BD3F898217B681A617B681A697B6884
:100DE0001B68D21A7B685A617B685B69134A93421D
:100DF00001D202231BE07B685B69083B0E4AC2F804
:100E000098317868FFF7A0FF0B4BD3F89C310A4963
:100E10007A6841F82320084BD3F89C310133064A05
:100E2000C2F89C317B68002283F83A20FB7B18468D
:100E30001037BD4680BD00BF74030020200B00208A
:100E400080B483B000AF0346FB71FB79012B06D061
:100E5000022B06D0002B00D005E000DF03E001DF0D
:100E600001E002DF00BF00BF0C37BD4680BC704709
:100E700080B584B000AF78600023FB737B680222EA
:100E800083F83A200020FFF7DBFFFB7B1846103782
:100E9000BD4680BD80B584B000AF78600023FB7391
:100EA0007B68002283F83A200120FFF7C9FFFB7B13
:100EB00018461037BD4680BD80B582B000AF78605F
:100EC00039603B68002283F83C203B687A681A64EA
:100ED0003868FFF7DFFF00BF0837BD4680BD000060
:100EE00080B500AF124B012283F8A821104B114AA4
:100EF000C3F8A0210F48FFF7BBFFFFF78BFC0C4B9B
:100F0000D3F8A0319B6983F30988EFF314804FF085
:100F1000020140EA010080F31488EFF3148343F0E8
:100F2000010383F31488034B9B68984700BF80BD7F
:100F3000740300208801002080B582B000AF002338
:100F40007B6000237B6031E01D4A7B6852F82330D0
:100F500093F83A30002B26D1194A7B6852F8233097
:100F600093F83C30002B1ED1154A7B6852F8233091
:100F70001A6C013A1A64124A7B6852F823301B6CCF
:100F8000002B10D10E4A7B6852F82330012283F8DF
:100F90003C200B4A7B6852F82330022283F83A2027
:100FA0000220FFF74DFF7B6801337B60044BD3F8D1
:100FB0009C217B689A42C7D800BF0837BD4680BDD8
:100FC0007403002080B485B000AFF860B9607A6027
:100FD000BB68002B01D1032311E0FB68BA68DA601B
:100FE000FB68DA68FB685A60FB68DA68FB689A603D
:100FF000FB687A681A61FB6800221A6000231846B1
:101000001437BD4680BC704780B483B000AF7860B1
:1010100039607B68DB68002B03D07B681B69002B81
:1010200001D103232DE07B685A687B689B689A4254
:1010300007D17B681A687B681B699A4201D101233A
:101040001FE07B689B683A681A607B681B685A1CC3
:101050007B681A607B689B687A68D26811467A68F8
:10106000126992000A44043A934204D17B68DA6818
:101070007B689A6004E07B689B681A1D7B689A60B5
:10108000002318460C37BD4680BC704780B483B03F
:1010900000AF786039607B68DB68002B03D07B6829
:1010A0001B69002B01D1032328E07B685A687B6809
:1010B0009B689A4201D1022320E07B685B681A6832
:1010C0003B681A607B681B685A1E7B681A607B68E5
:1010D0005B687A68D26811467A68126992000A449D
:1010E000043A934204D17B68DA687B685A6004E072
:1010F0007B685B681A1D7B685A60002318460C37B2
:10110000BD4680BC7047000070B500250C4E0D4CEC
:10111000A41BA410A54209D100F01AF800250A4E1C
:101120000A4CA41BA410A54205D170BD56F8253069
:1011300098470135EEE756F8253098470135F2E734
:1011400094110008941100089411000898110008E7
:10115000F8B500BFF8BC08BC9E467047F8B500BFA4
:08116000F8BC08BC9E46704774
:101168005461736B5F3100005461736B5F32000030
:101178005461736B5F3300005461736B5F3400001C
:0C11880069646C655461736B000000002A
:0411940055010008F9
:041198003101000819
:04000005080006CD1C
:00000001FF
