:020000040800F2
:1000000000280020412600089126000893260008B9
:10001000992600089F260008A52600080000000079
:10002000000000000000000000000000AB260008F7
:1000300091260008000000007D290008DD26000848
:1000400091260008912600089126000891260008B4
:10005000912600089126000889120008AD120008B8
:10006000D1120008F51200081913000891260008A3
:100070009126000891260008912600089126000884
:100080009126000891260008912600089126000874
:100090009126000891260008912600083D130008CB
:1000A0009126000891260008912600089126000854
:1000B000912600089126000891260008EF160008F6
:1000C000E316000807170008FB160008D117000800
:1000D00019180008811D0008E51D00089126000878
:1000E000E513000891260008000000009126000892
:1000F0009126000891260008912600089126000804
:1001000091260008912600089126000891260008F3
:1001100091260008912600089126000891260008E3
:1001200091260008912600089126000891260008D3
:1001300010B5054C237833B9044B13B10448AFF321
:1001400000800123237010BD000200200000000089
:100150009047000808B5034B1BB103490348AFF3B0
:10016000008008BD00000000040200209047000845
:1001700010F8012B11F8013B012A28BF9A42F7D051
:10018000D01A7047034613F8012B002AFBD1181A26
:100190000138704781F0004102E000BF83F0004366
:1001A00030B54FEA41044FEA430594EA050F08BF12
:1001B00090EA020F1FBF54EA000C55EA020C7FEAD6
:1001C000645C7FEA655C00F0E2804FEA5454D4EB53
:1001D0005555B8BF6D420CDD2C4480EA020281EA1D
:1001E000030382EA000083EA010180EA020281EA55
:1001F0000303362D88BF30BD11F0004F4FEA0131A7
:100200004FF4801C4CEA113102D0404261EB4101B5
:1002100013F0004F4FEA03334CEA133302D052423B
:1002200063EB430394EA050F00F0A780A4F10104F7
:10023000D5F1200E0DDB02FA0EFC22FA05F2801831
:1002400041F1000103FA0EF2801843FA05F3594117
:100250000EE0A5F120050EF1200E012A03FA0EFC96
:1002600028BF4CF0020C43FA05F3C01851EBE371C0
:1002700001F0004507D54FF0000EDCF1000C7EEBDD
:1002800000006EEB0101B1F5801F1BD3B1F5001F1B
:100290000CD349085FEA30004FEA3C0C04F101043A
:1002A0004FEA445212F5800F80F09A80BCF1004F63
:1002B00008BF5FEA500C50F1000041EB045141EAE5
:1002C000050130BD5FEA4C0C404141EB010111F4E6
:1002D000801FA4F10104E9D191F0000F04BF014691
:1002E0000020B1FA81F308BF2033A3F10B03B3F16F
:1002F00020020CDA0C3208DD02F1140CC2F10C02FF
:1003000001FA0CF021FA02F10CE002F11402D8BF5C
:10031000C2F1200C01FA02F120FA0CFCDCBF41EA28
:100320000C019040E41AA2BF01EB0451294330BDF7
:100330006FEA04041F3C1CDA0C340EDC04F11404D4
:10034000C4F1200220FA04F001FA02F340EA0300AB
:1003500021FA04F345EA030130BDC4F10C04C4F1F1
:10036000200220FA02F001FA04F340EA03002946D1
:1003700030BD21FA04F0294630BD94F0000F83F41B
:10038000801306BF81F480110134013D4EE77FEAFE
:10039000645C18BF7FEA655C29D094EA050F08BF4A
:1003A00090EA020F05D054EA000C04BF194610462B
:1003B00030BD91EA030F1EBF0021002030BD5FEA6F
:1003C000545C05D14000494128BF41F0004130BD97
:1003D00014F580043CBF01F5801130BD01F00045EB
:1003E00045F0FE4141F470014FF0000030BD7FEA5E
:1003F000645C1ABF194610467FEA655C1CBF0B4659
:10040000024650EA013406BF52EA033591EA030F6F
:1004100041F4002130BD00BF90F0000F04BF002167
:10042000704730B54FF4806404F132044FF000059A
:100430004FF0000150E700BF90F0000F04BF002113
:10044000704730B54FF4806404F1320410F0004579
:1004500048BF40424FF000013EE700BF42004FEA74
:10046000E2014FEA31014FEA02701FBF12F07F43F1
:1004700093F07F4F81F06051704732F07F4208BFA8
:10048000704793F07F4F04BF41F40021704730B5AF
:100490004FF4607401F0004521F000411CE700BFFB
:1004A00050EA010208BF704730B54FF000050AE07E
:1004B00050EA010208BF704730B511F0004502D57F
:1004C000404261EB41014FF4806404F132045FEA81
:1004D000915C3FF4D8AE4FF003025FEADC0C18BF2A
:1004E00003325FEADC0C18BF033202EBDC02C2F11C
:1004F000200300FA03FC20FA02F001FA03FE40EAAE
:100500000E0021FA02F11444BDE600BF70B54FF0B1
:10051000FF0C4CF4E06C1CEA11541DBF1CEA13558F
:1005200094EA0C0F95EA0C0F00F0DEF82C4481EAF7
:10053000030621EA4C5123EA4C5350EA013518BF17
:1005400052EA033541F4801143F4801338D0A0FB04
:1005500002CE4FF00005E1FB02E506F00042E0FBB1
:1005600003E54FF00006E1FB03569CF0000F18BFB7
:100570004EF0010EA4F1FF04B6F5007F64F540745F
:1005800004D25FEA4E0E6D4146EB060642EAC621F2
:1005900041EA55514FEAC52040EA5E504FEACE2E5F
:1005A000B4F1FD0C88BFBCF5E06F1ED8BEF1004F62
:1005B00008BF5FEA500E50F1000041EB045170BDDE
:1005C00006F0004646EA010140EA020081EA030122
:1005D000B4EB5C04C2BFD4EB0C0541EA045170BD1E
:1005E00041F480114FF0000E013C00F3AB8014F198
:1005F000360FDEBF002001F0004170BDC4F10004E1
:10060000203C35DA0C341BDC04F11404C4F1200561
:1006100000FA05F320FA04F001FA05F240EA0200BC
:1006200001F0004221F0004110EBD37021FA04F6F2
:1006300042EB06015EEA430E08BF20EAD37070BDAC
:10064000C4F10C04C4F1200500FA04F320FA05F00B
:1006500001FA04F240EA020001F0004110EBD3700D
:1006600041F100015EEA430E08BF20EAD37070BD7D
:10067000C4F1200500FA05F24EEA020E20FA04F356
:1006800001FA05F243EA020321FA04F001F0004105
:1006900021FA04F220EA020000EBD3705EEA430E76
:1006A00008BF20EAD37070BD94F0000F0FD101F0A5
:1006B0000046400041EB010111F4801F08BF013CDE
:1006C000F7D041EA060195F0000F18BF704703F01C
:1006D0000046520043EB030313F4801F08BF013DA3
:1006E000F7D043EA0603704794EA0C0F0CEA13555F
:1006F00018BF95EA0C0F0CD050EA410618BF52EA19
:100700004306D1D181EA030101F000414FF000001E
:1007100070BD50EA410606BF1046194652EA43062C
:1007200019D094EA0C0F02D150EA013613D195EAA0
:100730000C0F05D152EA03361CBF104619460AD1E8
:1007400081EA030101F0004141F0FE4141F47001F2
:100750004FF0000070BD41F0FE4141F4780170BDE2
:1007600070B54FF0FF0C4CF4E06C1CEA11541DBF47
:100770001CEA135594EA0C0F95EA0C0F00F0A7F849
:10078000A4EB050481EA030E52EA03354FEA013176
:1007900000F088804FEA03334FF0805545EA131389
:1007A00043EA12634FEA022245EA111545EA106551
:1007B0004FEA00260EF000419D4208BF964244F1E8
:1007C000FD0404F5407402D25B084FEA3202B61A07
:1007D00065EB03055B084FEA32024FF480104FF4DB
:1007E000002CB6EB020E75EB030E22BFB61A75464F
:1007F00040EA0C005B084FEA3202B6EB020E75EBE2
:10080000030E22BFB61A754640EA5C005B084FEA49
:100810003202B6EB020E75EB030E22BFB61A754616
:1008200040EA9C005B084FEA3202B6EB020E75EB21
:10083000030E22BFB61A754640EADC0055EA060EE2
:1008400018D04FEA051545EA16754FEA06164FEA25
:10085000C30343EA52734FEAC2025FEA1C1CC0D1D1
:1008600011F4801F0BD141EA00014FF000004FF05E
:10087000004CB6E711F4801F04BF01430020B4F11F
:10088000FD0C88BFBCF5E06F3FF6AFAEB5EB030CD7
:1008900004BFB6EB020C5FEA500C50F1000041EBD4
:1008A000045170BD0EF0004E4EEA113114EB5C04A1
:1008B000C2BFD4EB0C0541EA045170BD41F4801174
:1008C0004FF0000E013C90E645EA060E8DE60CEA7C
:1008D000135594EA0C0F08BF95EA0C0F3FF43BAF99
:1008E00094EA0C0F0AD150EA01347FF434AF95EA50
:1008F0000C0F7FF425AF104619462CE795EA0C0F34
:1009000006D152EA03353FF4FDAE1046194622E700
:1009100050EA410618BF52EA43067FF4C5AE50EADA
:1009200041047FF40DAF52EA43057FF4EBAE12E7CA
:100930004FF0FF3C06E000BF4FF0010C02E000BFAB
:100940004FF0010C4DF804CD4FEA410C7FEA6C5C8E
:100950004FEA430C18BF7FEA6C5C1BD001B050EA31
:10096000410C0CBF52EA430C91EA030F02BF90EA1C
:10097000020F0020704710F1000F91EA030F58BFDB
:10098000994208BF90422CBFD8176FEAE37040F03D
:10099000010070474FEA410C7FEA6C5C02D150EADB
:1009A000013C07D14FEA430C7FEA6C5CD6D152EA96
:1009B000033CD3D05DF8040B704700BF844610465B
:1009C00062468C461946634600E000BF01B5FFF75A
:1009D000B7FF002848BF10F1000F01BD4DF808ED2A
:1009E000FFF7F4FF0CBF012000205DF808FB00BFFB
:1009F0004DF808EDFFF7EAFF34BF012000205DF855
:100A000008FB00BF4DF808EDFFF7E0FF94BF0120A1
:100A100000205DF808FB00BF4DF808EDFFF7CEFFA2
:100A200094BF012000205DF808FB00BF4DF808EDE1
:100A3000FFF7C4FF34BF012000205DF808FB00BFB2
:100A40004FEA410C7FEA6C5C02D150EA013C0AD1CA
:100A50004FEA430C7FEA6C5C02D152EA033C02D1BC
:100A60004FF0000070474FF0010070474FEA41021D
:100A700012F5001215D211D56FF47873B3EB6252F0
:100A800012D94FEAC12343F0004343EA505311F017
:100A9000004F23FA02F018BF404270474FF00000A9
:100AA000704750EA013005D111F0004008BF6FF0E7
:100AB000004070474FF00000704700BF80B584B021
:100AC00000AF05237B600423BB600123FB603B1D5B
:100AD00019462C4800F03EFD06237B600423BB60D2
:100AE0000123FB603B1D1946264800F033FD072318
:100AF0007B600423BB600123FB603B1D194621483A
:100B000000F028FD00237B600223BB600123FB6013
:100B10003B1D19461B4800F01DFD01237B6002238D
:100B2000BB600123FB603B1D1946164800F012FD17
:100B300003237B600223BB600123FB603B1D19463E
:100B4000104800F007FD04237B600223BB600123F3
:100B5000FB603B1D19460B4800F0FCFC01220521FF
:100B6000084800F076FD01220621064800F071FDDC
:100B700001220721034800F06CFD00BF1037BD467D
:100B800080BD00BF000C014090B58BB000AF514B51
:100B900007F110040FCB84E80F004F4A3B1D07CA32
:100BA00083E8070000237B628BE0012205214B488C
:100BB00000F04FFD01220621484800F04AFD0122C5
:100BC0000721464800F045FD7B6A9B0007F128029B
:100BD000134453F8243C00221946404800F039FDE4
:100BE00000233B6267E03B6A9B0007F12802134445
:100BF00053F8183C1946394800F049FD0346002BCC
:100C000056D100BF3B6A9B0007F12802134453F8FA
:100C1000183C1946314800F03AFD0346002BF1D04C
:100C20007B6A012B17D0022B29D0002B40D13B6AC5
:100C3000002B01D12A2349E03B6A012B01D1372344
:100C400044E03B6A022B01D134233FE03B6A032B93
:100C500029D131233AE03B6A002B01D1302335E022
:100C60003B6A012B01D1382330E03B6A022B01D1D2
:100C700035232BE03B6A032B17D1322326E03B6A56
:100C8000002B01D1232321E03B6A012B01D1392321
:100C90001CE03B6A022B01D1362317E03B6A032B91
:100CA00005D1332312E000BF02E000BF00E000BF27
:100CB0003B6A01333B623B6A032B94DD7B6A013361
:100CC0007B627B6A022B7FF770AF412318462C377B
:100CD000BD4690BDA8470008B8470008000C014079
:100CE00080B485B000AF78600023FB600BE0002388
:100CF000BB6002E0BB680133BB60BB68FE2BF9D967
:100D0000FB680133FB60FA687B689A42EFD300BF4F
:100D10001437BD4680BC704780B582B000AF7860A4
:100D20000F4A7B6852F823000E4A7B6832F8133072
:100D30000122194600F08DFC0A20FFF7D1FF084A76
:100D40007B6852F82300074A7B6832F81330002290
:100D5000194600F07EFC00BF0837BD4680BD00BFCD
:100D6000080000200400002080B582B000AF0346D8
:100D70003960FB71394A3B6852F82300384A3B68B6
:100D800032F813300022194600F063FC334A3B6806
:100D900052F82300FB791B1103F001031A460C21C2
:100DA00000F057FC2D4A3B6852F82300FB795B1199
:100DB00003F001031A460D2100F04BFC274A3B6863
:100DC00052F82300FB799B1103F001031A460E2110
:100DD00000F03FFC214A3B6852F82300FB79DB0915
:100DE000DBB21A460F2100F034FC3868FFF794FF9D
:100DF0001A4A3B6852F82300FB7903F001031A46B4
:100E00000C2100F026FC154A3B6852F82300FB79C0
:100E10005B1003F001031A460D2100F01AFC0F4A83
:100E20003B6852F82300FB799B1003F001031A463C
:100E30000E2100F00EFC094A3B6852F82300FB79B2
:100E4000DB1003F001031A460F2100F002FC3868A2
:100E5000FFF762FF00BF0837BD4680BD08000020D5
:100E60000000002080B588B000AF0023FB6170E077
:100E70001420FFF735FF3A4AFB6932F81330FB6064
:100E800004233B6101237B61364AFB6952F823301E
:100E900007F10C021146184600F05CFB324AFB6970
:100EA00032F81330FB6004233B6101237B612D4A40
:100EB000FB6952F8233007F10C021146184600F086
:100EC00049FB284AFB6952F82300274AFB6932F89C
:100ED00013300022194600F0BCFB244A3B1D92E867
:100EE000030083E803000023BB6118E0BB695B00DB
:100EF00007F12002134433F81C3CFB6004233B61E0
:100F000001237B61174AFB6952F8233007F10C0279
:100F10001146184600F01EFBBB690133BB61BB697B
:100F2000032BE3DDF9690220FFF71EFFF969282092
:100F3000FFF71AFFF9690620FFF716FFF96980200D
:100F4000FFF712FFF9690F20FFF70EFFFB6901336E
:100F5000FB61FB69012B8BDD00BF2037BD4680BDE7
:100F6000000000200800002004000020C447000802
:100F700080B582B000AF03463960FB71394A3B68E7
:100F800052F82300384A3B6832F8133001221946E0
:100F900000F05FFB334A3B6852F82300FB791B11DA
:100FA00003F001031A460C2100F053FB2D4A3B6865
:100FB00052F82300FB795B1103F001031A460D215F
:100FC00000F047FB274A3B6852F82300FB799B114E
:100FD00003F001031A460E2100F03BFB214A3B6857
:100FE00052F82300FB79DB09DBB21A460F2100F02F
:100FF00030FB3868FFF790FE1A4A3B6852F823002E
:10100000FB7903F001031A460C2100F022FB154A7C
:101010003B6852F82300FB795B1003F001031A468A
:101020000D2100F016FB0F4A3B6852F82300FB79B4
:101030009B1003F001031A460E2100F00AFB094A37
:101040003B6852F82300FB79DB1003F001031A46DA
:101050000F2100F0FEFA3868FFF75EFE00BF083788
:10106000BD4680BD080000200000002080B582B091
:1010700000AF78600A20FFF733FE79680120FFF7A0
:1010800073FE00BF0837BD4680BD80B582B000AF9B
:1010900003463A60FB710B46BB71FB79012B07D10C
:1010A000BB79803BDBB239681846FFF75DFE1FE075
:1010B000FB79022B07D1BB79403BDBB2396818467C
:1010C000FFF752FE14E0FB79032B07D1BB79703B8D
:1010D000DBB239681846FFF747FE09E0FB79042BBD
:1010E00006D1BB79303BDBB239681846FFF73CFECE
:1010F00000BF0837BD4680BD80B584B000AF7860C2
:1011000039600023FB7332E07B685A1C7A601B78DD
:1011100039681846FFF72CFFFB7B0133FB73FB7B21
:10112000102B05D13A6800210220FFF7AEFF1EE028
:10113000FB7B202B05D13A6800210320FFF7A5FF98
:1011400015E0FB7B302B05D13A6800210420FFF726
:101150009CFF0CE0FB7B402B09D13868FFF786FF32
:101160003A6800210120FFF790FF0023FB737B68A2
:101170001B78002BC8D100BF1037BD4680BD0000D2
:1011800080B584B000AF08237B600423BB600123DB
:10119000FB603B1D1946034800F0DCF900BF103727
:1011A000BD4680BD000C014080B582B000AF034653
:1011B000FB71FB79012B0DD101220821104800F0B1
:1011C00048FA4FF4FA7000F073FB002208210C4833
:1011D00000F03FFAFB79022B0DD1012208210848CB
:1011E00000F037FA4FF4BA6000F062FB00220821E9
:1011F000034800F02EFA00BF0837BD4680BD00BF8F
:10120000000C014080B584B000AF09237B6004234B
:10121000BB600123FB603B1D1946034800F09AF9AF
:1012200000BF1037BD4680BD000C014080B582B0C4
:1012300000AF0346FB71FB79012B0DD1012209217F
:10124000104800F006FA4FF4FA7000F031FB00226B
:1012500009210C4800F0FDF9FB79022B0DD1012288
:101260000921084800F0F5F94FF4BA6000F020FBBE
:1012700000220921034800F0ECF900BF0837BD4601
:1012800080BD00BF000C014080B500AF054B5B691D
:10129000044A43F001035361034B1B68984700BFA6
:1012A00080BD00BF000401403C02002080B500AFBB
:1012B000054B5B69044A43F002035361034B5B68CF
:1012C000984700BF80BD00BF000401403C020020E1
:1012D00080B500AF054B5B69044A43F004035361DA
:1012E000034B9B68984700BF80BD00BF00040140CE
:1012F0003C02002080B500AF054B5B69044A43F017
:1013000008035361034BDB68984700BF80BD00BFF3
:10131000000401403C02002080B500AF054B5B6932
:10132000044A43F010035361034B1B69984700BF05
:1013300080BD00BF000401403C02002080B500AF2A
:10134000264B5B6903F02003002B08D0234B5B691D
:10135000224A43F020035361214B5B6998471F4B9E
:101360005B6903F04003002B08D01C4B5B691B4AF0
:1013700043F0400353611A4B9B699847174B5B69D5
:1013800003F08003002B08D0144B5B69134A43F031
:1013900080035361124BDB699847104B5B6903F480
:1013A0008073002B08D00D4B5B690C4A43F48073AB
:1013B00053610B4B1B6A9847084B5B6903F400733E
:1013C000002B08D0054B5B69044A43F4007353615A
:1013D000034B5B6A984700BF80BD00BF000401401B
:1013E0003C02002080B500AF304B5B6903F48063A2
:1013F000002B09D02D4B5B692C4A43F48063536169
:101400002B4B9B6A98474EE0284B5B6903F40063C3
:10141000002B09D0254B5B69244A43F400635361D8
:10142000234BDB6A98473EE0204B5B6903F4805313
:10143000002B09D01D4B5B691C4A43F48053536158
:101440001B4B1B6B98472EE0184B5B6903F4005352
:10145000002B09D0154B5B69144A43F400535361C8
:10146000134B5B6B98471EE0104B5B6903F48043A2
:10147000002B09D00D4B5B690C4A43F48043536148
:101480000B4B9B6B98470EE0084B5B6903F40043E2
:10149000002B08D0054B5B69044A43F400435361B9
:1014A000034BDB6B984700BF80BD00BF00040140C9
:1014B0003C02002080B483B000AF78607B680F2BC3
:1014C00042D801A252F823F0091500080D150008B2
:1014D0001115000815150008191500081D1500083C
:1014E0002115000825150008291500082D150008EC
:1014F0003115000835150008391500083D1500089C
:10150000411500084515000800231EE004231CE0D7
:1015100008231AE00C2318E0102316E0142314E02B
:10152000182312E01C2310E000230EE004230CE03B
:1015300008230AE00C2308E0102306E0142304E04B
:10154000182302E01C2300E0002318460C37BD4698
:1015500080BC704780B584B000AF786039600023EC
:10156000BB600023FB603B681B68072B01D87B68CE
:1015700001E07B680433BB603B681B681846FFF7DB
:1015800099FF02460F239340DA43BB681B681A4059
:10159000BB681A603B685B68062B0BD03B685B68D6
:1015A000072B07D03B685B68052B03D03B685B6863
:1015B000042B0AD13B685B68043B9A003B689B683C
:1015C000134303F00F03FB6031E03B685B68002BC3
:1015D00003D03B685B68012B06D13B685B689B00CE
:1015E00003F00F03FB6022E03B685B68082B02D12D
:1015F0000423FB601BE00823FB603B685B68022B55
:101600000AD17B68DB683A681268012101FA02F2AC
:101610001A437B68DA600AE07B68DB683A68126824
:10162000012101FA02F2D2431A407B68DA603B687A
:101630001B681846FFF73EFF0246FB6803FA02F2FA
:10164000BB681B681A43BB681A6000BF1037BD46F1
:1016500080BD80B485B000AFF860B9607A60FB6887
:10166000DB680121BA6801FA02F2D2431A40FB6832
:10167000DA60FB68DA687968BB6801FA03F31A4339
:10168000FB68DA6000BF1437BD4680BC704780B489
:1016900085B000AF786039607B689B6801213A684B
:1016A00001FA02F21A403B6822FA03F3FB73FB7B58
:1016B00018461437BD4680BC704780B483B000AF75
:1016C00078600B46FB707B68DB68FA78012101FAD1
:1016D00002F25A407B68DA6000BF0C37BD4680BC1E
:1016E000704780B400AF00BFBD4680BC704780B477
:1016F00000AF00BFBD4680BC704780B400AF00BFE4
:10170000BD4680BC704780B400AF00BFBD4680BC02
:101710007047000080B483B000AF0C4B5B689B083F
:1017200003F003037B607B68012B05D0022B05D0FF
:10173000002B05D1064B04E0064B02E0054B00E010
:10174000002318460C37BD4680BC7047001002408D
:1017500000127A000024F40080B500AFFFF7DAFF32
:101760000146054B5B681B0903F00703034AD35C82
:1017700021FA03F3184680BD00100240100000203B
:1017800080B500AFFFF7E8FF0146054B5B68DB0A59
:1017900003F00703034AD35C21FA03F3184680BD24
:1017A000001002402000002080B500AFFFF7D4FFFA
:1017B0000146054B5B681B0A03F00703034AD35C31
:1017C00021FA03F3184680BD0010024020000020DB
:1017D00080B582B000AF0E4B9B6803F00103DAB214
:1017E0003B7962F300033B71094B9B685B0803F094
:1017F0000103DAB23B7962F341033B71054B1B688D
:101800005B693A1D1046984700BF0837BD4680BD4A
:10181000003001407802002080B582B000AF0E4B4E
:101820009B6803F00103DAB23B7962F300033B717A
:10183000094B9B685B0803F00103DAB23B7962F362
:1018400041033B71054B1B685B693A1D1046984785
:1018500000BF0837BD4680BD003800407802002038
:1018600080B400AF0E4BDB690D4A43F00103D36136
:101870000C4B07221A600C4B4CF250321A604FF09E
:1018800080431B684FF0804243F00103136000BFA8
:10189000064B1B68002BFBD000BFBD4680BC7047C9
:1018A00000100240280000402C00004010000040C2
:1018B00080B483B000AF7860064B00221A6000BF8E
:1018C000044B1A687B689A42FAD300BF0C37BD46B6
:1018D00080BC70472400004080B584B000AF7860C1
:1018E0000023FB600023FB6006E04FF47A70FFF7F3
:1018F000DFFFFB680133FB60FA687B689A42F4DB28
:1019000000BF1037BD4680BDB0B582B000AF786073
:1019100039607B68894A934208D1894A3B681360E1
:10192000884B9B69874A43F4804393617B68864A6E
:10193000934208D1824A3B685360824BDB69814AFB
:1019400043F40033D3613B685B78012B06D17B689D
:101950001B6943F400627B681A6197E03B681B785F
:10196000012B40F093807B68DB6843F400527B6876
:10197000DA607B68DB6843F00C027B68DA607B68C6
:10198000DB683A6812791A437B68DA607B681B6906
:101990003A6852791A437B681A617B68674A9342B6
:1019A0002FD1FFF7EDFE02463B689B681B01B2FB9F
:1019B000F3F31C01FFF7E4FE024613469B001344B9
:1019C0009A001A443B689B689B00B2FBF3F5FFF753
:1019D000D7FE02463B689B681B01B2FBF3F364220F
:1019E00002FB03F3EB1A1B01584AA2FB03235B091A
:1019F00003F00F0344EA03027B689B681A437B6889
:101A00009A607B68504A93422FD1FFF7CDFE024681
:101A10003B689B681B01B2FBF3F31C01FFF7C4FE9C
:101A2000024613469B0013449A001A443B689B6885
:101A30009B00B2FBF3F5FFF7B7FE02463B689B68DD
:101A40001B01B2FBF3F3642202FB03F3EB1A1B014D
:101A50003E4AA2FB03235B0903F00F0344EA03029F
:101A60007B689B681A437B689A603B681B7B012BF1
:101A70000CD17B68DB6843F480627B68DA607B684A
:101A8000DB683A68527B1A437B68DA603B681B7CF0
:101A9000012B08D17B68DB6843F080027B68DA6049
:101AA0002B4B01221A703B685B7C012B08D17B68B1
:101AB000DB6843F020027B68DA60264B01221A7053
:101AC0003B689B7C012B08D17B68DB6843F04002BC
:101AD0007B68DA60204B01221A701D4B1B78002BAB
:101AE00007D11C4B1B78002B03D11B4B1B78002B01
:101AF0001FD07B68114A934206D1184B5B68174A86
:101B000043F02003536014E07B680F4A934206D1F0
:101B1000124B5B68114A43F04003536009E07B6855
:101B20000F4A934205D10D4B5B680C4A43F080038A
:101B3000536000BF0837BD46B0BD00BF003801404C
:101B40002002002000100240004400401F85EB519D
:101B50001C0200201D0200201E02002000E100E007
:101B60000048004080B483B000AF786039601A4B01
:101B70001B78002B0ED1194B1B78002B0AD1184B68
:101B80001B78002B06D100BF7B681B6803F0800325
:101B9000002BF9D07B68134A93420AD1124B1B6881
:101BA0001B79002B13D13B681B88DAB27B685A6023
:101BB0000DE07B680D4A934209D10B4B5B681B79A2
:101BC000002B04D13B681B88DAB27B685A6000BFE7
:101BD0000C37BD4680BC70471C0200201D0200204F
:101BE0001E02002000380140200200200044004076
:101BF00080B483B000AF786039602A4B1B78002B2B
:101C00000ED1294B1B78002B0AD1284B1B78002BB7
:101C100006D100BF7B681B6803F02003002BF9D0BE
:101C20007B68234A93421AD1224B1B681B79002BF5
:101C300033D1204B1B681B7B002B08D07B685B6873
:101C40009BB203F07F039AB23B681A8025E07B6861
:101C50005B689BB2DBB29AB23B681A801DE07B687E
:101C6000154A934219D1134B5B681B79002B14D191
:101C7000104B5B681B7B002B08D07B685B689BB2BA
:101C800003F07F039AB23B681A8006E07B685B68CA
:101C90009BB2DBB29AB23B681A8000BF0C37BD46DC
:101CA00080BC70471C0200201D0200201E02002084
:101CB00000380140200200200044004080B58CB074
:101CC00000AF78607B68294A934216D109237B6272
:101CD0000623BB620123FB6207F124031946244853
:101CE000FFF738FC0A237B620823BB6207F1240359
:101CF00019461F48FFF72EFC34E07B681D4A9342CB
:101D000016D10223BB610623FB6101233B6207F16D
:101D1000180319461648FFF71DFC0323BB6108236F
:101D2000FB6107F1180319461148FFF713FC19E08E
:101D30007B68114A934215D10A23FB6006233B615D
:101D400001237B6107F10C0319460C48FFF702FCE5
:101D50000B23FB6008233B6107F10C03194607487E
:101D6000FFF7F8FB00BF3037BD4680BD00380140AB
:101D7000000801400044004000480040000C0140C1
:101D800080B582B000AF00233B71144B1B685B0928
:101D900003F00103DAB23B7962F300033B710F4BAE
:101DA0001B689B0903F00103DAB23B7962F341033C
:101DB0003B710A4B1B68DB0903F00103DAB23B7984
:101DC00062F382033B71064B1B685B693A1D104648
:101DD000984700BF0837BD4680BD00BF00380140AE
:101DE0002002002080B582B000AF00233B71144B6D
:101DF0001B685B0903F00103DAB23B7962F300036D
:101E00003B710F4B1B689B0903F00103DAB23B796E
:101E100062F341033B710A4B1B68DB0903F00103CA
:101E2000DAB23B7962F382033B71064B5B685B6914
:101E30003A1D1046984700BF0837BD4680BD00BF19
:101E4000004400402002002080B58EB000AF654BFA
:101E50009B69644A43F004039361624B9B69614A46
:101E600043F0080393615F4B9B695E4A43F00103B3
:101E70009361FEF723FEFFF7F3FCFFF781F9FFF70D
:101E8000C1F901233B774FF4E1337B62002387F8EC
:101E90002030002387F82830002387F821300123E1
:101EA00087F82D30504B3B6307F11C0319464F4810
:101EB000FFF72AFD4D48FFF701FF01233B714FF467
:101EC000E133FB6000233B7200233B7400237B72F1
:101ED00001237B75464BBB613B1D19464548FFF707
:101EE00013FD4448FFF7EAFEFEF7BCFF00F092FA4C
:101EF00000F0C6FA00F0E0FA00F046FA3220FFF7F0
:101F0000EBFC00F063FA00237B633B4B1B78302B28
:101F10001BD9012200210220FFF7B7F80121374821
:101F2000FFF7EAF8012200210320FFF7AEF80121B4
:101F30003348FFF7E1F800BF324B1B88002B32D14A
:101F4000314B1B88002BF7D02DE06420FFF7C4FC39
:101F500001210C20FEF708FF01210120FEF704FFFC
:101F6000012200210120FFF790F801212748FFF707
:101F7000C3F8012200210220FFF787F8012124483D
:101F8000FFF7BAF8012200210320FFF77EF80121B4
:101F90002048FFF7B1F800BF1B4B1B88002BFBD07C
:101FA000184B00221A8000237B6358E01A4A7B6B8F
:101FB00013441B789AB2134B1B889A4232D1174BA9
:101FC00001221A70144A7B6B13441978144A7B6BF4
:101FD00013440A461A70104A7B6B1344FF221A708E
:101FE0003AE000BF00100240212300080038014001
:101FF00055230008004400402F000020CC47000873
:10200000DC4700087E02002080020020E84700082C
:10201000F847000804480008280000202802002093
:102020002C000020AF4A7B6B13441B789AB2AE4B56
:102030001B889A4210D1AD4B01221A70A94A7B6BC2
:1020400013441978AA4A7B6B13440A461A70A54AAE
:102050007B6B1344FF221A707B6B01337B637B6BBA
:10206000022BA3DDA34B1B78012B4FD1A24B1B8866
:10207000002B4BD0A14B1B78302B47D901210C20D2
:10208000FEF772FE01210120FEF76EFE0122002103
:102090000120FEF7FAFF01219948FFF72DF80122F0
:1020A00000210220FEF7F1FF01219648FFF724F8F6
:1020B00000220B219448FFF7CCFA0120FFF774F8B7
:1020C0008E4B1B78013BDAB28C4B1A708A4B002284
:1020D0001A80884B00221A70FA20FFF7FDFB00BF20
:1020E00007218948FFF7D3FA0346012BF8D00122D4
:1020F0000B218548FFF7ADFA0220FFF755F800F0F5
:1021000043F9FA20FFF7E8FB00F060F9774B1B7802
:10211000012B50D1744B1B88002B4CD0774B1B7874
:10212000322B48D801210C20FEF71EFE0121012090
:10213000FEF71AFE012200210120FEF7A6FF012171
:102140006F48FEF7D9FF012200210220FEF79DFF14
:1021500001216E48FEF7D0FF00220B216A48FFF7ED
:1021600078FA0120FFF762F8644B1B780133DAB28A
:10217000624B1A705C4B00221A805C4B00221A7072
:10218000FA20FFF7A9FB00BF01215F48FFF77FFAA4
:102190000346012BF8D001220B215B48FFF759FAC7
:1021A0000220FFF743F800F0EFF8FA20FFF794FB66
:1021B00000F00CF947E04D4B1B78012B43D14A4B03
:1021C0001B88002B3FD04D4B1B78332B3BD101217B
:1021D0000C20FEF7C9FD01210120FEF7C5FD0122FB
:1021E00000210120FEF751FF01214948FEF784FF3D
:1021F000012200210220FEF748FF01214548FEF799
:102200007BFF00237B6309E000213F48FFF755FA7D
:102210003220FFF761FB7B6B01337B637B6B022B0F
:10222000F2DD012200213848FFF713FA00F0ACF884
:102230003220FFF751FB00F0C9F82B4B00221A8027
:102240002A4B00221A702B4B1B78002B04D0274BF3
:102250001B78002B7FF459AE274B1B88002B04D131
:10226000214B1B88002B3FF450AE01210C20FEF7C0
:102270007BFD01210120FEF777FD012200210120D5
:10228000FEF703FF01212448FEF736FF012200215B
:102290000220FEF7FAFE01212048FEF72DFF002361
:1022A0007B6309E000211848FFF707FA3220FFF7A7
:1022B00013FB7B6B01337B637B6B022BF2DD012213
:1022C00000211148FFF7C5F900F05EF83220FFF752
:1022D00003FB00F07BF8044B00221A80064B00221F
:1022E0001A8012E62C000020800200202902002023
:1022F00028000020280200207E0200202F0000205D
:102300000C48000818480008000801402C48000844
:102310003C48000848480008504800085C4800084D
:1023200080B582B000AF786007490848FFF760FCCD
:10233000054B1A88064B1A8003490448FFF712FC24
:1023400000BF0837BD4680BD7C0200200038014038
:102350007E02002080B582B000AF7860074908484F
:10236000FFF746FC054B1A88064B1A8003490448C0
:10237000FFF7F8FB00BF0837BD4680BD7C02002098
:10238000004400408002002080B500AF01210C20F5
:10239000FEF7EAFC01210120FEF7E6FC0122002104
:1023A0000120FEF772FE01210648FEF7A5FE01227C
:1023B00000210220FEF769FE01210348FEF79CFE82
:1023C00000BF80BD684800087448000880B500AFB1
:1023D00001210C20FEF7C8FC01210120FEF7C4FCFE
:1023E000012200210120FEF750FE01210748FEF7DF
:1023F00083FE01220D210120FEF747FE044B1B78CE
:1024000001211846FEF7B4FD00BF80BD84480008D6
:102410002F00002080B584B000AF00237B6005232F
:10242000BB600123FB603B1D19461448FFF792F87F
:102430000B237B600523BB600123FB603B1D19461A
:102440000E48FFF787F8002200210C48FFF701F93A
:1024500000220B210948FFF7FCF86420FFF73CFA43
:10246000012200210548FFF7F4F801220B2103485F
:10247000FFF7EFF800BF1037BD4680BD00080140F0
:1024800080B584B000AF07237B600223BB603B1D97
:1024900019460848FFF75EF801237B600223BB6002
:1024A0003B1D19460348FFF755F800BF1037BD46DE
:1024B00080BD00BF0008014080B582B000AF0021A0
:1024C0000120FEF751FC002200210120FEF7DDFD76
:1024D00000213A48FEF710FE0023BB713AE0BB79B9
:1024E000002B09D1002200210220FEF7CEFD0021A1
:1024F0003348FEF701FE15E0BB79012B09D100221C
:1025000000210320FEF7C1FD00212E48FEF7F4FD57
:1025100008E0002200210420FEF7B7FD00212A4830
:10252000FEF7EAFDFEF730FB0346FB7103E0FEF722
:102530002BFB0346FB71FB79412BF8D0BB79234978
:10254000FA79CA54FB7900211846FEF711FDBB79D0
:102550000133BB71BB79022BC1D900210120FEF7E9
:1025600003FC00211A48FEF7C7FD002200210220CB
:10257000FEF78BFD154B1B7800211846FEF7F8FC83
:10258000002202210220FEF780FD104B5B78002123
:102590001846FEF7EDFC002204210220FEF775FD2F
:1025A0000A4B9B7800211846FEF7E2FC6420FFF7F7
:1025B00093F900BF0837BD4680BD00BF94480008AE
:1025C000A0480008AC480008B848000828000020CF
:1025D000C448000880B586B000AF7860144A154B37
:1025E000D31A7B617B693B61134B1B68002B02D1C3
:1025F000114B124A1A60104B1A687B6813443A69EF
:102600009A4207D200F078FB02460C2313604FF089
:10261000FF3309E0084B1B68FB60074B1A687B68B7
:102620001344054A1360FB6818461837BD4680BD41
:1026300000280020000400002C02002020060020BA
:102640000D488546AFF300800C480D490D4A002324
:1026500002E0D458C4500433C4188C42F9D30A4A57
:102660000A4C002301E013600432A242FBD300F0C5
:1026700049FBFFF7E9FBFEE70028002000000020EF
:1026800000020020104B000800020020200600205D
:10269000FEE780B400AFFEE780B400AFFEE780B491
:1026A00000AFFEE780B400AFFEE71EF0040F0CBFE2
:1026B000EFF30880EFF3098000F02AB900BF0000B3
:1026C00080B400AF044B5B68034A43F0805353600F
:1026D00000BFBD4680BC704700ED00E080B500AF94
:1026E000074B1B7883F00103DAB2054B1A7000F038
:1026F0003DFA00F0BBF8FFF7E3FF00BF80BD00BF6D
:102700003002002080B483B000AF0023FB710023AF
:10271000BB71214BD3F89C317B710023FB7130E0FE
:102720000023BB7123E0BB791B4A52F823301A798E
:10273000BB790133184951F823301B799A4213D9D8
:10274000BB79154A52F823303B60BB795A1CBB79E0
:10275000114951F82220104941F82320BB79013357
:102760000D493A6841F82320BB790133BB71BA792E
:102770007979FB79CB1A013B9A42D4DBFB7901339F
:10278000FB71FA797B79013B9A42C9DB00BF0C37B8
:10279000BD4680BC704700BF7004002080B584B087
:1027A00000AF0023FB6000233B60FFF7ABFF00BFDF
:1027B0003B4619462B4800F061FA0346022BF7D13D
:1027C00044E0294AFB6852F82330BB60FB680133C0
:1027D000254A52F823307B60BB6893F83A30002BCF
:1027E00031D07B6893F83A30002B08D1B9681D4886
:1027F00000F002FABB68032283F83A202EE0BB689F
:102800001A797B681B799A4208D2B968154800F09A
:10281000F3F9BB68032283F83A201FE0BB681A79FA
:102820007B681B799A4208D1B9680E4800F0E4F938
:10283000BB68032283F83A2005E0BB681A797B68FD
:102840001B799A4209D8FB680133FB60064BD3F829
:102850009C21FB689A42B4D800E000BF00BF10374B
:10286000BD4680BDC80200207004002080B500AFC6
:10287000244B1B68002B1AD1234BD3F8A03193F8BB
:102880003A30002B13D0204BD3F8A031012283F82B
:102890003A201D4BD3F8A03119461A4800F0ACF984
:1028A000194BD3F8A031184AC2F8A43127E01749D0
:1028B000144800F0E3F9144BD3F8A431012283F853
:1028C0003A20114BD3F8A0311A790F4BD3F8A43129
:1028D0001B799A4213D10C4BD3F8A03193F83A30BC
:1028E000002B0CD0084BD3F8A0311946054800F056
:1028F00083F9054BD3F8A031032283F83A2000BFB7
:1029000080BD00BFC8020020700400201406002013
:1029100080B584B000AF78607B6818331B68023BD9
:102920001B78FB73FB7B002B20DB012B02DD022BD2
:1029300017D01BE0FFF732FF0E4B93F8A831012BA5
:1029400012D10C4BD3F8A0311C330B491846FDF7BC
:102950000FFC0346002B07D0FFF788FFFFF7B0FE00
:1029600002E0FFF71BFF00E000BF00BF00BF103711
:10297000BD4680BD70040020D44800086E4BD3F8DB
:10298000A031EFF309829A616B4BD3F8A0319A69B9
:10299000043A9A61684BD3F8A0319B6922461A60C9
:1029A000654BD3F8A0319A69043A9A61624BD3F827
:1029B000A0319B692A461A605F4BD3F8A0319A690F
:1029C000043A9A615C4BD3F8A0319B6932461A6095
:1029D000594BD3F8A0319A69043A9A61564BD3F80F
:1029E000A0319B693A461A60534BD3F8A0319A69DB
:1029F000043A9A61504BD3F8A0319B6942461A6061
:102A00004D4BD3F8A0319A69043A9A614A4BD3F8F6
:102A1000A0319B694A461A60474BD3F8A0319A69A6
:102A2000043A9A61444BD3F8A0319B6952461A602C
:102A3000414BD3F8A0319A69043A9A613E4BD3F8DE
:102A4000A0319B695A461A603B4BD3F8A431002B46
:102A500009D0394BD3F8A431374AC2F8A031364BEC
:102A60000022C3F8A421344BD3F8A0319B691B6822
:102A70009B46314BD3F8A0319A6904329A612E4BB0
:102A8000D3F8A0319B691B689A462B4BD3F8A03131
:102A90009A6904329A61284BD3F8A0319B691B686C
:102AA0009946254BD3F8A0319A6904329A61224B9A
:102AB000D3F8A0319B691B6898461F4BD3F8A0310F
:102AC0009A6904329A611C4BD3F8A0319B691B6848
:102AD0001F46194BD3F8A0319A6904329A61164BFC
:102AE000D3F8A0319B691B681E46134BD3F8A03165
:102AF0009A6904329A61104BD3F8A0319B691B6824
:102B00001D460D4BD3F8A0319A6904329A610A4BE5
:102B1000D3F8A0319B691B681C46074BD3F8A03142
:102B20009A6904329A61044BD3F8A0319B6983F30C
:102B30000988704700BF00BF7004002080B483B0D4
:102B400000AF0346FB71FB79012B06D0022B06D0A8
:102B5000002B00D005E000DF03E001DF01E002DF31
:102B600000BF00BF0C37BD4680BC704780B582B047
:102B700000AF00237B6000237B6031E01D4A7B684F
:102B800052F8233093F83A30002B26D1194A7B684B
:102B900052F8233093F83C30002B1ED1154A7B6845
:102BA00052F823301A6C013A1A64124A7B6852F8C0
:102BB00023301B6C002B10D10E4A7B6852F8233057
:102BC000012283F83C200B4A7B6852F82330022212
:102BD00083F83A200220FFF7B1FF7B6801337B6066
:102BE000044BD3F89C217B689A42C7D800BF0837B2
:102BF000BD4680BD7004002080B483B000AF786013
:102C000039607B68DB68002B03D07B681B69002B75
:102C100001D103232DE07B685A687B689B689A4248
:102C200007D17B681A687B681B699A4201D101232E
:102C30001FE07B689B683A681A607B681B685A1CB7
:102C40007B681A607B689B687A68D26811467A68EC
:102C5000126992000A44043A934204D17B68DA680C
:102C60007B689A6004E07B689B681A1D7B689A60A9
:102C7000002318460C37BD4680BC704780B483B033
:102C800000AF786039607B68DB68002B03D07B681D
:102C90001B69002B01D1032328E07B685A687B68FD
:102CA0009B689A4201D1022320E07B685B681A6826
:102CB0003B681A607B681B685A1E7B681A607B68D9
:102CC0005B687A68D26811467A68126992000A4491
:102CD000043A934204D17B68DA687B685A6004E066
:102CE0007B685B681A1D7B685A60002318460C37A6
:102CF000BD4680BC70470000014B1868704700BF9C
:102D00003000002070B500250C4E0D4CA41BA41003
:102D1000A54209D101F03CFD00250A4E0A4CA41B36
:102D2000A410A54205D170BD56F82530984701354D
:102D3000EEE756F8253098470135F2E7084B0008D2
:102D4000084B0008084B00080C4B000803460244DF
:102D5000934200D1704703F8011BF9E7002B2DE9DE
:102D6000F0471E46BBBF03F100431E4600232D2340
:102D700088B0149FDDE9121A27F02007462F144669
:102D8000109D0B7004D0452F00D10135022300E0C7
:102D9000032307AA049206AACDE902A2CDE90035D1
:102DA0002246334600F0A8FB472F804602D1119BF4
:102DB000DB0726D5462F08EB050911D198F800301E
:102DC000302B0AD10022002320463146FDF706FEB3
:102DD00018B9C5F10105CAF80050DAF80030994475
:102DE0000022002320463146FDF7F8FD38B9302295
:102DF000079B4B4505D2591C07911A70F8E7CDF88F
:102E00001C904046079B159AA3EB0803136008B07B
:102E1000BDE8F087F7B50029B4BF2D232B23044666
:102E2000B8BF4942092904F8022B437021DD0DF196
:102E300007031F460A2691FBF6F506FB1511092D1F
:102E400001F1300103F8011C03F1FF32294609DCCE
:102E50003031023B02F8011CBB42224604D3101A57
:102E600003B0F0BD1346E6E713F8012B04F8012B7D
:102E7000F2E7302319448370021DC170EFE70000B0
:102E80002DE9F04F91B00C461A9F93461E46054619
:102E900001F0E6F8036818460993FDF773F900237B
:102EA0000E933B680A90073323F0070303F10802EF
:102EB00094F81880D4F800A03A60D3E90023C4E95C
:102EC0001223D4E9127929F000430B934FF0FF321B
:102ED000A64B38460B99FDF7B3FD68BB4FF0FF32A8
:102EE000A24B38460B99FDF78DFD28BB002200232D
:102EF00038464946FDF77CFD10B12D2384F8433058
:102F00009B4F9C4BB8F1470F98BF1F4603234FF0D0
:102F1000000923612AF00403236000965B460FAA90
:102F20002146284600F0E2F9013040F090804FF051
:102F3000FF3011B0BDE8F08F3A464B46384649465F
:102F4000FDF77EFD10B18C4F8C4BDBE763684AF4D4
:102F50008062591C0DA80EA940D1062363604FF072
:102F6000000C0DF13303CDE9012363682260CDE944
:102F7000030800933A464B46CDE9051C2846FFF767
:102F8000EDFE08F0DF03472B074609D10D9BD81C47
:102F900002DB6268934247DDA8F102085FFA88F815
:102FA000B8F1650F0D9924D80139424604F150005B
:102FB0000D91FFF72FFF0E9A81461318012A236106
:102FC00002DC2268D10701D5013323619DF833303B
:102FD000002BA2D02D2384F843309EE7B8F1670F71
:102FE00000F06E81B8F1470FB9D1002BB7D10123A2
:102FF000B4E7B8F1660F19D1002963680CDD2161CF
:1030000013B92268D20702D501330B4423610D9B0B
:103010004FF00009A365D9E713B92268D00701D59D
:103020000233F3E70123F1E74FF06708DDE90D32E2
:10303000934205DB22682361D107E8D50133E5E738
:10304000002BCCBF0123C3F102031344DEE7236846
:103050005A0507D423693A4659462846B0470130F5
:1030600029D164E7B8F1650F40F2D780D4E91201A5
:1030700000220023FDF7B2FC88B30123404A5946E1
:103080002846B04701303FF452AFDDE90D239A42A4
:1030900002DB2368D8070ED5DDE909235946284607
:1030A000B04701303FF443AF002704F11A080E9BEC
:1030B000013BBB4209DC23689F0700F1FD80E0680B
:1030C0000F9B9842B8BF184633E701234246594642
:1030D0002846B04701303FF42AAF0137E7E70D9BA0
:1030E000002B2BDC0123264A59462846B0470130E5
:1030F0003FF41DAF0D9B23B90E9B13B92368D9076D
:10310000D9D5DDE9092359462846B04701303FF4B7
:103110000EAF4FF0000804F11A090D9B5B424345C6
:1031200001DC0E9B97E701234A4659462846B047E3
:1031300001303FF4FCAE08F10108EEE70E9AA36DF2
:103140009A42A8BF1A46002A904607DD1346594600
:103150003A462846B04701303FF4E9AE04F11A037D
:103160004FF0000A28EAE8780B9315E0FFFFEF7FA5
:10317000E1480008DD480008E9480008E548000883
:10318000ED48000801230B9A59462846B047013004
:103190003FF4CDAE0AF1010AD4F85890A9EB080328
:1031A0005345EFDCDDE90D239A424F4414DB2368DD
:1031B000DA0711D40E9B0D99A3EB0902A3EB0109C9
:1031C0009145A8BF9146B9F1000F0DDC002729EA0F
:1031D000E97904F11A0818E0DDE90923594628467F
:1031E000B0470130E6D1A2E64B463A46594628465A
:1031F000B0470130EAD19AE60123424659462846B3
:10320000B04701303FF493AE0137DDE90D239B1A3F
:10321000A3EB0903BB42EFDC4DE70E9A012A01DC68
:10322000DB0738D501233A4659462846B0470130D6
:103230003FF47DAEDDE9092359462846B047013009
:1032400007F101073FF473AED4E912010E9B00228F
:1032500003F1FF380023FDF7C1FBC0B943463A46EE
:1032600059462846B04701300DD160E60123424659
:1032700059462846B04701303FF459AE01370E9BFE
:10328000013BBB42F2DC4B4604F15002E4E600276E
:1032900004F11A08F3E70123E1E701234246594606
:1032A0002846B04701303FF442AE0137E3680F9A39
:1032B0009B1ABB42F1DC02E7002704F11908F5E78D
:1032C000002B3FF494AE4FF0000CCDE9051C0DF13E
:1032D00033012260CDE90308CDE9012100933A468C
:1032E0004B462846FFF73AFD07464FE62DE9F047E3
:1032F00091461F468A680B6906469342B8BF13463B
:10330000C9F8003091F843200C46DDF8208012B156
:103310000133C9F800302368990642BFD9F800305C
:103320000233C9F80030256815F0060507D104F10D
:10333000190AE368D9F800209B1AAB4229DC94F8FB
:1033400043302268003318BF012392062ED404F1C3
:10335000430239463046C047013021D02368E56832
:1033600003F00603042B18BF0025D9F800204FF006
:10337000000908BFAD1AA368226908BF25EAE575F0
:103380009342C4BF9B1AED181A344D451AD1002040
:1033900008E00123524639463046C047013003D188
:1033A0004FF0FF30BDE8F0870135C2E73020E1186B
:1033B00081F843005A1C94F845102244023382F8E5
:1033C0004310C4E70123224639463046C047013046
:1033D000E6D009F10109D8E72DE9F74F03690C6937
:1033E0008046A342C0F28480013C01F1140700F141
:1033F000140657F8245056F824000135B0FBF5F5B3
:103400004FEA840C06EB0C0307EB0C0901939DB308
:103410004FF0000A3846B646D34650F8042B93B214
:1034200005FB03A3120C4FEA134A05FB02A29BB251
:10343000ABEB0303DEF800B04FEA124A1FFA8BFB36
:103440005B441FFA82FBDEF800208145CBEB124281
:1034500002EB23429BB243EA02434FEA224B4EF86F
:10346000043BDAD256F80C3033B9019B043B9E4240
:103470001A4631D3C8F81040404601F027F800281A
:1034800026DB30464FF0000C013557F8041BD0F80E
:1034900000E08BB2ACEB03031FFA8EF213440A0C6C
:1034A000C2EB1E4202EB23429BB243EA0243B94500
:1034B0004FEA224C40F8043BE7D256F8242006EBB2
:1034C00084032AB9043B9E421A460BD3C8F8104025
:1034D000284603B0BDE8F08F1268043B002AC9D12A
:1034E000013CC4E71268043B002AEFD1013CEAE743
:1034F0000020EEE7000000002DE9F04F16461F46C1
:10350000456A95B00446DDF88480CDE902673DB98F
:10351000102000F0B3FD6062C0E901550560C56090
:10352000636A196851B15A68012393404A608B60FD
:10353000204600F0EAFD0022636A1A603B1EAFBF1E
:103540000023012223F000430393ACBFC8F80030EE
:10355000C8F80020AE4BDDF80C8033EA08031BD11D
:1035600042F20F73209A1360029B23B9C8F3130031
:10357000002800F04585229B53B9A64B21E0A64BBD
:1035800006930833229A1360069815B0BDE8F08FB1
:10359000A04B06930333F5E7DDE902670022002321
:1035A00030463946FDF71AFA824660B10123209A67
:1035B0001360229B002B00F02085984B229A136009
:1035C000013B0693E0E712AB019313AB0093324645
:1035D0003B46204600F0F2FFC8F30A558346002D13
:1035E0007DD0B046C7F3130343F07F5949F4401927
:1035F000A5F2FF35CDF840A00022894B4046494650
:10360000FCF7CCFD7CA3D3E90023FCF77FFF7CA370
:10361000D3E90023FCF7C4FD064628460F46FCF715
:103620000BFF79A3D3E90023FCF770FF02460B469A
:1036300030463946FCF7B4FD06460F46FDF716FA4C
:1036400000228246002330463946FDF7D1F948B1C1
:103650005046FCF7F1FE32463B46FDF7BFF908B98C
:103660000AF1FF3ABAF1160F5AD8DDE902236D4983
:1036700001EBCA01D1E90001FDF7D8F9002851D0CA
:1036800000230AF1FF3A0D93129B5D1B6B1E0793FB
:1036900043BF0023C5F1010907934FF00009BAF1B8
:1036A000000F41DB079BCDF830A053440793002364
:1036B00008931E9B092B00F28F80052BC4BF043B8F
:1036C0001E931E9BC8BF0025A3F10203D8BF01258E
:1036D000032B00F28D80DFE803F07B7D2F6FDDE9A7
:1036E00012531D4405F23240202813DDC0F1400082
:1036F000029B08FA00F805F2124023FA00F048EAAB
:103700000000FCF789FE01238046A1F1F879013D14
:10371000109371E7029BC0F1200003FA00F0F0E77C
:103720000123B0E70D90AFE7CAF10003089300232F
:10373000A9EB0A090C93BCE7012309931F9B002BFB
:1037400074DD984604930022666A7260042202F1D6
:103750001400984271686ED9204600F0A2FC636A9A
:1037600030601B68B8F10E0F069300F2ED80002D5B
:1037700000F0EA80DDE90223BAF1000FCDE90E2363
:1037800077DD284A0AF00F034FEA2A1602EBC3033B
:10379000F006D3E90023CDE90A2368D5DDE90E015F
:1037A000214B0325D3E90823FCF7DAFFCDE9020119
:1037B00006F00F061C4F4FE0012309931F9B534453
:1037C00003F1010804934346012BB8BF0123BAE774
:1037D0000023B2E70023F0E70125002309951E939B
:1037E0004FF0FF3300220493984612231F92AAE75A
:1037F00001230993F4E700BF61436F63A787D23FBA
:10380000B3C8608B288AC63FFB799F501344D33FCF
:103810000000F07FF8480008EF480008EE48000874
:103820000000F83F284900080049000801230493DC
:1038300098461A46DAE701317160520087E7F107CE
:1038400008D5DDE90A01D7E90023FCF75FFECDE9E1
:103850000A01013576100837002EF0D1DDE90A2380
:10386000DDE90201FCF77CFFCDE902011BE0022546
:10387000A0E700F0A480DDE90E01CAF10006A04B2C
:1038800006F00F0203EBC203D3E90023FCF73EFE70
:1038900002250023CDE902019A4F3611002E40F097
:1038A0008380002BE0D10D9B002B00F08A80DDE9A6
:1038B0000223CDE90A23DDE90A010022924BFDF73C
:1038C00097F800287DD0B8F1000F7AD0049B002B28
:1038D00036DDDDE90A0100228C4BFCF717FECDE94D
:1038E0000201049E0AF1FF3701352846FCF7A4FDCA
:1038F000DDE90223FCF70AFE0022854BFCF750FCB1
:10390000A1F15075CDE90A010B95002E5CD1DDE9DE
:10391000020100227F4BFCF741FC0A9A2B46CDE9BD
:103920000201FDF783F8002840F08182DDE9020101
:103930000A9A05F10043FDF75BF8002840F0758214
:10394000DDE90E23CDE90223139B002BC0F24B814E
:10395000BAF10E0F00F34781694B03EBCA03D3E9B9
:103960000023CDE904231F9B002B80F2D780B8F100
:10397000000F00F3D38040F05782DDE904010022FC
:10398000644BFCF7C3FDDDE90223FDF745F846462D
:103990004746002840F02D82069B069A5D1C312385
:1039A0000AF1010A137028E2F20705D5D7E90023CE
:1039B000FCF7ACFD01230135761008376EE70225D0
:1039C00071E75746464690E74D4B03EBC60353E974
:1039D0000201099B002B48D002460B4600204E49AD
:1039E000FCF7BEFEDDE90A23FCF7D8FBCDE90A01AE
:1039F000069DDDE90201FDF739F81190FCF71CFD89
:103A000002460B46DDE90201FCF7C8FB119BCDE93C
:103A10000201303305F8013BDDE90A23FCF7E8FF3A
:103A2000002863D1DDE9022300203749FCF7B6FB0B
:103A3000DDE90A23FCF7DCFF002840F0B580069B97
:103A4000EB1A9E427FF77CAFDDE90A0100222F4B83
:103A5000FCF75CFD0022CDE90A01DDE902012B4BF8
:103A6000FCF754FDCDE90201C3E7DDE90A23FCF7C9
:103A70004DFD069BCDE90A019D191E46DDE90201B7
:103A8000FCF7F4FF1190FCF7D7FC02460B46DDE98A
:103A90000201FCF783FB119BCDE90201303306F8EC
:103AA000013BAE424FF0000224D1DDE90A011A4B7E
:103AB000FCF776FB02460B46DDE90201FCF7B6FF98
:103AC000002871D1DDE90A2300201349FCF766FBC9
:103AD00002460B46DDE90201FCF78AFF00283FF4AD
:103AE0002FAF15F8013C6A1E302B01D0BA464AE0D0
:103AF0001546F6E7054BFCF709FDCDE90201BDE7E8
:103B000028490008004900080000F03F0000244058
:103B100000001C40000014400000E03F069DDDE96D
:103B20000267DDE9042330463946FCF719FEFCF74D
:103B30009DFF8146FCF780FCDDE90423FCF7E6FCF1
:103B400002460B4630463946FCF728FB09F13006A1
:103B500005F8016B069E0246AE1BB0450B4635D1FB
:103B6000FCF71EFBDDE9042306460F46FCF75EFF6B
:103B7000C8B9DDE9042330463946FCF72FFF10B100
:103B800019F0010F0FD15946204600F0BEFA00236C
:103B9000209A2B700AF101031360229B002B3FF443
:103BA000F3AC1D60F0E4574615F8012C6B1E392A62
:103BB00006D1069A9A4207D1302313701346013773
:103BC0001A7801321A7091E71D46EDE70022994BF1
:103BD000FCF79CFC0022002306460F46FCF7FEFE85
:103BE00000289ED0CFE7099A002A00F088801E9A0C
:103BF000012A6DDC109A002A66D003F233434D4649
:103C0000089E079A01211A4420469944079200F021
:103C10001CFB0746002D0BDD079B002B08DDAB428C
:103C2000A8BF2B46079AA9EB0309ED1AD31A0793ED
:103C3000089BEBB1099B002B65D08EB1394632460B
:103C4000204600F0A1FB5A4601460746204600F0F8
:103C500005FB59460A90204600F057FA0A9B9B46FE
:103C6000089B9A1B04D05946204600F08DFB8346E2
:103C70000121204600F0E9FA0C9B0646002B00F0DB
:103C8000C6811A460146204600F07EFB1E9B064672
:103C9000012B3EDC029B002B37D1039BC3F31303A4
:103CA000002B34D1039B23F000431B0D1B052BB1CC
:103CB000079B09F1010901330793012308930C9B2A
:103CC000002B28D101202EE0129BC3F1360396E78A
:103CD000089B08F1FF36B342B7BF089B9E1BF21A40
:103CE0000C9BBFBF08969B180C930026B8F1000FE1
:103CF000B9BFA9EB080500234D46434681E7089E5E
:103D00004D46099F86E7089AADE70023D6E7029B58
:103D1000D4E700230893336906EB8303186900F0A6
:103D200046FAC0F12000079B184410F01F0047D04E
:103D3000C0F12003042B3BDD079BC0F11C00814434
:103D4000054403440793B9F1000F05DD59464A467F
:103D5000204600F067FB8346079B002B05DD3146BC
:103D60001A46204600F05EFB06460D9B53B33146D3
:103D7000584600F0ABFB002824DA002359460A22FB
:103D8000204600F0D9F9099B0AF1FF3A8346002B3F
:103D900000F04481002339460A22204600F0CCF985
:103DA000049B0746002B4DDC1E9B022B4ADD11E0D5
:103DB000C9D0079A1C331A4499441D441346C1E7DD
:103DC0000346F6E7B8F1000F36DC1E9B022B33DD0D
:103DD000CDF81080049B63B931460522204600F0DF
:103DE000ABF901460646584600F070FB00283FF745
:103DF000D3AD1F9B069D6FEA030A4FF000093146C1
:103E0000204600F082F9002F3FF4BDAEB9F1000F5B
:103E100005D0B94503D04946204600F076F9394629
:103E2000204600F072F9AEE600263746E1E7BA46D2
:103E30003746B1E500002440099BCDF81080002BE7
:103E400000F0F380002D05DD39462A46204600F0BB
:103E5000E9FA0746089B002B4CD07968204600F011
:103E600020F905463A6907F10C01023292000C3044
:103E700000F00CF901222946204600F0D3FAB94699
:103E80000746069B0793029B03F001030893314604
:103E90005846FFF7A1FA4946054600F13008584652
:103EA00000F014FB3A4602903146204600F028FB11
:103EB000C368024603BB01460990584600F006FB62
:103EC0000346099A11462046099300F01EF9099B02
:103ED000A3B91E9A92B9089A82B9B8F1390F29D0BC
:103EE000029B002B01DD05F13108079B5D1C83F867
:103EF000008084E73846C2E70123E3E7029A002AFC
:103F000004DB23D11E9A0ABB089AFAB9002BECDD18
:103F100059460122204600F085FA3146834600F0DA
:103F2000D5FA002803DCE0D118F0010FDDD0B8F19C
:103F3000390FD8D1079B079A5D1C3923137015F8E8
:103F4000013C6A1E392B4DD0013352E0079A002BF9
:103F500002F1010506DDB8F1390FEBD008F10108D7
:103F6000079BC4E7069B049AEB1A934205F8018C61
:103F700021D0594600230A22204600F0DDF8B94539
:103F800083464FF000034FF00A024946204605D110
:103F900000F0D2F881460746079578E700F0CCF8A4
:103FA0003946814600230A22204600F0C5F807461C
:103FB000F2E74FF0000959460122204600F032FA9C
:103FC0003146834600F082FA0028B8DC02D118F0AE
:103FD000010FB4D115F8013C6A1E302B7FF40FAFEE
:103FE0001546F7E7069B934205D13123069A0AF15D
:103FF000010A137003E71546A1E7174BFFF7E1BA73
:10400000229B002B7FF4BBAA144BFFF7DABA1E9B4E
:10401000012B7FF73FAE0C9B089353E6049B002BCC
:1040200003DC1E9B022B3FF7D5AE069D314658465A
:10403000FFF7D2F9069B00F1300805F8018B049ACE
:10404000EB1A9A42B5DD594600230A22204600F0B9
:1040500073F88346EAE700BFED480008EF48000820
:10406000044B1B68186A044B002808BF1846F03040
:10407000704700BF3000002094000020024B014632
:10408000186800F0F9BA00BF3000002010B5431ED8
:104090000A44914200D110BD11F8014B03F8014FC1
:1040A000F7E770B5456A04460E463DB91020FFF7A4
:1040B000E5FF6062C0E901550560C560656AEB68AF
:1040C00083B1636ADB6853F82600B8B9012101FAAD
:1040D00006F56A1D9200204600F0BFFA60B1C0E903
:1040E00001650EE021220421204600F0B6FA636A41
:1040F000E860DB68002BE4D1002070BD026843F863
:1041000026200023C0E90333F7E770B5446A06466A
:104110000D463CB91020FFF7B1FF7062C0E90144C1
:104120000460C4603DB1736A6A68DB6853F82210AA
:10413000296043F8225070BD2DE9F0411F46064624
:104140000C4600230D6901F1140CDCF8000001336A
:1041500081B202FB0171000C0F0C02FB007089B2EE
:1041600001EB00419D424FEA10474CF8041BECDC88
:10417000D7B1A368AB4212DC616830460131FFF76A
:1041800090FF8046226904F10C01023292000C304B
:10419000FFF77CFF21463046FFF7B7FF444604EBAC
:1041A000850301355F6125612046BDE8F081020C81
:1041B00012040346B2B90304102013F07F4F04BF6A
:1041C0001B02083013F0704F04BF1B01043013F0C2
:1041D000404F04BF9B000230002B06DB5B0003D581
:1041E000013070470020E8E720207047036801464F
:1041F00013F007020BD0DA0723D4980749BF5B08F6
:104200009B0801200B605CBF0B600220704798B2D6
:10421000A8B910201B0C13F0FF0F04BF1B0A0830B5
:104220001A0704BF1B0904309A0704BF9B08023019
:10423000DA0702D45B0806D001300B6070471046E5
:10424000E9E7002070472020704710B50C46012197
:10425000FFF727FF01224461026110BD2DE9F74FEE
:1042600014460A69236988469A42BEBF0B46A04697
:104270001C46D8F81070D4F81090D8F80830D8F848
:10428000041007EB0906B342B8BF0131FFF709FF7D
:1042900000F114052B46002205EB860E734516D35C
:1042A00004F1140208F1140102EB890301EB870702
:1042B0000093009B019293420CD8002E03DD5EF820
:1042C000043D002B5DD0066103B0BDE8F08F43F8DC
:1042D000042BE3E7B2F800B0BBF1000F23D089460E
:1042E000AC464FF0000859F8044BDCF800A0A3B22C
:1042F0001FFA8AFA0BFB03A34FEA144ADCF80040CA
:1043000043444FEA14480BFB0A84E24604EB13448F
:104310009BB243EA04434F454FEA14484AF8043B32
:104320002BD8CCF80480019B0432B3F802A0BAF178
:10433000000F20D08946A8464FF0000B2B68B9F833
:1043400000C0B8F802409BB20AFB0C44C4465C446F
:1043500043EA04434CF8043B59F8043BB8F804B072
:104360001B0C0AFB03B34F4503EB14434FEA134BFB
:1043700005D8C8F8043004359BE7D446B3E7E046D7
:10438000DDE7013E99E700002DE9F843154612F0FC
:10439000030206460F4607D0214C013A002354F889
:1043A0002220FFF7C9FE0746AD1035D0746A3CB92C
:1043B0001020FFF763FE7062C0E901440460C4602E
:1043C000D6F82480D8F808404CB940F27121304624
:1043D000FFF73BFF00230446C8F8080003604FF0D6
:1043E0000008EB070AD5394622463046FFF736FF6C
:1043F000814639463046FFF788FE4F466D100BD098
:10440000206838B9224621463046FFF727FF206052
:10441000C0F800800446E4E73846BDE8F88300BFF2
:10442000F04900082DE9F0470C4607461646236977
:104430004FEA621A0AEB03094968A36809F101050A
:10444000AB4232DB3846FFF72CFE002380461A468B
:1044500000F1140153452BDB20692AEAEA7A04F1C2
:10446000140316F01F0201EB8A0103EB800C25D028
:104470000020C2F1200E8A461E68964030434AF85A
:10448000040B53F8040B9C4520FA0EF014D8486036
:1044900008B109F10205013D3846C8F8105021461F
:1044A000FFF733FE4046BDE8F08701315B00C7E708
:1044B00041F823200133CDE75146DCE7043953F8B6
:1044C000042B9C4541F8042FF9D8E4E703690A69F5
:1044D00030B59B1A0CD19200143014318418114459
:1044E00054F8045D51F8042D954203D005D30123FF
:1044F000184630BDA042F3D3FAE74FF0FF33F7E799
:104500002DE9F0470D460746114628461446FFF7A9
:10451000DDFF061E08D131463846FFF7C2FD0123F4
:10452000C0E90436BDE8F087A4BF23462C463846D0
:104530006168A6BF1D4600260126FFF7B2FD4FF0B9
:10454000000EC6602B69266904F1140205F11409F6
:1045500002EB860709EB830800F1140152F804AB63
:1045600059F8045B1FFA8AF37344ACB21B1B2C0C82
:10457000C4EB1A4404EB23449BB24FEA244EC845D3
:1045800043EA0444944641F8044BE7D8BC4504D3BD
:1045900051F8043D83B10661C4E75CF8044BA2B254
:1045A0007244131403EB144392B242EA03424FEAFB
:1045B000234E41F8042BE9E7013EE9E72DE9F341F9
:1045C0001C46DDE9086501219046FFF76AFDC4F34A
:1045D0001302C4F30A54074634BB0192B8F1000237
:1045E00027D002A840F8082DFFF700FE0099F0B18F
:1045F000019AC0F1200302FA03F30B43C2407B612E
:104600000192019B002B14BF02210121BB61396182
:10461000C4B1A4F2334404443460C0F135002860CE
:10462000384602B0BDE8F08142F48012D5E77961E6
:10463000E7E701A8FFF7DAFD0121019B39617B6102
:104640002030E5E7A0F2324007EB810330601869C3
:10465000FFF7ADFDC0EB4110E1E738B502FB01F417
:10466000214600F009F8054618B122460021FEF760
:104670006DFB284638BD000070B5CD1C25F0030544
:1046800008350C2D38BF0C25002D064601DBA9424C
:1046900003D90C233360002070BD00F069F8214A73
:1046A0001468214691B9204C23681BB9304600F0AC
:1046B0003DF820602946304600F038F8431C24D1EC
:1046C0000C233046336000F054F8E4E70B685B1BC2
:1046D00018D40B2B0FD90B60CC18CD50304600F0FE
:1046E00048F804F10B00231D20F00700C31AD3D0B3
:1046F0005A42E250D0E74B688C4216BF63601360A9
:104700000C46EBE70C464968CCE7C41C24F00304D4
:10471000A04205D0211A304600F008F80130CFD071
:104720002560DBE7340200203802002038B5002382
:10473000054C054608462360FDF74CFF431C02D19B
:10474000236803B12B6038BD1C06002082B001B97C
:1047500001A942B14BB113780B601278101C18BF3D
:10476000012002B070471046FBE76FF00100F8E748
:104770007047704749B1FF2A8BBF8A230A700360D4
:10478000012088BF4FF0FF30704708467047000097
:10479000F8B500BFF8BC08BC9E467047F8B500BF2E
:0847A000F8BC08BC9E467047FE
:1047A80000000000010000000300000004000000F9
:1047B8000500000006000000070000000C000D00C6
:1047C8000E000F0050757420796F757220494420CF
:1047D800696E00004361726420526561646572000D
:1047E8005061726B696E672069732046756C6C0046
:1047F800456E747279204E6F74000000416C6C6FC6
:1048080077656400494420697320526967687400B9
:10481800456E7472792067617465206F70656E7378
:1048280000000000457869742067617465206F7026
:10483800656E73005061726B696E67206973200042
:10484800456D70747900000057726F6E6720494497
:104858000000000054727920416761696E00000011
:1048680057656C636F6D6520696E00005445524151
:10487800205061726B696E6700000000456D7074AE
:104888007920536C6F74733D00000000456E7465A9
:1048980072204944730000004669727374204944C9
:1048A8003A0000005365636F6E642049443A000083
:1048B80054686972642049443A00000049447320EE
:1048C80041726520536176656420000069646C65F7
:1048D8005461736B00494E4600696E66004E414E46
:1048E800006E616E003000496E66696E6974790009
:1048F8004E614E00000000000080E03779C341435C
:10490800176E05B5B5B89346F5F93FE9034F384D2D
:10491800321D30F94877825A3CBF737FDD4F1575D9
:10492800000000000000F03F0000000000002440EC
:1049380000000000000059400000000000408F40C7
:10494800000000000088C34000000000006AF84032
:104958000000000080842E4100000000D012634156
:104968000000000084D797410000000065CDCD41CC
:10497800000000205FA00242000000E876483742AD
:10498800000000A2941A6D42000040E59C30A2424B
:104998000000901EC4BCD64200003426F56B0C43C0
:1049A8000080E03779C3414300A0D8855734764367
:1049B80000C84E676DC1AB43003D9160E458E143C8
:1049C800408CB5781DAF154450EFE2D6E41A4B443D
:1049D80092D54D06CFF08044F64AE1C7022DB54482
:1049E800B49DD9794378EA44050000001900000015
:1049F8007D0000004300504F534958002E0000200E
:104A08002020202020202020282828282820202076
:104A18002020202020202020202020202020208826
:104A2800101010101010101010101010101010048A
:104A380004040404040404040410101010101010DA
:104A480041414141414101010101010101010101CE
:104A580001010101010101010101101010101010E4
:104A6800424242424242020202020202020202029E
:104A780002020202020202020202101010102000BA
:104A8800000000000000000000000000000000001E
:104A9800000000000000000000000000000000000E
:104AA80000000000000000000000000000000000FE
:104AB80000000000000000000000000000000000EE
:104AC80000000000000000000000000000000000DE
:104AD80000000000000000000000000000000000CE
:104AE80000000000000000000000000000000000BE
:104AF80000000000000000000000000000000000AE
:044B0800550100084B
:044B0C00310100086B
:104B10000B0005000A000600000C014000080140DF
:104B20000000000000000000010203040506070861
:104B30000000000001020304FFFFFF00FFFFFF333E
:104B40003400002000000000000000000000000011
:104B50000000000000000000000000000000000055
:104B60000000000000000000000000000000000045
:104B70000000000000000000000000000000000035
:104B80000000000000000000000000000000000025
:104B90000000000000000000000000000000000015
:104BA00000000000430000000000000000000000C2
:104BB00000000000000000000000000000000000F5
:104BC00000000000430000000000000000000000A2
:104BD00000000000000000000000000000000000D5
:104BE0000000000043000000000000000000000082
:104BF00000000000000000000000000000000000B5
:104C00000000000043000000000000000000000061
:104C10000000000000000000000000000000000094
:104C20000000000043000000000000000000000041
:104C30000000000000000000000000000000000074
:104C40000000000043000000000000000000000021
:104C50000000000000000000000000000000000054
:104C60000000000043000000000000000000000001
:104C70000000000000000000000000000000000034
:104C800000000000754700084D47000800000000C4
:104C9000064A0008044A0008054A0008054A0008B8
:104CA000054A0008054A0008054A0008054A0008A8
:104CB000054A0008054A0008054A0008FFFFFFFFF3
:104CC000FFFFFFFFFFFFFFFFFFFF00000100415359
:104CD00043494900000000000000000000000000FF
:104CE0000000000000000000000000000000415330
:104CF00043494900000000000000000000000000DF
:104D000000000000000000000000000000000000A3
:040000050800264188
:00000001FF
