:100000000C942D000C94B6140C94B6140C94B614E5
:100010000C94B6140C94B6140C94B6140C94B61438
:100020000C94B6140C94B6140C94B6140C94B61428
:100030000C94B6140C94B6140C94B6140C94B61418
:100040000C94B6140C94B6140C94B6140C94B61408
:100050000C94B61400600062800011241FBECFE52E
:10006000D8E0DEBFCDBFE4E5F0E040E017C0B591D9
:10007000A59135912591059107FD0CC0959185912C
:10008000EF01F92FE82F05900D92A217B307D9F7CA
:10009000FE0104C01D92A217B307E1F7E935F4078A
:0E00A00031F70E94C7130C943B14F894FFCF65
:1000AE0068076C094C836A9074A07AC000806888D7
:0600BE0000846C82008149
:1000C400494E4600696E66004E414E006E616E00F8
:0800D400257500252E3366009E
:0700DC00286E756C6C290011
:0600E300286E696C290083
:1000EA00A3EAB0E0EBE7F0E00C94B7124C01590137
:1000FA00C756DF4F488359836A83C959D040212C98
:10010A00312C6E012BE8C20ED11C85E2782E260115
:10011A0030E8632ECE018D569F4FC456DF4F998328
:10012A008883CC59D0409C0140E8CF55DF4F2883C3
:10013A0039834A83C15AD040C756DF4F4881C959CB
:10014A00D040C656DF4F5881CA59D040C556DF4FF6
:10015A006881CB59D040FA01849167FD8081882358
:10016A0009F4C9C3CF57DF4F19821882C158D0404A
:10017A008FEF9FEFCD57DF4F99838883C358D040C5
:10018A00CB57DF4F19821882C558D040A1E0B0E0A2
:10019A00AC0FBD1FC957DF4FB983A883C758D040DA
:1001AA00E0E8F0E0C757DF4FF983E883C958D04049
:1001BA00CA01A62FE12CF12CFC012491A7FD208174
:1001CA0021111BC0E114F10401F19701C4010E943D
:1001DA005411C756DF4F88819981AA81C959D040E5
:1001EA008E0D9F1DA11DF7FCAA95C756DF4F888368
:1001FA009983AA83C959D04008C00196A11D253206
:10020A0009F3FFEFEF1AFF0AD7CFC756DF4F8881EE
:10021A009981AA81C959D040FC012491A7FD208166
:10022A00253209F056C39C014A2F2F5F3F4F4F4F8B
:10023A00C256DF4F288339834A83CE59D040C756E6
:10024A00DF4F288339834A83C959D040C756DF4FC5
:10025A0088819981AA81C959D040FC012491A7FDBE
:10026A0020812B3241F4CF57DF4F28813981C15881
:10027A00D04024600BC02C32CCF02D3259F5CF5728
:10028A00DF4F28813981C158D0402160CF57DF4FD5
:10029A0039832883C158D0400196A11DC756DF4F24
:1002AA0088839983AA83C959D040D0CF203241F498
:1002BA00CF57DF4F28813981C158D0402860E6CF17
:1002CA00233291F4CF57DF4F28813981C158D0406A
:1002DA002061DCCF203341F4CF57DF4F28813981A9
:1002EA00C158D0402260D2CF2A3299F50196A11D79
:1002FA00C756DF4F88839983AA83C959D040D5014D
:10030A00ED91FC911197CF0102968D939C93808178
:10031A009181CB57DF4F99838883C558D04097FF87
:10032A003EC0CF57DF4F28813981C158D040B1E054
:10033A002B27CF57DF4F39832883C158D040919557
:10034A0081959109CB57DF4F99838883C558D0404F
:10035A0026C0BC018A2F0E940C11CB57DF4F99830C
:10036A008883C558D040C756DF4F288139814A81D2
:10037A00C959D040F901849147FD8081082E000CAB
:10038A00990BC0970A9758F42F5F3F4F4F4FC756A4
:10039A00DF4F288339834A83C959D040E4CFCF57E6
:1003AA00DF4F88819981C158D04080FF07C08D7F77
:1003BA00CF57DF4F99838883C158D040C756DF4F44
:1003CA0088819981AA81C959D040FC012491A7FD4D
:1003DA0020812E3209F058C0CD57DF4F198218827A
:1003EA00C358D0409C014A2F2F5F3F4F4F4FC756EB
:1003FA00DF4F288339834A83C959D040F901549180
:10040A0047FD50815A32D1F40296A11DC756DF4FDB
:10041A0088839983AA83C959D040D501ED91FC916B
:10042A001197CF0102968D939C9380819181CD572C
:10043A00DF4F99838883C358D04026C0842FB901DF
:10044A000E940C11CD57DF4F99838883C358D0403F
:10045A00C756DF4F288139814A81C959D040F901ED
:10046A00849147FD8081082E000C990BC0970A974A
:10047A0058F42F5F3F4F4F4FC756DF4F28833983BA
:10048A004A83C959D040E4CFCE0187569F4F0E9474
:10049A007410182FC756DF4F2881C959D040C65645
:1004AA00DF4F8881CA59D040C556DF4F9881CB5952
:1004BA00D040E22FF82F849197FD8081082E000CFE
:1004CA00990B0E9461148936910509F45AC0B4F453
:1004DA008336910509F466C144F48532910509F41D
:1004EA00A1C18136910529F1B3C18436910509F478
:1004FA0048C0883691050CF42DC1AAC180379105F0
:10050A0009F4CBC04CF48E36910509F419C18F3623
:10051A00910509F47CC09CC18537910509F454C042
:10052A008837910509F496C08337910509F090C17F
:10053A0058C1612F70E0A501C6010E945C12892B87
:10054A0009F4B7C1C756DF4F88819981AA81C95971
:10055A00D0409C014A2F2F5F3F4F4F4FC756DF4F66
:10056A00288339834A83C959D040FC012491A7FDC5
:10057A002081A601BE016F577F4FC4010E94B014AB
:10058A0095C1612F70E0950141E050E0C6010E94DB
:10059A00E209892B09F48DC1C756DF4F88819981F9
:1005AA00AA81C959D0400196A11DC756DF4F888339
:1005BA009983AA83C959D040A601BE016F577F4FBC
:1005CA00C4010E94230972C1612F70E0950140E0C5
:1005DA0050E0C6010E94E209892B09F46AC1C75694
:1005EA00DF4F88819981AA81C959D0400196A11DFE
:1005FA00C756DF4F88839983AA83C959D040A60179
:10060A00BE016F577F4FC4010E94790F4FC1612FFE
:10061A0070E0950140E050E0C6010E94E209892B92
:10062A0009F447C1C756DF4F88819981AA81C95900
:10063A00D0400196A11DC756DF4F88839983AA83AC
:10064A00C959D040A601BE016F577F4FC4010E940D
:10065A00D90D2CC1612F70E0950140E050E0C60130
:10066A000E94E209892B09F424C1C756DF4F888109
:10067A009981AA81C959D0409C014A2F2F5F3F4FC7
:10068A004F4FC756DF4F288339834A83C959D04011
:10069A00FC012491A7FD20814BC0950140E050E068
:1006AA0060EF70E0C6010E94E209892B09F401C1DA
:1006BA00C756DF4F88819981AA81C959D0400196CE
:1006CA00A11DC756DF4F88839983AA83C959D04091
:1006DA0086E023EE30E040E0F901DE01AD56BF4F7F
:1006EA00742F0E94F213D6012C9111963C91119706
:1006FA0012964C91129713965C91139714966C91DB
:10070A00149715967C91159716968C9116971796AD
:10071A009C91A0E00E94231451F400E010E0CF5510
:10072A00DF4F288139814A81C15AD040B9C028E7B0
:10073A00A601BE016F577F4FC4010E94E307B6C0EE
:10074A00612F70E09501A1014E0D5F1DC6010E9447
:10075A006D0DAFC0612F70E0A501C6010E945C1249
:10076A00892B09F4A6C0C756DF4F88819981AA81CF
:10077A00C959D0409C014A2F2F5F3F4F4F4FC75650
:10078A00DF4F288339834A83C959D040FC01249119
:10079A00A7FD2081A601BE016F577F4FC4010E94A9
:1007AA00860484C0103809F084C0C756DF4F888198
:1007BA009981AA81C959D0400196A11DC756DF4F18
:1007CA0088839983AA83C959D040D501ED91FC91B8
:1007DA001197CF0102968D939C938081F6018083B5
:1007EA005BC0103809F065C0C756DF4F8881998110
:1007FA00AA81C959D0400196A11DC756DF4F8883E7
:10080A009983AA83C959D040D501ED91FC911197DA
:10081A00CF0103968D939C9320813181428100E020
:10082A0010E03EC0103809F044C0C756DF4F888137
:10083A009981AA81C959D0400196A11DC756DF4F97
:10084A0088839983AA83C959D040F601708224C04B
:10085A00D6017C92C256DF4F288139814A81CE590E
:10086A00D040C756DF4F288339834A83C959D040BD
:10087A00CF57DF4F19821882C158D040CB57DF4F6C
:10088A0019821882C558D0408FEF9FEFCD57DF4F9E
:10089A0099838883C358D04001E010E0462D920125
:1008AA00BE016F577F4FC4010E94140F8E0D9F1D0A
:1008BA0011C0C756DF4F88819981AA81C959D04092
:1008CA000196A11DC756DF4F88839983AA83C95908
:1008DA00D040C7017101E80EF91EE214F3044CF48A
:1008EA008FE490E090936100809360008FEF9FEF18
:1008FA0003C0170121CCC101CD55DF4FE2E10C94B1
:02090A00D31206
:10090C00A6E2B0E0ECE8F4E00C94B7129F8F8E8F67
:10091C00798F688F122FFB010190F081E02DFA87FF
:10092C00E987FB01C280D380248135813C8B2B8BE2
:10093C008085918599A388A30680F781E02DFA83A1
:10094C00E983FA0180809180A280B38020E030E0BE
:10095C00A901C501B4010E94921487FF06C0B7FA21
:10096C00B094B7F8B0948DE204C0F985F2FF0CC3D3
:10097C008BE2E981FA8180832B893C8921503109F2
:10098C0038872F8341E050E05A8B498B06C08B8906
:10099C009C8998878F831A8A198AD501C401BF77DD
:1009AC000097E0E8AE07EFE7BE07D9F4212F110F4F
:1009BC00330B2154310989819A8149895A89840FD1
:1009CC00951F2A31310520F444EC50E060E003C05F
:1009DC0048EC50E060E00E94D61368EC70E080E0D8
:1009EC001EC00197A048BF4730F1212F110F330BC8
:1009FC002154310989819A8149895A89840F951F1B
:100A0C002A31310520F44CEC50E060E003C040ED9D
:100A1C0050E060E00E94D61360ED70E080E00E9430
:100A2C001F13E981FA81AF0160E8E984FA840B892C
:100A3C001C899C01A1C220E030E0A901C501B401D0
:100A4C000E9492141B821C82882309F467C0F0E870
:100A5C00FD832FE32E83212C312C20E030E040E26B
:100A6C0051E46B817C818D819E810E94AC14F62EA9
:100A7C00072F8D879B87A50194010E949714181648
:100A8C0054F03FEF231A330AFB820C834D854D83C0
:100A9C005B855E83E2CF1C861B862B813C814D815E
:100AAC005E81C501B4010E94921487FF3DC084EDA4
:100ABC0028168EEF380604F5EB85FC85EF2BE1F458
:100ACC0020E030E040E85AE5C501B4010E94AC14C6
:100ADC004B015C0120E030E040E85AE56B817C8101
:100AEC008D819E810E94AC146B837C838D839E834D
:100AFC0021E030E03C872B8720E030E040E251E4FD
:100B0C006B817C818D819E810E94A8146B837C8378
:100B1C008D839E8331E0231A3108BFCF40E84D838B
:100B2C005FE35E83212C312C812F110F990B9BA33A
:100B3C008AA30E9461148B8FD7FC03C0DEA2CDA2C6
:100B4C0004C0E6E0F0E0FEA3EDA3FB8DF73641F424
:100B5C00CD2809F01EC221E030E03EA32DA319C21E
:100B6C008B8D8D8B04C037FE25C296E69D8BEDA137
:100B7C00FEA13196FEA3EDA3FD89F63699F437FE5E
:100B8C0008C01B821C8220E82D833FE33E83212C6E
:100B9C00312C4B8D473631F08DA19EA1820D931DCA
:100BAC009EA38DA39B819B87EC81ED87FD81FE8BA2
:100BBC002E812A8F750164011D8E1C8E8C8D9D8D4E
:100BCC00EDA1FEA18E179F07C1F12B853D854E89A6
:100BDC005A8DC701B6010E94A8140E94DE0B2B018E
:100BEC003C010E9470146CA38701760117FB1095D1
:100BFC0017F910952B853D854E895A8DC301B2018D
:100C0C000E94400B6B017C01F7FAF094F7F8F0941A
:100C1C0020E030E040E251E46B857D858E899A8D31
:100C2C000E94A8146B877D878E8B9A8F4C8D5D8D5F
:100C3C004F5F5F4F5D8F4C8FC1CF20E030E040EABB
:100C4C0050E46B857D858E899A8D0E94AC142B01A6
:100C5C003C019B01AC01C701B6010E94921487FDB7
:100C6C000BC0A3019201C701B6010E94921481111D
:100C7C0006C0FCA1F0FD03C0412C512C3201A30194
:100C8C009201C501B4010E946A144B015C012D89CB
:100C9C00253611F0310102C0612C712C23014DA1BC
:100CAC005EA1441A550AC988DA8800E010E01C8657
:100CBC001B8689859A85807199279F8B8E8B6414EE
:100CCC00750431F48B859C85892B09F49AC0A6C0D8
:100CDC00DD8ECC8EE88DF98D808591850597C816B3
:100CEC00D90680F72B813C814D815E81C501B40111
:100CFC000E94A8140E94DE0B6D877E878F87988BCD
:100D0C000E947014CB01EE89FF89EF2B69F4892BBB
:100D1C0059F4FB8DF73641F477FE06C098012F5F2E
:100D2C003F4F3D8F2C8F43C04B855C85452BB1F4D9
:100D3C0077FE14C05FEFC51AD50AE981FA818C8D54
:100D4C009D8DE80FF91F9EE29083EF81F885319716
:100D5C00F887EF8321E030E03C872B87E981FA812B
:100D6C00EC0DFD1D1D8F0C8F8C8D9D8D892B49F0ED
:100D7C0030E331934C8D5D8D415051095D8F4C8F1B
:100D8C00F3CFC8018C0D9D1D2F813885201B310B95
:100D9C006C01EFEFCE1ADE0AE981FA81E80FF91F38
:100DAC00605D6083A9014150510958874F838501CB
:100DBC00740117FB109517F910952B813C814D810F
:100DCC005E816D857E858F8598890E94400B4B01D5
:100DDC005C01B7FAB094B7F8B09420E030E040E290
:100DEC0051E46B817C818D819E810E94A8146B8360
:100DFC007C838D839E8351E0651A71080C8D1D8D4B
:100E0C005ECFF985F4FF0AC0E981FA81EC0DFD1D76
:100E1C008EE2808396012F5F3F4F690149815A8191
:100E2C004C0D5D1D5C874B87FA011082FD89F536F0
:100E3C0009F061C0E981FA8128A139A1E20FF31F01
:100E4C003197108237FE06C031942194310801E0AD
:100E5C0010E002C000E010E0E8A1F9A1319749814F
:100E6C005A81E40FF51F22E030E08AE0E82EF12CE5
:100E7C00CF0149815A81841B950B2114310479F0DF
:100E8C00C101B7010E944913805D82931B0121505F
:100E9C0031098F819885019798878F83E9CF121636
:100EAC00130674F3FC013197E40FF51F012B11F4B9
:100EBC002BE201C02DE220830297E981FA81E80F31
:100ECC00F91F2AA13BA1215431092A31310510F017
:100EDC0025E601C025E420832F8138852250310975
:100EEC0038872F83C816D90634F4AF0160E88B8598
:100EFC009C850E94D61349815A813A0180E8882E3C
:100F0C00998591FF2EC090FD2CC0EF81F8851E169F
:100F1C001F063CF5882DB3010E941F1329813A81CD
:100F2C00820F931F9C0149815A81241B350BE9893F
:100F3C00FA892E173F074CF0FC012081EF81F885D0
:100F4C00E80FF91F20830197EDCF4F81588560E39F
:100F5C0070E089819A818E0F9F1F0E944F141C8A0A
:100F6C001B8A882DB3010E941F13E984FA840B8914
:100F7C001C899C01682DA3018E8D9F8D0E94770C7E
:100F8C00A696E2E10C94D312598553FF00CD80E272
:100F9C00F0CC2CEF22162FEF32064CF04DA15EA1B7
:100FAC00241635060CF4DFCD55E65D8BFBCD35E60E
:0A0FBC003D8BF8CD46E64D8BF5CDD8
:100FC600A4E1B0E0E9EEF7E00C94B71298878F83BE
:100FD6007A8369835C8B4B8B122FDB011296ED9122
:100FE600FC91139714962D913C9115973E832D8372
:100FF600ED90FC90119716962D903C901797F7FD63
:1010060003C0E894E1F802C0E1E0F0E0C7018071B6
:1010160099279A878987E4FE1FC0AB89BC892C91E2
:1010260011963C91119712964C91129713965C91DA
:10103600139714966C91149715967C91159716969E
:101046008C91169717969C91A0E00E94231421F08C
:101056008D819E81029702C08D819E8197012870A5
:1010660033273C872B87E3FC0197AB89BC894C90DF
:1010760011965C90119712966C90129713967C902D
:10108600139714968C90149715969C901597169610
:10109600AC9016971796BC90A981BA811896CD90F8
:1010A600DC901997B1E0CB1AD108D101AC0DBD1D6A
:1010B6001C929C838B839F01281B390B3E872D87AF
:1010C600C70182709927988B8F87812F012E000C7C
:1010D600990BDC01A154B109BA8BA98B32E0C31676
:1010E600D10434F489859A85892B09F04CC073C0E4
:1010F6009201A301B401C501A0E00E94231481F16D
:10110600B1E0CB1AD108C2018F7099278A309105B8
:1011160014F4C09602C0895A9F4FE989FA897A97D2
:1011260048F49C012062215631092A31310510F418
:101136000E945814F101EC0DFD1D80832B813C812A
:10114600215031093C832B839201A301B401C501CF
:1011560004E00E947E1229013A014B015C01BECFD8
:101166008D859E85AB81BC818A0F9B1F181619063B
:101176003CF21A161B060CF0B5CFEF85F889EF2B5B
:1011860009F0BECFAFCFAB89BC892C9111963C91AB
:10119600119712964C91129713965C911397149689
:1011A6006C91149715967C91159716968C911697B7
:1011B60017969C91A0E00E94231469F0F101EC0DB2
:1011C600FD1D31971083B2E0CB1AD108F101EC0D69
:1011D600FD1D80E38083EB85FC85EF2B41F0F1E07C
:1011E600CF1AD108F101EC0DFD1D80E28083A981A3
:1011F600BA8118962D913C911997215031092C19D5
:101206003D09C20CD31CA60160E80D811E818F81A9
:1012160098850E94770C9C01EF81F88580819181E9
:1012260090FF09C0A981BA8112968D919C9113975E
:10123600821793070CF4C9016496E2E10C94D31269
:10124600ADE0B0E0E9E2F9E00C94B7129A8789873D
:101256007C836B83FA01DB011296CD90DC901397A9
:1012660014968D919C9115979E838D83ED90FC909D
:101276001197FA82E98216960D90BC91A02DB88737
:10128600AF83208031804280538064807580868061
:1012960097808101B42DF52DE62D7B868C869D8663
:1012A6009101A201B301C401A0E00E9423144CF4F1
:1012B6000E94B7138901B42FF52FE62F7B878C8701
:1012C6009D87D7FC04C0E894E1F8FA82E98291018F
:1012D600A201B301C401A0E0ED80FE800E942314A8
:1012E6001CF0898182FF04C081E0E81AF10805C07C
:1012F60083FF03C091E0E91AF108CE0101965C0173
:101306008AE0C82ED12C2B2F3F2F4E2F5B856C8564
:101316007D858B819C810E949B0AFC019101A20123
:10132600B301C401A0E00E9423141CF0898182FF4E
:1013360012C031970F8118850E0F1F1F9101A20150
:10134600B301C401A0E00E94231414F08BE201C093
:101356008DE2D80108C083FF07C03197AF81B885F9
:10136600AE0FBF1F80E28C93E980FA80AB81BC810F
:1013760018962D913C911997215031092E1B3F0B40
:101386008F819885E80FF91FAF0160E80D811E81F6
:1013960089859A850E94770C9C01A985BA858D91CD
:1013A6009C9190FF07C0EB81FC818281938182171B
:0E13B60093070CF4C9012D96E2E10C94D312BA
:1013C4000F931F93CF93DF93FC01D9016838710504
:1013D40031F194F461387105B1F12CF46038710580
:1013E40009F478C09FC06238710509F459C06438A3
:1013F400710509F46FC096C0603A710509F448C0DC
:101404002CF46039710509F44BC08CC0603C710543
:1014140009F476C0603F710509F472C083C0CD91B0
:10142400DC911197CE0102968D939C93452B39F054
:101434009881892F880F880B908381835BC0888172
:101444008083118268C0CD91DC911197CE010496FE
:101454008D939C93452B99F088819981AA81BB81B6
:10146400AC01BD01770F440B542FBA0180839183E3
:10147400A283B383448345834683478328C008817A
:1014840019812A813B81008311832283338345C0E0
:10149400CD91DC911197CE0102968D939C9323C03C
:1014A400CD91DC911197CE0108968D939C93788110
:1014B40069815A814B813C812D819E818F8170830A
:1014C400618352834383348325839683878381E0B6
:1014D40090E02AC0CD91DC911197CE0102968D93B4
:1014E4009C93452BA1F099812881892F880F880B23
:1014F4002083918382838383848385838683E6CF59
:10150400CD91DC911197CE0102968D939C93088125
:101514001981008311831282138214821582168228
:101524001782D5CF80E090E0DF91CF911F910F918A
:02153400089518
:10153600A2E1B0E0E1EAFAE00C94B712FC010A8BF2
:101546001B832C83732E642E552E462E7D83CC86CC
:10155600D886BF82AE82868197819B878A87D5018E
:101566004D915C91228133818085918501971C0183
:1015760037FF02C021E030E0EA85FB85E80FF91F5E
:1015860010824701E1E0F0E0FA83E983C9018E1990
:101596009F099E878D87DA01A270BB27B88BAF871C
:1015A600B885BB0FBB0BB98B1214130474F0A98159
:1015B600BA81AB2B09F05CC0AE81BF818D919C9145
:1015C60011978F7E8D939C9353C02A893B814C81C2
:1015D600572D662D752D842D9D81A0E00E94231424
:1015E600B1F1E1E02E1A3108FC85F987AF2EB884F7
:1015F600C988DC2CEC2CFC2C0C2D1C2D2A893B815B
:101606004C81572D662D752D842D9D810E94E413E6
:10161600C90129839A83EA85FB85E20DF31D805D66
:10162600808381E0881A91082A893B814C81572D55
:10163600662D752D842D9D810E94E6132A8B3B8392
:101646004C83752E662E572E482E9D83ADCF8D85E5
:101656009E85880D991D181619061CF21814190472
:101666000CF0A5CFEF85F889EF2B09F0BACF9FCF05
:0A167600C1016296E2E10C94D31268
:10168000A5E1B0E0E6E4FBE00C94B7124701580195
:101690000E94AC142B013C01A80197010E946A141E
:1016A000162FC72ED82EF92E862F9C2DAD2DBF2D8F
:1016B00089839A83AB83BC83AA81FB81EC81ED8013
:1016C0003E802F8008850D8B5E2F5F71212F3A2F72
:1016D0004F2F60E070E080E090E02115310541057A
:1016E00000E15007610571058105910509F05EC0B3
:1016F0005E2F6E2D732D822D9D8904E30E947E1234
:101700002D873E874F87588B698B7A8B8B8B9C8B71
:101710008D859E8597708F3F974009F447C0A30140
:101720009201612F7C2D8D2D9F2D0E9469149B01AC
:10173000AC01C501B4010E9492148823B9F1498615
:101740005A866B867C8629853A854B855C85C501E2
:10175000B4010E946A14B62E872E982EA92E262F29
:10176000372F482F592F612F7C2D8D2D9F2D0E94B3
:101770009214811118C02B2D8B2D982DA92DBA2DC7
:1017800089839A83AB83BC833A814B815C816E2DC4
:10179000732D822D9D89A1E00E942F14122FC32E3C
:1017A000D42EF52E03C01B2D6401FA2C612F7C2D45
:0C17B0008D2D9F2D6596E2E10C94D31264
:1017BC004F925F926F927F928F929F92AF92BF9255
:1017CC00CF92DF92EF92FF92CF93DF93CDB7DEB73C
:1017DC0028970FB6F894DEBF0FBECDBF6B017C010E
:1017EC00DC01CB0147E1B695A795979587954A956E
:1017FC00D1F799278F579109873191059CF597FD62
:10180C0036C088248A94982C3FE7A32EB12C04C0B0
:10181C00B594A794979487948A95D2F7D501C4016F
:10182C008C219D21AE21BF21892B8A2B8B2BD1F0B2
:10183C0020E030E040E85BE7C701B6010E946A1483
:10184C006D837E838F839887F7FE04C0C80CD91CE8
:10185C00EA1CFB1C80949094A094B094C820D920CE
:10186C00EA20FB205C2D4D2D3E2D2F2D21C020E09C
:10187C0030E040E85BE7C701B6010E946A14698357
:10188C007A838B839C83F7FE0FC0D701C601880F28
:10189C00991FAA1FBB1F892B8A2B8B2B19F350E086
:1018AC0040E030E82FEB04C050E040E030E020E0B6
:1018BC00652F742F832F922F28960FB6F894DEBFC6
:1018CC000FBECDBFDF91CF91FF90EF90DF90CF9007
:1018DC00BF90AF909F908F907F906F905F904F9044
:0218EC0008955D
:1018EE002F923F924F926F927F928F92AF92BF92B2
:1018FE00CF92DF92EF92FF920F931F93CF93DF93CE
:10190E00CDB7DEB766970FB6F894DEBF0FBECDBF6C
:10191E005C013A01862E6901C701817099279C8B63
:10192E008B8BE0FC1DC020173107D4F47801EC1826
:10193E00FD08FE8AED8AA70191E1E916F10410F087
:10194E0040E150E060E270E0CE0101969A8B898B07
:10195E000E944F1489899A891C0120E8422E0BC0DF
:10196E009601682DA301C5010E945411C016D1061F
:10197E00ECF2C60125C090E1E916F10458F020E121
:10198E0030E0642DA101C5010E94541180E1E81AD6
:10199E00F108F1CF2D893E892F70332789899A89D5
:1019AE00AC0160E8C5010E9454118B899C89892B7A
:1019BE0031F49601682DA301C5010E945411C8018E
:1019CE0066960FB6F894DEBF0FBECDBFDF91CF91F6
:1019DE001F910F91FF90EF90DF90CF90BF90AF903F
:0E19EE008F907F906F904F903F902F900895B4
:1019FC0010C00E947E1458F00E94771440F029F415
:101A0C005F3F29F00C948C1451110C9486140C9497
:101A1C00B3140E943A1268F39923B1F3552391F34E
:101A2C00951B550BBB27AA2762177307840738F041
:101A3C009F5F5F4F220F331F441FAA1FA9F335D09E
:101A4C000E2E3AF0E0E832D091505040E695001C52
:101A5C00CAF72BD0FE2F29D0660F771F881FBB1F0C
:101A6C00261737074807AB07B0E809F0BB0B802DEA
:101A7C00BF01FF2793585F4F3AF09E3F510578F016
:101A8C000C948C140C9486145F3FE4F3983ED4F3BE
:101A9C00869577956795B795F7959F5FC9F7880FEA
:101AAC00911D9695879597F90895E1E0660F771F3C
:101ABC00881FBB1F621773078407BA0720F0621BCD
:0E1ACC00730B840BBA0BEE1F88F7E09508959C
:101ADA00CF93DF93DC01F90164387105D9F164F41D
:101AEA006138710521F16238710509F440C0603826
:101AFA00710509F054C02EC060397105C1F184F432
:101B0A006838710509F04BC0C081D181CE010296B7
:101B1A0091838083E881F981ED93FC9340833CC0F3
:101B2A00603A7105B9F0603C7105A1F038C0C08116
:101B3A00D181CE01029691838083E881F981ED9368
:101B4A00FC93052E000C660B770B4083518362834E
:101B5A00738322C0C081D181CE0102969183808392
:101B6A00E881F981ED93FC935183408315C0C081CC
:101B7A00D181CE01029691838083E881F981ED9328
:101B8A00FC9351834083852F880F880B828383833C
:101B9A00848385838683878381E090E002C080E026
:081BAA0090E0DF91CF91089556
:101BB200A2E0B0E0EFEDFDE00C94B7121C014B0186
:101BC200FA01DB0112962D913C91139714964D90D8
:101BD2005C9015978D919C9111979A8389831696A3
:101BE2006D907C90179737FD03C08D7F9A83898310
:101BF20000811181228133814481558166817781FF
:101C0200FE0131965F0188E0C82ED12C7201C40119
:101C12000E949B0A298124FF06C00197F301E80F65
:101C2200F91F20E32083298123FF06C00197F301D6
:101C3200E80FF91F20E22083E980FA80D401189688
:101C42002D913C91199721503109281B390B860D92
:101C5200971DAC0160E88201C1010E94770C9C01D2
:101C6200F1018081918190FF08C0D40112968D917B
:101C72009C911397821793070CF4C9012296E2E113
:041C82000C94D312D9
:101C86000FC00E94771438F00E947E1420F095232E
:101C960011F00C948C140C94B31411240C94861427
:101CA6000E943A1270F3959FC1F3950F50E0551FAD
:101CB600629FF001729FBB27F00DB11D639FAA279B
:101CC600F00DB11DAA1F649F6627B00DA11D661FEA
:101CD600829F2227B00DA11D621F739FB00DA11D0B
:101CE600621F839FA00D611D221F749F3327A00DC5
:101CF600611D231F849F600D211D822F762F6A2F61
:101D060011249F5750409AF0F1F088234AF0EE0FC5
:101D1600FF1FBB1F661F771F881F91505040A9F7F2
:101D26009E3F510580F00C948C140C9486145F3FF2
:101D3600E4F3983ED4F3869577956795B795F7952E
:101D4600E7959F5FC1F7FE2B880F911D96958795A6
:041D560097F908955C
:101D5A0011C00E94771438F00E947E1420F039F4E2
:101D6A009F3F19F426F40C94B3140EF4E095E7FBA4
:101D7A000C948C14E92F0E943A1258F3BA1762078E
:101D8A0073078407950720F079F4A6F50C94851457
:101D9A000EF4E0950B2EBA2FA02D0B01B90190017C
:101DAA000C01CA01A0011124FF27591B99F0593FC0
:101DBA0050F4503E68F11A16F040A22F232F342F08
:101DCA004427585FF3CF469537952795A795F04056
:101DDA005395C9F77EF41F16BA0B620B730B840B6B
:101DEA00BAF09150A1F0FF0FBB1F661F771F881F23
:101DFA00C2F70EC0BA0F621F731F841F48F487957B
:101E0A0077956795B795F7959E3F08F0B0CF93956C
:0E1E1A00880F08F09927EE0F97958795089589
:101E28002F923F924F926F927F928F92AF92BF9272
:101E3800CF92DF92EF92FF920F931F93CF93DF938E
:101E4800CDB7DEB727970FB6F894DEBF0FBECDBF6C
:101E58006C017B013901842E98018CED282E80E0DD
:101E6800382E80E0482E87E0F101AE014F5F5F4FCA
:101E7800DA01742D0E94F213F70102811381A48004
:101E8800B580E080F18061147104810419F43A018D
:101E9800F0E88F2E2115310529F4882DB3010E9411
:101EA8001F139C0117FD04C00217130708F49801BB
:101EB8008501682DA301C6010E94770C27960FB6ED
:101EC800F894DEBF0FBECDBFDF91CF911F910F9168
:101ED800FF90EF90DF90CF90BF90AF908F907F9062
:0A1EE8006F904F903F902F900895E7
:101EF200A2E0B0E0EFE7FFE00C94B7123C014B0127
:101F0200FA01DB0112962D913C91139714964D9094
:101F12005C9015978D919C9111979A83898316965F
:101F22002D903C90179737FD03C08D7F9A8389834C
:101F320000811181228133814481558166817781BB
:101F4200FE0131965F018AE0C82ED12C7201C401D4
:101F52000E949B0AE980FA80D40118962D913C9147
:101F6200199721503109281B390B820D931DAC01A1
:101F720060E88201C3010E94770C9C01F301808119
:101F8200918190FF08C0D40112968D919C91139774
:101F9200821793070CF4C9012296E2E10C94D31242
:101FA2006F927F928F92EF92FF920F931F93CF9334
:101FB200DF93CDB7DEB761970FB6F894DEBF0FBEE1
:101FC200CDBFFE01319651E1DF011D925A95E9F72D
:101FD200A2E0B1E0BA83A9839C838B8377FF09C017
:101FE2008FE490E090936100809360008FEF9FEF09
:101FF20019C03901842E7C01615071097F836E837F
:102002009801682DA301CF010E94071348855985C5
:102012002E813F814217530708F49A01F701E20F1C
:10202200F31F108261960FB6F894DEBF0FBECDBFCC
:10203200DF91CF911F910F91FF90EF908F907F9042
:042042006F900895FE
:1020460088249924F401E401B0E49F93AA279A1501
:102056008B049C04ED05FE05CF05D007A10798F477
:10206600AD2FDC2FCF2FFE2FE92D982C892E982F00
:10207600872F762F652F542F432F322F2227B850C4
:1020860031F7BF9127C01B2EBF91BB27220F331FED
:10209600441F551F661F771F881F991F881C991C90
:1020A600EE1FFF1FCC1FDD1FAA1FBB1F8A149B0438
:1020B600EC05FD05CE05DF05A007B10748F08A1837
:1020C6009B08EC09FD09CE09DF09A00BB10B2160C5
:1020D6001A94E1F62EF49401AF01BE01CD01000C75
:0220E60008955B
:1020E800CF92DF92EF92DC0190E0292F30E0220FAF
:1020F800331F6901032E000CEE086E2DA601425510
:102108005F4F6F4F6A01E62EFA018491E7FC8081E8
:1021180081110DC02F5F3F4F032E000C440B225539
:102128003F4F4F4FF901849147FD808124C0CD90E6
:10213800DD90EC901297F6014491E7FC40818413FE
:1021480015C02F5F3F4F032E000C440B22553F4F05
:102158004F4FF901949147FD90815FEFC51AD50A59
:10216800E50ACD92DD92EC92129701C09F5F9B30F9
:0E21780008F4BBCF892FEF90DF90CF90089531
:102186000F931F93CF93DF93DB012D913C91119712
:1021960030FF25C017964D915C91189715962D9195
:1021A6003C9116974217530778F41296ED91FC91DD
:1021B6001397808312962D913C9113972F5F3F4F73
:1021C60013963C932E93129717962D913C91189740
:1021D6002F5F3F4F18963C932E93179715C01D9669
:1021E600ED91FC911E97309719F48FEF9FEF0CC07D
:1021F6008B01EC010995892BC1F7F8018781908540
:10220600019690878783CE01DF91CF911F910F9121
:02221600089529
:10221800CF939B01482FF901849147FD808180323B
:10222800C9F1682F082E000C770B695071096530C9
:10223800710580F18B3249F5A0E0B0E02F5F3F4F88
:102248004F4F02C0A0E0B0E080E090E0CAE0F901A2
:10225800649147FD6081062E000C770B605371096D
:102268006A30710560F4C89FF001C99FF00D112410
:102278002F5F3F4F4F4FCF01861B970BE8CFAB2BFC
:1022880069F491958195910909C08D32D9F6A1E03B
:10229800B0E0D4CF2F5F3F4F4F4FBDCFCF910895C0
:1022A8006F927F928F92CF92DF92EF920F931F934C
:1022B800CF93DF938C016A01E62EE9013A01862E5D
:1022C800620E731E811C37FD8A94C614D704E80475
:1022D80079F0F6018491E7FC8081B801082E000CA2
:1022E800990B0E94C3108FEFC81AD80AE80AEDCFDD
:1022F800CE01DF91CF911F910F91EF90DF90CF909A
:082308008F907F906F90089503
:10231000CF92DF92EF92CF93DF936B01E82EC0E074
:10232000D0E0C031D10519F480EC0E94FF13C03217
:10233000D10539F40E949C1480E80E94FF13C0E08C
:10234000D0E0F6018491E7FC80810E940B148FEFAE
:10235000C81AD80AE80A2196F6018491E7FC808120
:102360008111DFCFDF91CF91EF90DF90CF90089573
:102370000F931F93CF93DF93CDB7DEB764970FB65C
:10238000F894DEBF0FBECDBF9F938F9384ED90E096
:10239000A0E0AF939F938F938E010F5F1F4F1F930A
:1023A0000F930E947113B80180E80E9488110FB644
:1023B000F894DEBF0FBECDBF64960FB6F894DEBFB3
:0E23C0000FBECDBFDF91CF911F910F910895F9
:1023CE000E94421288F09F5798F0B92F9927B75163
:1023DE00B0F0E1F0660F771F881F991F1AF0BA95BB
:1023EE00C9F714C0B13091F00E948514B1E0089580
:1023FE000C948514672F782F8827B85F39F0B93F72
:10240E00CCF3869577956795B395D9F73EF490956D
:0E241E008095709561957F4F8F4F9F4F089569
:10242C00990F0008550FAA0BE0E8FEEF16161706D9
:10243C00E807F907C0F012161306E407F50798F041
:10244C00621B730B840B950B39F40A2661F0232B5A
:10245C00242B252B21F408950A2609F4A140A695D6
:08246C008FEF811D811D089511
:1024740057FD9058440F551F59F05F3F71F0479531
:10248400880F97FB991F61F09F3F79F08795089516
:10249400121613061406551FF2CF4695F1DF08C035
:1024A400161617061806991FF1CF86957105610552
:0424B40008940895EB
:1024B800FA0160387105CCF0623871051CF0633898
:1024C800710599F4A081B1819D012C5F3F4F318343
:1024D80020834D915D916D917C91FC0140835183E6
:1024E8006283738381E090E0089580E090E008952E
:1024F80097FB10F8169400080F93083098F00850CE
:10250800232F342F452F562F672F782F892F902D63
:10251800F4CF05949795879577956795579547953F
:0C252800379527950A95AAF70F910895A2
:10253400CF93DF9300D000D0CDB7DEB769837A8321
:102544008B839C83862F0E94A0148A810E94A014EE
:102554008B810E94A0148C810E94A0140F900F9074
:0A2564000F900F90DF91CF910895C2
:10256E002F923F924F925F926F927F928F929F9295
:10257E00AF92BF92CF92DF92EF92FF920F931F9383
:10258E00CF93DF93CDB7DEB7CA1BDB0B0FB6F89434
:08259E00DEBF0FBECDBF0994A2
:1025A6002A88398848885F846E847D848C849B84DD
:1025B600AA84B984C884DF80EE80FD800C811B81EB
:1025C600AA81B981CE0FD11D0FB6F894DEBF0FBE1A
:0625D600CDBFED010895E8
:1025DC001ABA88B3846088BB88B38D7F88BB0E948D
:1025EC00A713CF9B08C08FEC97E00197F1F700C0C1
:1025FC0000000E94EE128FEF8ABB88B38B7F88BBE2
:02260C0008952F
:10260E00A2E0B0E0EDE0F3E10C94C5128C013A8348
:10261E0029839E012F5F3F4F0E947500F801208194
:10262E0024FF02C08FEF9FEF2296E4E00C94E1129C
:10263E00CF92DF92EF926B01E82EA82FCB01FC0117
:10264E002491A7FD2081222319F00196A11DF7CF19
:0C265E008C199D09EF90DF90CF9008953B
:10266A0087B38E6087BB8FEF8ABB0E949C1488E376
:10267A000E94FF1386E00E94FF1380E80E94FF1366
:08268A008FE00E94FF13089588
:1026920097FB072E16F4009407D077FD09D00E940D
:1026A2005D1307FC05D03EF4909581959F4F0895E8
:0826B200709561957F4F0895BA
:1026BA00AA1BBB1B51E107C0AA1FBB1FA617B7075E
:1026CA0010F0A61BB70B881F991F5A95A9F780957A
:0826DA009095BC01CD010895AB
:1026E200A0E0B0E0E7E7F3E10C94C7129E01265F99
:1026F2003F4F4F81588569858D819E810E941714B5
:06270200E2E00C94E3127A
:10270800CF93DF9300D0CDB7DEB70E94A41489839E
:102718000E94A4148A8389819A810F900F90DF9177
:04272800CF910895B0
:10272C00092E0394000C11F4882352F0BB0F40F4D3
:10273C00BF2B11F460FF04C06F5F7F4F8F4F9F4F13
:02274C000895EE
:10274E0088B3877F88BB2FE788E391E021508040D4
:10275E009040E1F700C0000088B3886088BB089500
:10276E0060957095809590953095409550952195F2
:10277E003F4F4F4F5F4F6F4F7F4F8F4F9F4F08957C
:10278E000E9435130E94461465E678E680E090E0DC
:0E279E000E949A120E9484130E94B811FBCF71
:1027AC009A01462FDC01F901549147FD50815D934C
:0C27BC002F5F3F4F4F4F5111F6CF089593
:1027C800689401C0E8948F929F92CF93DF930E9400
:0C27D8002310DF91CF919F908F90089507
:1027E400992777FD05C005900D920197E1F70895AB
:0A27F40001900D920197E1F708959E
:1027FE00CF93C82F0E94EE1288B38D7F88BBCBBBC0
:08280E000E94A713CF91089569
:10281600CF93C82F0E94EE1288B3826088BBCBBBD1
:082826000E94A713CF91089551
:10282E000F931F9389019A01462F6FEF7FE70E9446
:08283E00D10F1F910F910895C5
:102846000024A7FD00942A173005400550056005B1
:0828560070058005900508954E
:10285E000024A7FD00942A0F301D401D501D601D41
:08286E00701D801D901D0895EE
:10287600EC010E94BB140E94BA14CE010E94BC1443
:06288600CE010E94B8140F
:10288C0083E389B98AB188618AB980B5866880BDCD
:02289C0008959D
:10289E00FC01480F591FE417F50711F06193FBCFA8
:0228AE0008958B
:1028B0009C01215631092A31310510F48F75992771
:0228C000089579
:1028C2009C01215431092A31310508F480620895AE
:0E28D2005058BB27AA270E94AD0E0C949613F7
:0E28E0000E94E7116894B1110C9486140895BB
:0E28EE0000240A941616170618060906089507
:0E28FC0000240A941216130614060506089509
:0E290A00E894BB2766277727CB0197F908953D
:0C29180097F99F6780E870E060E0089588
:0A2924000E94161208F481E00895E5
:0A292E000E94161208F48FEF0895BE
:0829380081E00E94FF130895E5
:082940005D9BFECF8CB90895E8
:082948005F9BFECF8CB10895E6
:082950000E94FE0C0C9496138A
:082958000E94430E0C9496133B
:0629600080E090E0089504
:062966009FEF80EC0895D4
:04296C000C940000C7
:042970000E9455006C
:022974000895C4
:022976000895C2
:022978000895C0
:00000001FF
