:020000040800F2
:1000000000280020C907000819080008B5080008E2
:10001000BB080008C1080008C7080008000000006D
:10002000000000000000000000000000CD080008F3
:100030001908000800000000C10B00082109000891
:10004000190800081908000819080008190800080C
:10005000190800081908000885010008A90100080E
:10006000CD010008F1010008150200081908000878
:1000700019080008190800081908000819080008DC
:1000800019080008190800081908000819080008CC
:1000900019080008190800081908000839020008A2
:1000A00019080008190800081908000819080008AC
:1000B000190800081908000819080008BD030008FD
:1000C000B1030008D5030008C9030008E1030008D4
:1000D000290400087104000819080008190800081C
:1000E000E1020008190800080000000019080008D3
:1000F000190800081908000819080008190800085C
:10010000190800081908000819080008190800084B
:10011000190800081908000819080008190800083B
:10012000190800081908000819080008190800082B
:1001300010B5054C237833B9044B13B10448AFF321
:1001400000800123237010BD080000200000000083
:10015000A412000808B5034B1BB103490348AFF3D1
:10016000008008BD000000000C000020A412000860
:1001700010F8012B11F8013B012A28BF9A42F7D051
:10018000D01A704780B500AF054B5B69044A43F055
:1001900001035361034B1B68984700BF80BD00BF3C
:1001A000000401404000002080B500AF054B5B69B2
:1001B000044A43F002035361034B5B68984700BF56
:1001C00080BD00BF000401404000002080B500AFAA
:1001D000054B5B69044A43F004035361034B9B687E
:1001E000984700BF80BD00BF0004014040000020D0
:1001F00080B500AF054B5B69044A43F008035361C7
:10020000034BDB68984700BF80BD00BF000401407E
:100210004000002080B500AF054B5B69044A43F005
:1002200010035361034B1B69984700BF80BD00BF9B
:10023000000401404000002080B500AF264B5B6900
:1002400003F02003002B08D0234B5B69224A43F0C4
:1002500020035361214B5B6998471F4B5B6903F097
:100260004003002B08D01C4B5B691B4A43F0400342
:1002700053611A4B9B699847174B5B6903F08003E6
:10028000002B08D0144B5B69134A43F08003536181
:10029000124BDB699847104B5B6903F48073002BAA
:1002A00008D00D4B5B690C4A43F4807353610B4BD0
:1002B0001B6A9847084B5B6903F40073002B08D056
:1002C000054B5B69044A43F400735361034B5B6A5B
:1002D000984700BF80BD00BF0004014040000020DF
:1002E00080B500AF304B5B6903F48063002B09D00D
:1002F0002D4B5B692C4A43F4806353612B4B9B6A03
:1003000098474EE0284B5B6903F40063002B09D04B
:10031000254B5B69244A43F400635361234BDB6A3A
:1003200098473EE0204B5B6903F48053002B09D0D3
:100330001D4B5B691C4A43F4805353611B4B1B6B81
:1003400098472EE0184B5B6903F40053002B09D04B
:10035000154B5B69144A43F400535361134B5B6BB9
:1003600098471EE0104B5B6903F48043002B09D0D3
:100370000D4B5B690C4A43F4804353610B4B9B6B01
:1003800098470EE0084B5B6903F40043002B08D04C
:10039000054B5B69044A43F400435361034BDB6B39
:1003A000984700BF80BD00BF00040140400000200E
:1003B00080B400AF00BFBD4680BC704780B400AFC2
:1003C00000BFBD4680BC704780B400AF00BFBD46D3
:1003D00080BC704780B400AF00BFBD4680BC704792
:1003E00080B582B000AF0E4B9B6803F00103DAB218
:1003F0003B7962F300033B71094B9B685B0803F098
:100400000103DAB23B7962F341033B71054B1B6890
:100410005B693A1D1046984700BF0837BD4680BD4E
:10042000003001407C00002080B582B000AF0E4B50
:100430009B6803F00103DAB23B7962F300033B717E
:10044000094B9B685B0803F00103DAB23B7962F366
:1004500041033B71054B1B685B693A1D1046984789
:1004600000BF0837BD4680BD003800407C0000203A
:1004700080B582B000AF00233B71144B1B685B0951
:1004800003F00103DAB23B7962F300033B710F4BD7
:100490001B689B0903F00103DAB23B7962F3410365
:1004A0003B710A4B1B68DB0903F00103DAB23B79AD
:1004B00062F382033B71064B1B685B693A1D104671
:1004C000984700BF0837BD4680BD00BF00380140D7
:1004D0002400002080B500AF124B1B7883F001038D
:1004E000DAB2104B1A70104B1B6801330E4A1360BE
:1004F0000D4B1B68642B0AD10C490D4800F0D2FD4E
:100500000C4800F039FD09490B4800F0CBFD064BC3
:100510001B68C82BE0D1044B00221A60044800F08D
:10052000E0FDD9E7800100202C000020F40000202D
:10053000C801002080000020C400002080B500AF6A
:100540000E4B1B7883F00103DAB20C4B1A700C4B84
:100550001B6801330A4A1360094B1B68642B02D1E4
:10056000084800F009FD064B1B68C82BE8D1044B76
:1005700000221A60044800F011FDE1E73801002074
:10058000300000203C0100208401002080B500AF35
:100590000E4B1B7883F00103DAB20C4B1A700C4B34
:1005A0001B6801330A4A1360094B1B68642B02D194
:1005B000084800F0E1FC064B1B68C82BE8D1044B4F
:1005C00000221A60044800F0E9FCE1E7F80100208D
:1005D00034000020800000203C01002080B500AFE6
:1005E000124B1B7883F00103DAB2104B1A70104BD8
:1005F0001B6801330E4A13600D4B1B68032B07D198
:100600000C490D4800F04EFD0A490C4800F04AFD27
:10061000074B1B68C82BE3D1054B00221A60074823
:1006200000F05FFD034800F0B9FCD9E72800002086
:100630003800002080000020C4000020C8010020F5
:1006400080B582B000AF00F04BF900F0C5FB034667
:10065000002B00D0FEE7454B03225A60434B444A2F
:100660001A60444B444A92E803001860043319802E
:1006700002330A0C1A70414B03225A603F4B404A26
:100680001A60404B404A92E8030018600433198016
:1006900002330A0C1A703D4B4FF480621A603B4BD8
:1006A0003B4A9A60394B04221A713A4B3A4A92E813
:1006B000030018600433198002330A0C1A70374B98
:1006C0004FF480621A60354B354A9A60334B0322EF
:1006D0001A71344B344A92E80300186004331980CD
:1006E00002330A0C1A70314B4FF480621A602F4BA0
:1006F0002F4A9A602D4B02221A712E4B2E4A92E8F5
:10070000030018600433198002330A0C1A702B4B53
:100710004FF480621A60294B294A9A60274B0122C4
:100720001A71244B274A92E8030018600433198099
:1007300002330A0C1A70154800F0C8FB0346FB711F
:10074000164800F0C3FB0346FB71184800F0BEFBDF
:100750000346FB71194800F0B9FB0346FB710B48D7
:1007600000F00AFC00F02CFCFEE700BFC8010020EE
:1007700000000020D8010020BC120008C4000020A6
:1007800004000020D4000020C4120008F40000205F
:10079000D504000810010020CC12000884010020BC
:1007A0003D050008A0010020D41200083C010020F3
:1007B0008D05000858010020DC1200088000002090
:1007C000DD050008E41200080D488546AFF30080FF
:1007D0000C480D490D4A002302E0D458C45004339C
:1007E000C4188C42F9D30A4A0A4C002301E0136072
:1007F0000432A242FBD300F031FDFFF721FFFEE7F8
:10080000002800200000002008000020001300083D
:100810000800002094050020FEE7000080B483B0AB
:1008200000AF03463960FB7197F90730002B0ADBF4
:100830003B68DAB20C4997F907305201D2B20B4447
:1008400083F800230AE03B68DAB20849FB7903F039
:100850000F03043B5201D2B20B441A7600BF0C378F
:10086000BD4680BC704700BF00E100E000ED00E045
:1008700080B582B000AF78607B68013BB3F1807FC8
:1008800001D301230FE00A4A7B68013B5360072133
:100890004FF0FF30FFF7C2FF054B00229A60044B78
:1008A00007221A60002318460837BD4680BD00BFE6
:1008B00010E000E080B400AFFEE780B400AFFEE7D8
:1008C00080B400AFFEE780B400AFFEE71EF0040F77
:1008D0000CBFEFF30880EFF3098000F03BB900BFD5
:1008E00080B500AF0F216FF00100FFF797FF00BF49
:1008F00080BD000080B400AF044B5B68034A43F046
:100900008053536000BFBD4680BC704700ED00E0DF
:1009100080B500AF4FF4FA50FFF7AAFF00BF80BDCB
:1009200080B500AF074B1B7883F00103DAB2054BAB
:100930001A7000F071FB00F0BBF8FFF7DBFF00BF9F
:1009400080BD00BF3C00002080B483B000AF002316
:10095000FB710023BB71214BD3F89C317B710023C9
:10096000FB7130E00023BB7123E0BB791B4A52F8D6
:1009700023301A79BB790133184951F823301B7998
:100980009A4213D9BB79154A52F823303B60BB79A0
:100990005A1CBB79114951F82220104941F82320F3
:1009A000BB7901330D493A6841F82320BB79013303
:1009B000BB71BA797979FB79CB1A013B9A42D4DBC6
:1009C000FB790133FB71FA797B79013B9A42C9DBF0
:1009D00000BF0C37BD4680BC704700BFE803002055
:1009E00080B584B000AF0023FB6000233B60FFF7BD
:1009F000ABFF00BF3B4619462B4800F0F1FB034616
:100A0000022BF7D144E0294AFB6852F82330BB603F
:100A1000FB680133254A52F823307B60BB6893F8AA
:100A20003A30002B31D07B6893F83A30002B08D154
:100A3000B9681D4800F092FBBB68032283F83A2096
:100A40002EE0BB681A797B681B799A4208D2B96894
:100A5000154800F083FBBB68032283F83A201FE0AF
:100A6000BB681A797B681B799A4208D1B9680E482D
:100A700000F074FBBB68032283F83A2005E0BB68F2
:100A80001A797B681B799A4209D8FB680133FB60AD
:100A9000064BD3F89C21FB689A42B4D800E000BF13
:100AA00000BF1037BD4680BD40020020E803002093
:100AB00080B500AF244B1B68002B1AD1234BD3F811
:100AC000A03193F83A30002B13D0204BD3F8A0314B
:100AD000012283F83A201D4BD3F8A03119461A4859
:100AE00000F03CFB194BD3F8A031184AC2F8A431EE
:100AF00027E01749144800F073FB144BD3F8A431D6
:100B0000012283F83A20114BD3F8A0311A790F4B08
:100B1000D3F8A4311B799A4213D10C4BD3F8A031EE
:100B200093F83A30002B0CD0084BD3F8A03119467B
:100B3000054800F013FB054BD3F8A031032283F8DE
:100B40003A2000BF80BD00BF40020020E803002023
:100B50008C05002080B584B000AF78607B681833C6
:100B60001B68023B1B78FB73FB7B002B20DB012BFC
:100B700002DD022B17D01BE0FFF732FF0E4B93F87C
:100B8000A831012B12D10C4BD3F8A0311C330B49E7
:100B90001846FFF7EDFA0346002B07D0FFF788FF52
:100BA000FFF7A8FE02E0FFF71BFF00E000BF00BF59
:100BB00000BF1037BD4680BDE8030020EC120008DE
:100BC0006E4BD3F8A031EFF309829A616B4BD3F8E7
:100BD000A0319A69043A9A61684BD3F8A0319B69B5
:100BE00022461A60654BD3F8A0319A69043A9A619B
:100BF000624BD3F8A0319B692A461A605F4BD3F849
:100C0000A0319A69043A9A615C4BD3F8A0319B6990
:100C100032461A60594BD3F8A0319A69043A9A6166
:100C2000564BD3F8A0319B693A461A60534BD3F820
:100C3000A0319A69043A9A61504BD3F8A0319B696C
:100C400042461A604D4BD3F8A0319A69043A9A6132
:100C50004A4BD3F8A0319B694A461A60474BD3F8F8
:100C6000A0319A69043A9A61444BD3F8A0319B6948
:100C700052461A60414BD3F8A0319A69043A9A61FE
:100C80003E4BD3F8A0319B695A461A603B4BD3F8D0
:100C9000A431002B09D0394BD3F8A431374AC2F81C
:100CA000A031364B0022C3F8A421344BD3F8A03135
:100CB0009B691B689B46314BD3F8A0319A6904327B
:100CC0009A612E4BD3F8A0319B691B689A462B4B37
:100CD000D3F8A0319A6904329A61284BD3F8A03135
:100CE0009B691B689946254BD3F8A0319A69043259
:100CF0009A61224BD3F8A0319B691B6898461F4B21
:100D0000D3F8A0319A6904329A611C4BD3F8A03110
:100D10009B691B681F46194BD3F8A0319A690432AE
:100D20009A61164BD3F8A0319B691B681E46134B82
:100D3000D3F8A0319A6904329A61104BD3F8A031EC
:100D40009B691B681D460D4BD3F8A0319A6904328C
:100D50009A610A4BD3F8A0319B691B681C46074B6C
:100D6000D3F8A0319A6904329A61044BD3F8A031C8
:100D70009B6983F30988704700BF00BFE803002028
:100D800080B400AF0B4A0C4BC3F890210A4BD3F848
:100D90009031A3F50063084AC2F89431064BD3F8AA
:100DA00094310833044AC2F8983100BFBD4680BC74
:100DB000704700BF00280020E803002080B400AF87
:100DC000044B1B7883F00103DAB2024B1A7020BF88
:100DD000F6E700BF5402002080B582B000AF0023C8
:100DE000FB71144B002283F8A821FFF7C9FF64228E
:100DF0001149124800F090F90346002B01D001235D
:100E0000FB710F4B0F4A07CA03C31A700E4BFF2228
:100E10001A710D4B0D4A9A600B4B4FF496721A6083
:100E2000094800F053F80346FB71FB791846083770
:100E3000BD4680BDE803002058020020400200208B
:100E400018020020EC120008FC010020BD0D000873
:100E500080B485B000AF78607B681B691A467B68F8
:100E60009A617B689B691A1F7B689A617B689B69A2
:100E70004FF080721A607B689B691A1F7B689A61C9
:100E80007B689A687B689B691A607B689B691A1FFC
:100E90007B689A617B689B696FF002021A6000238D
:100EA000FB600BE07B689B691A1F7B689A617B681B
:100EB0009B6900221A60FB680133FB60FB680C2B06
:100EC000F0DD00BF1437BD4680BC704780B584B0EC
:100ED00000AF78600023FB73194BD3F898217B682F
:100EE0001A617B681A697B681B68D21A7B685A6131
:100EF0007B685B69134A934201D202231BE07B6843
:100F00005B69083B0E4AC2F898317868FFF7A0FF8A
:100F10000B4BD3F89C310A497A6841F82320084BDF
:100F2000D3F89C310133064AC2F89C317B68002219
:100F300083F83A20FB7B18461037BD4680BD00BFC2
:100F4000E8030020980B002080B483B000AF034674
:100F5000FB71FB79012B06D0022B06D0002B00D0B1
:100F600005E000DF03E001DF01E002DF00BF00BFBA
:100F70000C37BD4680BC704780B584B000AF786048
:100F80000023FB737B68022283F83A200020FFF7DE
:100F9000DBFFFB7B18461037BD4680BD80B584B0B3
:100FA00000AF78600023FB737B68002283F83A204F
:100FB0000120FFF7C9FFFB7B18461037BD4680BDF7
:100FC00080B500AF124B012283F8A821104B114AC3
:100FD000C3F8A0210F48FFF7CFFFFFF799FC0C4B98
:100FE000D3F8A0319B6983F30988EFF314804FF0A5
:100FF000020140EA010080F31488EFF3148343F008
:10100000010383F31488034B9B68984700BF80BD9E
:10101000E8030020FC01002080B582B000AF00236F
:101020007B6000237B6031E01D4A7B6852F82330EF
:1010300093F83A30002B26D1194A7B6852F82330B6
:1010400093F83C30002B1ED1154A7B6852F82330B0
:101050001A6C013A1A64124A7B6852F823301B6CEE
:10106000002B10D10E4A7B6852F82330012283F8FE
:101070003C200B4A7B6852F82330022283F83A2046
:101080000220FFF761FF7B6801337B60044BD3F8DC
:101090009C217B689A42C7D800BF0837BD4680BDF7
:1010A000E803002080B582B000AF786039607B68CB
:1010B0009B68002B04D17B683A689A6000230CE09F
:1010C0007B68DB68002B07D17B683A68DA60386898
:1010D000FFF764FF002300E0032318460837BD46EE
:1010E00080BD80B582B000AF78607B689B68002BC4
:1010F0000DD07B68DA687B689A607B680022DA60D2
:101100007B689B681846FFF737FF002300E0042345
:1011100018460837BD4680BD80B485B000AFF86082
:10112000B9607A60BB68002B01D1032311E0FB6832
:10113000BA68DA60FB68DA68FB685A60FB68DA68EC
:10114000FB689A60FB687A681A61FB6800221A6083
:10115000002318461437BD4680BC704780B483B066
:1011600000AF786039607B68DB68002B03D07B6858
:101170001B69002B01D103232DE07B685A687B6833
:101180009B689A4207D17B681A687B681B699A4200
:1011900001D101231FE07B689B683A681A607B6875
:1011A0001B685A1C7B681A607B689B687A68D268E7
:1011B00011467A68126992000A44043A934204D1B3
:1011C0007B68DA687B689A6004E07B689B681A1D1C
:1011D0007B689A60002318460C37BD4680BC704778
:1011E00080B483B000AF786039607B68DB68002B27
:1011F00003D07B681B69002B01D1032328E07B68A7
:101200005A687B689B689A4201D1022320E07B6880
:101210005B681A683B681A607B681B685A1E7B68AB
:101220001A607B685B687A68D26811467A681269CE
:1012300092000A44043A934204D17B68DA687B68DE
:101240005A6004E07B685B681A1D7B685A60002363
:1012500018460C37BD4680BC7047000070B50025AD
:101260000C4E0D4CA41BA410A54209D100F01AF895
:1012700000250A4E0A4CA41BA410A54205D170BD3E
:1012800056F8253098470135EEE756F8253098474F
:101290000135F2E7F8120008F8120008F812000809
:1012A000FC120008F8B500BFF8BC08BC9E467047A9
:0C12B000F8B500BFF8BC08BC9E467047B3
:1012BC006D757465783100006D7574657832000059
:1012CC005461736B5F3100005461736B5F320000CB
:1012DC005461736B5F3300005461736B5F340000B7
:0C12EC0069646C655461736B00000000C5
:0412F8005501000894
:0412FC0031010008B4
:081300000102030001020300D9
:04000005080007C91F
:00000001FF
