:020000040800F2
:10000000002800200D0600085D0600085D060008B7
:100010005D0600085D0600085D060008000000009F
:10002000000000000000000000000000850500083E
:100030005D06000800000000990500085D06000844
:100040005D0600085D0600085D0600085D06000804
:100050005D0600085D0600087101000895010008B2
:10006000B9010008DD010008010200085D06000872
:100070005D0600085D0600085D0600085D060008D4
:100080005D0600085D0600085D0600085D060008C4
:100090005D0600085D0600085D06000825020008F0
:1000A0005D0600085D0600085D0600085D060008A4
:1000B0005D0600085D0600085D060008A90300084B
:1000C0009D030008C1030008B5030008CD03000824
:1000D000150400085D0400085D0600085D060008C0
:1000E000CD0200085D060008000000005D06000863
:1000F0005D0600085D0600085D0600085D06000854
:100100005D0600085D0600085D0600085D06000843
:100110005D0600085D0600085D0600085D06000833
:100120005D0600085D0600085D0600085D06000823
:1001300010B5054C237833B9044B13B10448AFF321
:1001400000800123237010BD00000020000000008B
:10015000A806000808B5034B1BB103490348AFF3D9
:10016000008008BD0000000004000020A806000870
:1001700080B500AF054B5B69044A43F0010353614E
:10018000034B1B68984700BF80BD00BF00040140BF
:100190002000002080B500AF054B5B69044A43F0A6
:1001A00002035361034B5B68984700BF80BD00BFEB
:1001B000000401402000002080B500AF054B5B69C2
:1001C000044A43F004035361034B9B68984700BF04
:1001D00080BD00BF000401402000002080B500AFBA
:1001E000054B5B69044A43F008035361034BDB682A
:1001F000984700BF80BD00BF0004014020000020E0
:1002000080B500AF054B5B69044A43F010035361AE
:10021000034B1B69984700BF80BD00BF000401402D
:100220002000002080B500AF264B5B6903F020035F
:10023000002B08D0234B5B69224A43F02003536113
:10024000214B5B6998471F4B5B6903F04003002B10
:1002500008D01C4B5B691B4A43F0400353611A4BA7
:100260009B699847174B5B6903F08003002B08D00C
:10027000144B5B69134A43F080035361124BDB69F3
:100280009847104B5B6903F48073002B08D00D4B2B
:100290005B690C4A43F4807353610B4B1B6A9847AC
:1002A000084B5B6903F40073002B08D0054B5B69B6
:1002B000044A43F400735361034B5B6A984700BFE1
:1002C00080BD00BF000401402000002080B500AFC9
:1002D000304B5B6903F48063002B09D02D4B5B69C5
:1002E0002C4A43F4806353612B4B9B6A98474EE042
:1002F000284B5B6903F40063002B09D0254B5B6935
:10030000244A43F400635361234BDB6A98473EE081
:10031000204B5B6903F48053002B09D01D4B5B69B4
:100320001C4A43F4805353611B4B1B6B98472EE0D0
:10033000184B5B6903F40053002B09D0154B5B6924
:10034000144A43F400535361134B5B6B98471EE010
:10035000104B5B6903F48043002B09D00D4B5B69A4
:100360000C4A43F4804353610B4B9B6B98470EE060
:10037000084B5B6903F40043002B08D0054B5B6915
:10038000044A43F400435361034BDB6B984700BFBF
:1003900080BD00BF000401402000002080B400AFF9
:1003A00000BFBD4680BC704780B400AF00BFBD46F3
:1003B00080BC704780B400AF00BFBD4680BC7047B2
:1003C00080B400AF00BFBD4680BC704780B582B02E
:1003D00000AF0E4B9B6803F00103DAB23B7962F386
:1003E00000033B71094B9B685B0803F00103DAB221
:1003F0003B7962F341033B71054B1B685B693A1D16
:100400001046984700BF0837BD4680BD0030014008
:100410005C00002080B582B000AF0E4B9B6803F0FB
:100420000103DAB23B7962F300033B71094B9B682D
:100430005B0803F00103DAB23B7962F341033B71DD
:10044000054B1B685B693A1D1046984700BF08378B
:10045000BD4680BD003800405C00002080B582B001
:1004600000AF00233B71144B1B685B0903F00103D1
:10047000DAB23B7962F300033B710F4B1B689B09B7
:1004800003F00103DAB23B7962F341033B710A4B9B
:100490001B68DB0903F00103DAB23B7962F38203E4
:1004A0003B71064B1B685B693A1D1046984700BFBD
:1004B0000837BD4680BD00BF003801401C00002049
:1004C00080B487B000AFF860B9607A607B68013BA8
:1004D000032B18D801A252F823F000BFED04000846
:1004E000F1040008F5040008F904000801DF0AE03F
:1004F00002DF08E003DF06E0074B5B68064A43F0D3
:100500008053536000BF03467B617B6918461C37EC
:10051000BD4680BC704700BF00ED00E080B487B0EE
:1005200000AF78607B6818331B68023B1B78FB7553
:100530007B681B683B617B6804331B68FB60FB7D49
:10054000022B0BD0032B10D0012B00D016E03A6900
:10055000FB6813441A467B681A600EE03A69FB6830
:10056000D31A1A467B681A6007E03B69FA6802FBF7
:1005700003F31A467B681A6000BF00BF1C37BD46F4
:1005800080BC70471EF0040F0CBFEFF30880EFF340
:100590000980FFF7C3BF00BF80B400AF00BFBD46F6
:1005A00080BC704780B500AF174B01221A70012242
:1005B00003210320FFF784FF0346DAB2124B1A70BF
:1005C000022203210320FFF77BFF0346DAB20E4B22
:1005D0001A70032203210320FFF772FF0346DAB2E9
:1005E000094B1A70042200210020FFF769FF03461F
:1005F000DAB2054B1A70044B1B78002BFBD0024B70
:1006000000221A70F7E700BF680000200D488546F9
:10061000AFF300800C480D490D4A002302E0D45886
:10062000C4500433C4188C42F9D30A4A0A4C00233C
:1006300001E013600432A242FBD300F011F8FFF78F
:10064000B1FFFEE70028002000000020000000208D
:10065000C8060008000000207C000020FEE7000023
:1006600070B500250C4E0D4CA41BA410A54209D159
:1006700000F01AF800250A4E0A4CA41BA410A5424B
:1006800005D170BD56F8253098470135EEE756F88C
:10069000253098470135F2E7C0060008C00600087B
:1006A000C0060008C4060008F8B500BFF8BC08BCC6
:1006B0009E467047F8B500BFF8BC08BC9E46704720
:0406C00055010008D8
:0406C40031010008F8
:040000050800060DDC
:00000001FF
